{
	"Exchange.sol": {
		"Exchange": {
			"abi": [
				{
					"inputs": [
						{
							"internalType": "address",
							"name": "_erc20TokenAddress",
							"type": "address"
						}
					],
					"stateMutability": "nonpayable",
					"type": "constructor"
				},
				{
					"anonymous": false,
					"inputs": [
						{
							"indexed": false,
							"internalType": "uint256",
							"name": "amountERC20TokenDeposited",
							"type": "uint256"
						},
						{
							"indexed": false,
							"internalType": "uint256",
							"name": "amountEthDeposited",
							"type": "uint256"
						},
						{
							"indexed": false,
							"internalType": "uint256",
							"name": "liquidityPositionsIssued",
							"type": "uint256"
						}
					],
					"name": "LiquidityProvided",
					"type": "event"
				},
				{
					"anonymous": false,
					"inputs": [
						{
							"indexed": false,
							"internalType": "uint256",
							"name": "amountERC20TokenWithdrew",
							"type": "uint256"
						},
						{
							"indexed": false,
							"internalType": "uint256",
							"name": "amountEthWithdrew",
							"type": "uint256"
						},
						{
							"indexed": false,
							"internalType": "uint256",
							"name": "liquidityPositionsBurned",
							"type": "uint256"
						}
					],
					"name": "LiquidityWithdrew",
					"type": "event"
				},
				{
					"anonymous": false,
					"inputs": [
						{
							"indexed": false,
							"internalType": "uint256",
							"name": "amountERC20TokenWithdrew",
							"type": "uint256"
						},
						{
							"indexed": false,
							"internalType": "uint256",
							"name": "amountEthDeposited",
							"type": "uint256"
						}
					],
					"name": "SwapForERC20Token",
					"type": "event"
				},
				{
					"anonymous": false,
					"inputs": [
						{
							"indexed": false,
							"internalType": "uint256",
							"name": "amountERC20TokenDeposited",
							"type": "uint256"
						},
						{
							"indexed": false,
							"internalType": "uint256",
							"name": "amountEthWithdrew",
							"type": "uint256"
						}
					],
					"name": "SwapForEth",
					"type": "event"
				},
				{
					"inputs": [],
					"name": "contractERC20TokenBalance",
					"outputs": [
						{
							"internalType": "uint256",
							"name": "",
							"type": "uint256"
						}
					],
					"stateMutability": "view",
					"type": "function"
				},
				{
					"inputs": [],
					"name": "contractEthBalance",
					"outputs": [
						{
							"internalType": "uint256",
							"name": "",
							"type": "uint256"
						}
					],
					"stateMutability": "view",
					"type": "function"
				},
				{
					"inputs": [],
					"name": "erc20TokenAddress",
					"outputs": [
						{
							"internalType": "address",
							"name": "",
							"type": "address"
						}
					],
					"stateMutability": "view",
					"type": "function"
				},
				{
					"inputs": [
						{
							"internalType": "uint256",
							"name": "_amountEth",
							"type": "uint256"
						}
					],
					"name": "estimateERC20TokenToProvide",
					"outputs": [
						{
							"internalType": "uint256",
							"name": "",
							"type": "uint256"
						}
					],
					"stateMutability": "view",
					"type": "function"
				},
				{
					"inputs": [
						{
							"internalType": "uint256",
							"name": "_amountERC20Token",
							"type": "uint256"
						}
					],
					"name": "estimateEthToProvide",
					"outputs": [
						{
							"internalType": "uint256",
							"name": "",
							"type": "uint256"
						}
					],
					"stateMutability": "view",
					"type": "function"
				},
				{
					"inputs": [
						{
							"internalType": "uint256",
							"name": "_amountEth",
							"type": "uint256"
						}
					],
					"name": "estimateSwapForERC20Token",
					"outputs": [
						{
							"internalType": "uint256",
							"name": "",
							"type": "uint256"
						}
					],
					"stateMutability": "view",
					"type": "function"
				},
				{
					"inputs": [
						{
							"internalType": "uint256",
							"name": "_amountERC20Token",
							"type": "uint256"
						}
					],
					"name": "estimateSwapForEth",
					"outputs": [
						{
							"internalType": "uint256",
							"name": "",
							"type": "uint256"
						}
					],
					"stateMutability": "view",
					"type": "function"
				},
				{
					"inputs": [],
					"name": "getMyLiquidityPositions",
					"outputs": [
						{
							"internalType": "uint256",
							"name": "",
							"type": "uint256"
						}
					],
					"stateMutability": "view",
					"type": "function"
				},
				{
					"inputs": [],
					"name": "k",
					"outputs": [
						{
							"internalType": "uint256",
							"name": "",
							"type": "uint256"
						}
					],
					"stateMutability": "view",
					"type": "function"
				},
				{
					"inputs": [
						{
							"internalType": "uint256",
							"name": "_amountERC20Token",
							"type": "uint256"
						}
					],
					"name": "provideLiquidity",
					"outputs": [
						{
							"internalType": "uint256",
							"name": "",
							"type": "uint256"
						}
					],
					"stateMutability": "payable",
					"type": "function"
				},
				{
					"inputs": [
						{
							"internalType": "uint256",
							"name": "_amountEth",
							"type": "uint256"
						}
					],
					"name": "swapForERC20Token",
					"outputs": [
						{
							"internalType": "uint256",
							"name": "",
							"type": "uint256"
						}
					],
					"stateMutability": "nonpayable",
					"type": "function"
				},
				{
					"inputs": [
						{
							"internalType": "uint256",
							"name": "_amountERC20Token",
							"type": "uint256"
						}
					],
					"name": "swapForEth",
					"outputs": [
						{
							"internalType": "uint256",
							"name": "",
							"type": "uint256"
						}
					],
					"stateMutability": "nonpayable",
					"type": "function"
				},
				{
					"inputs": [],
					"name": "totalLiquidityPositions",
					"outputs": [
						{
							"internalType": "uint256",
							"name": "",
							"type": "uint256"
						}
					],
					"stateMutability": "view",
					"type": "function"
				},
				{
					"inputs": [
						{
							"internalType": "uint256",
							"name": "_liquidityPositionsToBurn",
							"type": "uint256"
						}
					],
					"name": "withdrawLiquidity",
					"outputs": [
						{
							"internalType": "uint256",
							"name": "",
							"type": "uint256"
						},
						{
							"internalType": "uint256",
							"name": "",
							"type": "uint256"
						}
					],
					"stateMutability": "nonpayable",
					"type": "function"
				},
				{
					"stateMutability": "payable",
					"type": "receive"
				}
			],
			"devdoc": {
				"kind": "dev",
				"methods": {},
				"version": 1
			},
			"evm": {
				"assembly": "    /* \"Exchange.sol\":130:7040  contract Exchange {... */\n  mstore(0x40, 0x80)\n    /* \"Exchange.sol\":433:580  constructor(address _erc20TokenAddress) {... */\n  callvalue\n  dup1\n  iszero\n  tag_1\n  jumpi\n  0x00\n  dup1\n  revert\ntag_1:\n  pop\n  mload(0x40)\n  sub(codesize, bytecodeSize)\n  dup1\n  bytecodeSize\n  dup4\n  codecopy\n  dup2\n  dup2\n  add\n  0x40\n  mstore\n  dup2\n  add\n  swap1\n  tag_2\n  swap2\n  swap1\n  tag_3\n  jump\t// in\ntag_2:\n    /* \"Exchange.sol\":503:521  _erc20TokenAddress */\n  dup1\n    /* \"Exchange.sol\":483:500  erc20TokenAddress */\n  0x05\n  0x00\n    /* \"Exchange.sol\":483:521  erc20TokenAddress = _erc20TokenAddress */\n  0x0100\n  exp\n  dup2\n  sload\n  dup2\n  0xffffffffffffffffffffffffffffffffffffffff\n  mul\n  not\n  and\n  swap1\n  dup4\n  0xffffffffffffffffffffffffffffffffffffffff\n  and\n  mul\n  or\n  swap1\n  sstore\n  pop\n    /* \"Exchange.sol\":557:558  0 */\n  0x00\n    /* \"Exchange.sol\":531:554  totalLiquidityPositions */\n  0x02\n    /* \"Exchange.sol\":531:558  totalLiquidityPositions = 0 */\n  dup2\n  swap1\n  sstore\n  pop\n    /* \"Exchange.sol\":572:573  0 */\n  0x00\n    /* \"Exchange.sol\":568:569  k */\n  0x04\n    /* \"Exchange.sol\":568:573  k = 0 */\n  dup2\n  swap1\n  sstore\n  pop\n    /* \"Exchange.sol\":433:580  constructor(address _erc20TokenAddress) {... */\n  pop\n    /* \"Exchange.sol\":130:7040  contract Exchange {... */\n  jump(tag_6)\n    /* \"#utility.yul\":88:205   */\ntag_8:\n    /* \"#utility.yul\":197:198   */\n  0x00\n    /* \"#utility.yul\":194:195   */\n  dup1\n    /* \"#utility.yul\":187:199   */\n  revert\n    /* \"#utility.yul\":334:460   */\ntag_10:\n    /* \"#utility.yul\":371:378   */\n  0x00\n    /* \"#utility.yul\":411:453   */\n  0xffffffffffffffffffffffffffffffffffffffff\n    /* \"#utility.yul\":404:409   */\n  dup3\n    /* \"#utility.yul\":400:454   */\n  and\n    /* \"#utility.yul\":389:454   */\n  swap1\n  pop\n    /* \"#utility.yul\":334:460   */\n  swap2\n  swap1\n  pop\n  jump\t// out\n    /* \"#utility.yul\":466:562   */\ntag_11:\n    /* \"#utility.yul\":503:510   */\n  0x00\n    /* \"#utility.yul\":532:556   */\n  tag_20\n    /* \"#utility.yul\":550:555   */\n  dup3\n    /* \"#utility.yul\":532:556   */\n  tag_10\n  jump\t// in\ntag_20:\n    /* \"#utility.yul\":521:556   */\n  swap1\n  pop\n    /* \"#utility.yul\":466:562   */\n  swap2\n  swap1\n  pop\n  jump\t// out\n    /* \"#utility.yul\":568:690   */\ntag_12:\n    /* \"#utility.yul\":641:665   */\n  tag_22\n    /* \"#utility.yul\":659:664   */\n  dup2\n    /* \"#utility.yul\":641:665   */\n  tag_11\n  jump\t// in\ntag_22:\n    /* \"#utility.yul\":634:639   */\n  dup2\n    /* \"#utility.yul\":631:666   */\n  eq\n    /* \"#utility.yul\":621:684   */\n  tag_23\n  jumpi\n    /* \"#utility.yul\":680:681   */\n  0x00\n    /* \"#utility.yul\":677:678   */\n  dup1\n    /* \"#utility.yul\":670:682   */\n  revert\n    /* \"#utility.yul\":621:684   */\ntag_23:\n    /* \"#utility.yul\":568:690   */\n  pop\n  jump\t// out\n    /* \"#utility.yul\":696:839   */\ntag_13:\n    /* \"#utility.yul\":753:758   */\n  0x00\n    /* \"#utility.yul\":784:790   */\n  dup2\n    /* \"#utility.yul\":778:791   */\n  mload\n    /* \"#utility.yul\":769:791   */\n  swap1\n  pop\n    /* \"#utility.yul\":800:833   */\n  tag_25\n    /* \"#utility.yul\":827:832   */\n  dup2\n    /* \"#utility.yul\":800:833   */\n  tag_12\n  jump\t// in\ntag_25:\n    /* \"#utility.yul\":696:839   */\n  swap3\n  swap2\n  pop\n  pop\n  jump\t// out\n    /* \"#utility.yul\":845:1196   */\ntag_3:\n    /* \"#utility.yul\":915:921   */\n  0x00\n    /* \"#utility.yul\":964:966   */\n  0x20\n    /* \"#utility.yul\":952:961   */\n  dup3\n    /* \"#utility.yul\":943:950   */\n  dup5\n    /* \"#utility.yul\":939:962   */\n  sub\n    /* \"#utility.yul\":935:967   */\n  slt\n    /* \"#utility.yul\":932:1051   */\n  iszero\n  tag_27\n  jumpi\n    /* \"#utility.yul\":970:1049   */\n  tag_28\n  tag_8\n  jump\t// in\ntag_28:\n    /* \"#utility.yul\":932:1051   */\ntag_27:\n    /* \"#utility.yul\":1090:1091   */\n  0x00\n    /* \"#utility.yul\":1115:1179   */\n  tag_29\n    /* \"#utility.yul\":1171:1178   */\n  dup5\n    /* \"#utility.yul\":1162:1168   */\n  dup3\n    /* \"#utility.yul\":1151:1160   */\n  dup6\n    /* \"#utility.yul\":1147:1169   */\n  add\n    /* \"#utility.yul\":1115:1179   */\n  tag_13\n  jump\t// in\ntag_29:\n    /* \"#utility.yul\":1105:1179   */\n  swap2\n  pop\n    /* \"#utility.yul\":1061:1189   */\n  pop\n    /* \"#utility.yul\":845:1196   */\n  swap3\n  swap2\n  pop\n  pop\n  jump\t// out\n    /* \"Exchange.sol\":130:7040  contract Exchange {... */\ntag_6:\n  dataSize(sub_0)\n  dup1\n  dataOffset(sub_0)\n  0x00\n  codecopy\n  0x00\n  return\nstop\n\nsub_0: assembly {\n        /* \"Exchange.sol\":130:7040  contract Exchange {... */\n      mstore(0x40, 0x80)\n      jumpi(tag_1, lt(calldatasize, 0x04))\n      shr(0xe0, calldataload(0x00))\n      dup1\n      0xba1f9272\n      gt\n      tag_17\n      jumpi\n      dup1\n      0xe0ba2000\n      gt\n      tag_18\n      jumpi\n      dup1\n      0xe0ba2000\n      eq\n      tag_13\n      jumpi\n      dup1\n      0xeb521a4c\n      eq\n      tag_14\n      jumpi\n      dup1\n      0xed7bf868\n      eq\n      tag_15\n      jumpi\n      dup1\n      0xf835cd3c\n      eq\n      tag_16\n      jumpi\n      jump(tag_2)\n    tag_18:\n      dup1\n      0xba1f9272\n      eq\n      tag_10\n      jumpi\n      dup1\n      0xc8ab8325\n      eq\n      tag_11\n      jumpi\n      dup1\n      0xc9691034\n      eq\n      tag_12\n      jumpi\n      jump(tag_2)\n    tag_17:\n      dup1\n      0x5d58ce36\n      gt\n      tag_19\n      jumpi\n      dup1\n      0x5d58ce36\n      eq\n      tag_6\n      jumpi\n      dup1\n      0x79ed3562\n      eq\n      tag_7\n      jumpi\n      dup1\n      0x903875f7\n      eq\n      tag_8\n      jumpi\n      dup1\n      0xb4f40c61\n      eq\n      tag_9\n      jumpi\n      jump(tag_2)\n    tag_19:\n      dup1\n      0x0a861f2a\n      eq\n      tag_3\n      jumpi\n      dup1\n      0x1cde6226\n      eq\n      tag_4\n      jumpi\n      dup1\n      0x240f3dea\n      eq\n      tag_5\n      jumpi\n      jump(tag_2)\n    tag_1:\n      jumpi(tag_2, calldatasize)\n        /* \"Exchange.sol\":1055:1064  msg.value */\n      callvalue\n        /* \"Exchange.sol\":1033:1051  contractEthBalance */\n      0x00\n      dup1\n        /* \"Exchange.sol\":1033:1064  contractEthBalance += msg.value */\n      dup3\n      dup3\n      sload\n      tag_22\n      swap2\n      swap1\n      tag_23\n      jump\t// in\n    tag_22:\n      swap3\n      pop\n      pop\n      dup2\n      swap1\n      sstore\n      stop\n        /* \"Exchange.sol\":130:7040  contract Exchange {... */\n    tag_2:\n      0x00\n      dup1\n      revert\n        /* \"Exchange.sol\":2920:4503  function withdrawLiquidity(uint256 _liquidityPositionsToBurn) public returns (uint, uint) ... */\n    tag_3:\n      callvalue\n      dup1\n      iszero\n      tag_24\n      jumpi\n      0x00\n      dup1\n      revert\n    tag_24:\n      pop\n      tag_25\n      0x04\n      dup1\n      calldatasize\n      sub\n      dup2\n      add\n      swap1\n      tag_26\n      swap2\n      swap1\n      tag_27\n      jump\t// in\n    tag_26:\n      tag_28\n      jump\t// in\n    tag_25:\n      mload(0x40)\n      tag_29\n      swap3\n      swap2\n      swap1\n      tag_30\n      jump\t// in\n    tag_29:\n      mload(0x40)\n      dup1\n      swap2\n      sub\n      swap1\n      return\n        /* \"Exchange.sol\":257:292  uint public totalLiquidityPositions */\n    tag_4:\n      callvalue\n      dup1\n      iszero\n      tag_31\n      jumpi\n      0x00\n      dup1\n      revert\n    tag_31:\n      pop\n      tag_32\n      tag_33\n      jump\t// in\n    tag_32:\n      mload(0x40)\n      tag_34\n      swap2\n      swap1\n      tag_35\n      jump\t// in\n    tag_34:\n      mload(0x40)\n      dup1\n      swap2\n      sub\n      swap1\n      return\n        /* \"Exchange.sol\":2353:2567  function estimateEthToProvide(uint _amountERC20Token) public view returns (uint)... */\n    tag_5:\n      callvalue\n      dup1\n      iszero\n      tag_36\n      jumpi\n      0x00\n      dup1\n      revert\n    tag_36:\n      pop\n      tag_37\n      0x04\n      dup1\n      calldatasize\n      sub\n      dup2\n      add\n      swap1\n      tag_38\n      swap2\n      swap1\n      tag_27\n      jump\t// in\n    tag_38:\n      tag_39\n      jump\t// in\n    tag_37:\n      mload(0x40)\n      tag_40\n      swap2\n      swap1\n      tag_35\n      jump\t// in\n    tag_40:\n      mload(0x40)\n      dup1\n      swap2\n      sub\n      swap1\n      return\n        /* \"Exchange.sol\":178:208  uint public contractEthBalance */\n    tag_6:\n      callvalue\n      dup1\n      iszero\n      tag_41\n      jumpi\n      0x00\n      dup1\n      revert\n    tag_41:\n      pop\n      tag_42\n      tag_43\n      jump\t// in\n    tag_42:\n      mload(0x40)\n      tag_44\n      swap2\n      swap1\n      tag_35\n      jump\t// in\n    tag_44:\n      mload(0x40)\n      dup1\n      swap2\n      sub\n      swap1\n      return\n        /* \"Exchange.sol\":6660:7038  function estimateSwapForERC20Token(uint _amountEth) public view returns (uint)... */\n    tag_7:\n      callvalue\n      dup1\n      iszero\n      tag_45\n      jumpi\n      0x00\n      dup1\n      revert\n    tag_45:\n      pop\n      tag_46\n      0x04\n      dup1\n      calldatasize\n      sub\n      dup2\n      add\n      swap1\n      tag_47\n      swap2\n      swap1\n      tag_27\n      jump\t// in\n    tag_47:\n      tag_48\n      jump\t// in\n    tag_46:\n      mload(0x40)\n      tag_49\n      swap2\n      swap1\n      tag_35\n      jump\t// in\n    tag_49:\n      mload(0x40)\n      dup1\n      swap2\n      sub\n      swap1\n      return\n        /* \"Exchange.sol\":5434:5805  function estimateSwapForEth(uint _amountERC20Token) public view returns (uint)... */\n    tag_8:\n      callvalue\n      dup1\n      iszero\n      tag_50\n      jumpi\n      0x00\n      dup1\n      revert\n    tag_50:\n      pop\n      tag_51\n      0x04\n      dup1\n      calldatasize\n      sub\n      dup2\n      add\n      swap1\n      tag_52\n      swap2\n      swap1\n      tag_27\n      jump\t// in\n    tag_52:\n      tag_53\n      jump\t// in\n    tag_51:\n      mload(0x40)\n      tag_54\n      swap2\n      swap1\n      tag_35\n      jump\t// in\n    tag_54:\n      mload(0x40)\n      dup1\n      swap2\n      sub\n      swap1\n      return\n        /* \"Exchange.sol\":356:369  uint public k */\n    tag_9:\n      callvalue\n      dup1\n      iszero\n      tag_55\n      jumpi\n      0x00\n      dup1\n      revert\n    tag_55:\n      pop\n      tag_56\n      tag_57\n      jump\t// in\n    tag_56:\n      mload(0x40)\n      tag_58\n      swap2\n      swap1\n      tag_35\n      jump\t// in\n    tag_58:\n      mload(0x40)\n      dup1\n      swap2\n      sub\n      swap1\n      return\n        /* \"Exchange.sol\":5811:6654  function swapForERC20Token(uint _amountEth) public returns (uint){... */\n    tag_10:\n      callvalue\n      dup1\n      iszero\n      tag_59\n      jumpi\n      0x00\n      dup1\n      revert\n    tag_59:\n      pop\n      tag_60\n      0x04\n      dup1\n      calldatasize\n      sub\n      dup2\n      add\n      swap1\n      tag_61\n      swap2\n      swap1\n      tag_27\n      jump\t// in\n    tag_61:\n      tag_62\n      jump\t// in\n    tag_60:\n      mload(0x40)\n      tag_63\n      swap2\n      swap1\n      tag_35\n      jump\t// in\n    tag_63:\n      mload(0x40)\n      dup1\n      swap2\n      sub\n      swap1\n      return\n        /* \"Exchange.sol\":4509:5428  function swapForEth(uint256 _amountERC20Token) public returns (uint) ... */\n    tag_11:\n      callvalue\n      dup1\n      iszero\n      tag_64\n      jumpi\n      0x00\n      dup1\n      revert\n    tag_64:\n      pop\n      tag_65\n      0x04\n      dup1\n      calldatasize\n      sub\n      dup2\n      add\n      swap1\n      tag_66\n      swap2\n      swap1\n      tag_27\n      jump\t// in\n    tag_66:\n      tag_67\n      jump\t// in\n    tag_65:\n      mload(0x40)\n      tag_68\n      swap2\n      swap1\n      tag_35\n      jump\t// in\n    tag_68:\n      mload(0x40)\n      dup1\n      swap2\n      sub\n      swap1\n      return\n        /* \"Exchange.sol\":214:251  uint public contractERC20TokenBalance */\n    tag_12:\n      callvalue\n      dup1\n      iszero\n      tag_69\n      jumpi\n      0x00\n      dup1\n      revert\n    tag_69:\n      pop\n      tag_70\n      tag_71\n      jump\t// in\n    tag_70:\n      mload(0x40)\n      tag_72\n      swap2\n      swap1\n      tag_35\n      jump\t// in\n    tag_72:\n      mload(0x40)\n      dup1\n      swap2\n      sub\n      swap1\n      return\n        /* \"Exchange.sol\":2790:2914  function getMyLiquidityPositions() public view returns (uint) ... */\n    tag_13:\n      callvalue\n      dup1\n      iszero\n      tag_73\n      jumpi\n      0x00\n      dup1\n      revert\n    tag_73:\n      pop\n      tag_74\n      tag_75\n      jump\t// in\n    tag_74:\n      mload(0x40)\n      tag_76\n      swap2\n      swap1\n      tag_35\n      jump\t// in\n    tag_76:\n      mload(0x40)\n      dup1\n      swap2\n      sub\n      swap1\n      return\n        /* \"Exchange.sol\":1094:2347  function provideLiquidity(uint _amountERC20Token) public payable returns (uint)... */\n    tag_14:\n      tag_77\n      0x04\n      dup1\n      calldatasize\n      sub\n      dup2\n      add\n      swap1\n      tag_78\n      swap2\n      swap1\n      tag_27\n      jump\t// in\n    tag_78:\n      tag_79\n      jump\t// in\n    tag_77:\n      mload(0x40)\n      tag_80\n      swap2\n      swap1\n      tag_35\n      jump\t// in\n    tag_80:\n      mload(0x40)\n      dup1\n      swap2\n      sub\n      swap1\n      return\n        /* \"Exchange.sol\":2573:2784  function estimateERC20TokenToProvide(uint _amountEth) public view returns (uint)... */\n    tag_15:\n      callvalue\n      dup1\n      iszero\n      tag_81\n      jumpi\n      0x00\n      dup1\n      revert\n    tag_81:\n      pop\n      tag_82\n      0x04\n      dup1\n      calldatasize\n      sub\n      dup2\n      add\n      swap1\n      tag_83\n      swap2\n      swap1\n      tag_27\n      jump\t// in\n    tag_83:\n      tag_84\n      jump\t// in\n    tag_82:\n      mload(0x40)\n      tag_85\n      swap2\n      swap1\n      tag_35\n      jump\t// in\n    tag_85:\n      mload(0x40)\n      dup1\n      swap2\n      sub\n      swap1\n      return\n        /* \"Exchange.sol\":375:407  address public erc20TokenAddress */\n    tag_16:\n      callvalue\n      dup1\n      iszero\n      tag_86\n      jumpi\n      0x00\n      dup1\n      revert\n    tag_86:\n      pop\n      tag_87\n      tag_88\n      jump\t// in\n    tag_87:\n      mload(0x40)\n      tag_89\n      swap2\n      swap1\n      tag_90\n      jump\t// in\n    tag_89:\n      mload(0x40)\n      dup1\n      swap2\n      sub\n      swap1\n      return\n        /* \"Exchange.sol\":2920:4503  function withdrawLiquidity(uint256 _liquidityPositionsToBurn) public returns (uint, uint) ... */\n    tag_28:\n        /* \"Exchange.sol\":2998:3002  uint */\n      0x00\n        /* \"Exchange.sol\":3004:3008  uint */\n      dup1\n        /* \"Exchange.sol\":3061:3062  0 */\n      0x00\n        /* \"Exchange.sol\":3033:3058  _liquidityPositionsToBurn */\n      dup4\n        /* \"Exchange.sol\":3033:3062  _liquidityPositionsToBurn > 0 */\n      gt\n        /* \"Exchange.sol\":3025:3131  require(_liquidityPositionsToBurn > 0, \"The number of liquidity positions to burn must be greater than 0\") */\n      tag_92\n      jumpi\n      mload(0x40)\n      0x08c379a000000000000000000000000000000000000000000000000000000000\n      dup2\n      mstore\n      0x04\n      add\n      tag_93\n      swap1\n      tag_94\n      jump\t// in\n    tag_93:\n      mload(0x40)\n      dup1\n      swap2\n      sub\n      swap1\n      revert\n    tag_92:\n        /* \"Exchange.sol\":3178:3203  getMyLiquidityPositions() */\n      tag_95\n        /* \"Exchange.sol\":3178:3201  getMyLiquidityPositions */\n      tag_75\n        /* \"Exchange.sol\":3178:3203  getMyLiquidityPositions() */\n      jump\t// in\n    tag_95:\n        /* \"Exchange.sol\":3149:3174  _liquidityPositionsToBurn */\n      dup4\n        /* \"Exchange.sol\":3149:3203  _liquidityPositionsToBurn <= getMyLiquidityPositions() */\n      gt\n      iszero\n        /* \"Exchange.sol\":3141:3267  require(_liquidityPositionsToBurn <= getMyLiquidityPositions(), \"Caller can't give up more liquidity positions than they own\") */\n      tag_96\n      jumpi\n      mload(0x40)\n      0x08c379a000000000000000000000000000000000000000000000000000000000\n      dup2\n      mstore\n      0x04\n      add\n      tag_97\n      swap1\n      tag_98\n      jump\t// in\n    tag_97:\n      mload(0x40)\n      dup1\n      swap2\n      sub\n      swap1\n      revert\n    tag_96:\n        /* \"Exchange.sol\":3313:3336  totalLiquidityPositions */\n      sload(0x02)\n        /* \"Exchange.sol\":3285:3310  _liquidityPositionsToBurn */\n      dup4\n        /* \"Exchange.sol\":3285:3336  _liquidityPositionsToBurn < totalLiquidityPositions */\n      lt\n        /* \"Exchange.sol\":3277:3397  require(_liquidityPositionsToBurn < totalLiquidityPositions, \"Caller can't give up all liquidity positions in the pool\") */\n      tag_99\n      jumpi\n      mload(0x40)\n      0x08c379a000000000000000000000000000000000000000000000000000000000\n      dup2\n      mstore\n      0x04\n      add\n      tag_100\n      swap1\n      tag_101\n      jump\t// in\n    tag_100:\n      mload(0x40)\n      dup1\n      swap2\n      sub\n      swap1\n      revert\n    tag_99:\n        /* \"Exchange.sol\":3408:3428  uint amountEthToSend */\n      0x00\n        /* \"Exchange.sol\":3480:3503  totalLiquidityPositions */\n      sload(0x02)\n        /* \"Exchange.sol\":3459:3477  contractEthBalance */\n      sload(0x00)\n        /* \"Exchange.sol\":3431:3456  _liquidityPositionsToBurn */\n      dup6\n        /* \"Exchange.sol\":3431:3477  _liquidityPositionsToBurn * contractEthBalance */\n      tag_102\n      swap2\n      swap1\n      tag_103\n      jump\t// in\n    tag_102:\n        /* \"Exchange.sol\":3431:3503  _liquidityPositionsToBurn * contractEthBalance / totalLiquidityPositions */\n      tag_104\n      swap2\n      swap1\n      tag_105\n      jump\t// in\n    tag_104:\n        /* \"Exchange.sol\":3408:3503  uint amountEthToSend = _liquidityPositionsToBurn * contractEthBalance / totalLiquidityPositions */\n      swap1\n      pop\n        /* \"Exchange.sol\":3513:3535  uint amountERC20ToSend */\n      0x00\n        /* \"Exchange.sol\":3594:3617  totalLiquidityPositions */\n      sload(0x02)\n        /* \"Exchange.sol\":3566:3591  contractERC20TokenBalance */\n      sload(0x01)\n        /* \"Exchange.sol\":3538:3563  _liquidityPositionsToBurn */\n      dup7\n        /* \"Exchange.sol\":3538:3591  _liquidityPositionsToBurn * contractERC20TokenBalance */\n      tag_106\n      swap2\n      swap1\n      tag_103\n      jump\t// in\n    tag_106:\n        /* \"Exchange.sol\":3538:3617  _liquidityPositionsToBurn * contractERC20TokenBalance / totalLiquidityPositions */\n      tag_107\n      swap2\n      swap1\n      tag_105\n      jump\t// in\n    tag_107:\n        /* \"Exchange.sol\":3513:3617  uint amountERC20ToSend = _liquidityPositionsToBurn * contractERC20TokenBalance / totalLiquidityPositions */\n      swap1\n      pop\n        /* \"Exchange.sol\":3655:3673  contractEthBalance */\n      sload(0x00)\n        /* \"Exchange.sol\":3636:3651  amountEthToSend */\n      dup3\n        /* \"Exchange.sol\":3636:3673  amountEthToSend <= contractEthBalance */\n      gt\n      iszero\n        /* \"Exchange.sol\":3628:3710  require(amountEthToSend <= contractEthBalance, \"Not enough Ether in the contract\") */\n      tag_108\n      jumpi\n      mload(0x40)\n      0x08c379a000000000000000000000000000000000000000000000000000000000\n      dup2\n      mstore\n      0x04\n      add\n      tag_109\n      swap1\n      tag_110\n      jump\t// in\n    tag_109:\n      mload(0x40)\n      dup1\n      swap2\n      sub\n      swap1\n      revert\n    tag_108:\n        /* \"Exchange.sol\":3749:3774  contractERC20TokenBalance */\n      sload(0x01)\n        /* \"Exchange.sol\":3728:3745  amountERC20ToSend */\n      dup2\n        /* \"Exchange.sol\":3728:3774  amountERC20ToSend <= contractERC20TokenBalance */\n      gt\n      iszero\n        /* \"Exchange.sol\":3720:3818  require(amountERC20ToSend <= contractERC20TokenBalance, \"Not enough ERC20 tokens in the contract\") */\n      tag_111\n      jumpi\n      mload(0x40)\n      0x08c379a000000000000000000000000000000000000000000000000000000000\n      dup2\n      mstore\n      0x04\n      add\n      tag_112\n      swap1\n      tag_113\n      jump\t// in\n    tag_112:\n      mload(0x40)\n      dup1\n      swap2\n      sub\n      swap1\n      revert\n    tag_111:\n        /* \"Exchange.sol\":3931:3956  _liquidityPositionsToBurn */\n      dup5\n        /* \"Exchange.sol\":3894:3915  mapLiquidityPositions */\n      0x03\n        /* \"Exchange.sol\":3894:3927  mapLiquidityPositions[msg.sender] */\n      0x00\n        /* \"Exchange.sol\":3916:3926  msg.sender */\n      caller\n        /* \"Exchange.sol\":3894:3927  mapLiquidityPositions[msg.sender] */\n      0xffffffffffffffffffffffffffffffffffffffff\n      and\n      0xffffffffffffffffffffffffffffffffffffffff\n      and\n      dup2\n      mstore\n      0x20\n      add\n      swap1\n      dup2\n      mstore\n      0x20\n      add\n      0x00\n      keccak256\n      0x00\n        /* \"Exchange.sol\":3894:3956  mapLiquidityPositions[msg.sender] -= _liquidityPositionsToBurn */\n      dup3\n      dup3\n      sload\n      tag_114\n      swap2\n      swap1\n      tag_115\n      jump\t// in\n    tag_114:\n      swap3\n      pop\n      pop\n      dup2\n      swap1\n      sstore\n      pop\n        /* \"Exchange.sol\":3993:4018  _liquidityPositionsToBurn */\n      dup5\n        /* \"Exchange.sol\":3966:3989  totalLiquidityPositions */\n      0x02\n      0x00\n        /* \"Exchange.sol\":3966:4018  totalLiquidityPositions -= _liquidityPositionsToBurn */\n      dup3\n      dup3\n      sload\n      tag_116\n      swap2\n      swap1\n      tag_115\n      jump\t// in\n    tag_116:\n      swap3\n      pop\n      pop\n      dup2\n      swap1\n      sstore\n      pop\n        /* \"Exchange.sol\":4051:4066  amountEthToSend */\n      dup2\n        /* \"Exchange.sol\":4029:4047  contractEthBalance */\n      0x00\n      dup1\n        /* \"Exchange.sol\":4029:4066  contractEthBalance -= amountEthToSend */\n      dup3\n      dup3\n      sload\n      tag_117\n      swap2\n      swap1\n      tag_115\n      jump\t// in\n    tag_117:\n      swap3\n      pop\n      pop\n      dup2\n      swap1\n      sstore\n      pop\n        /* \"Exchange.sol\":4105:4122  amountERC20ToSend */\n      dup1\n        /* \"Exchange.sol\":4076:4101  contractERC20TokenBalance */\n      0x01\n      0x00\n        /* \"Exchange.sol\":4076:4122  contractERC20TokenBalance -= amountERC20ToSend */\n      dup3\n      dup3\n      sload\n      tag_118\n      swap2\n      swap1\n      tag_115\n      jump\t// in\n    tag_118:\n      swap3\n      pop\n      pop\n      dup2\n      swap1\n      sstore\n      pop\n        /* \"Exchange.sol\":4157:4182  contractERC20TokenBalance */\n      sload(0x01)\n        /* \"Exchange.sol\":4136:4154  contractEthBalance */\n      sload(0x00)\n        /* \"Exchange.sol\":4136:4182  contractEthBalance * contractERC20TokenBalance */\n      tag_119\n      swap2\n      swap1\n      tag_103\n      jump\t// in\n    tag_119:\n        /* \"Exchange.sol\":4132:4133  k */\n      0x04\n        /* \"Exchange.sol\":4132:4182  k = contractEthBalance * contractERC20TokenBalance */\n      dup2\n      swap1\n      sstore\n      pop\n        /* \"Exchange.sol\":4201:4211  msg.sender */\n      caller\n        /* \"Exchange.sol\":4193:4221  payable(msg.sender).transfer */\n      0xffffffffffffffffffffffffffffffffffffffff\n      and\n        /* \"Exchange.sol\":4193:4238  payable(msg.sender).transfer(amountEthToSend) */\n      0x08fc\n        /* \"Exchange.sol\":4222:4237  amountEthToSend */\n      dup4\n        /* \"Exchange.sol\":4193:4238  payable(msg.sender).transfer(amountEthToSend) */\n      swap1\n      dup2\n      iszero\n      mul\n      swap1\n      mload(0x40)\n      0x00\n      mload(0x40)\n      dup1\n      dup4\n      sub\n      dup2\n      dup6\n      dup9\n      dup9\n      call\n      swap4\n      pop\n      pop\n      pop\n      pop\n      iszero\n      dup1\n      iszero\n      tag_121\n      jumpi\n      returndatasize\n      0x00\n      dup1\n      returndatacopy\n      revert(0x00, returndatasize)\n    tag_121:\n      pop\n        /* \"Exchange.sol\":4263:4280  erc20TokenAddress */\n      0x05\n      0x00\n      swap1\n      sload\n      swap1\n      0x0100\n      exp\n      swap1\n      div\n      0xffffffffffffffffffffffffffffffffffffffff\n      and\n        /* \"Exchange.sol\":4256:4290  IERC20(erc20TokenAddress).transfer */\n      0xffffffffffffffffffffffffffffffffffffffff\n      and\n      0xa9059cbb\n        /* \"Exchange.sol\":4291:4301  msg.sender */\n      caller\n        /* \"Exchange.sol\":4303:4320  amountERC20ToSend */\n      dup4\n        /* \"Exchange.sol\":4256:4321  IERC20(erc20TokenAddress).transfer(msg.sender, amountERC20ToSend) */\n      mload(0x40)\n      dup4\n      0xffffffff\n      and\n      0xe0\n      shl\n      dup2\n      mstore\n      0x04\n      add\n      tag_122\n      swap3\n      swap2\n      swap1\n      tag_123\n      jump\t// in\n    tag_122:\n      0x20\n      mload(0x40)\n      dup1\n      dup4\n      sub\n      dup2\n      0x00\n      dup8\n      gas\n      call\n      iszero\n      dup1\n      iszero\n      tag_125\n      jumpi\n      returndatasize\n      0x00\n      dup1\n      returndatacopy\n      revert(0x00, returndatasize)\n    tag_125:\n      pop\n      pop\n      pop\n      pop\n      mload(0x40)\n      returndatasize\n      not(0x1f)\n      0x1f\n      dup3\n      add\n      and\n      dup3\n      add\n      dup1\n      0x40\n      mstore\n      pop\n      dup2\n      add\n      swap1\n      tag_126\n      swap2\n      swap1\n      tag_127\n      jump\t// in\n    tag_126:\n        /* \"Exchange.sol\":4248:4347  require(IERC20(erc20TokenAddress).transfer(msg.sender, amountERC20ToSend), \"ERC20 transfer failed\") */\n      tag_128\n      jumpi\n      mload(0x40)\n      0x08c379a000000000000000000000000000000000000000000000000000000000\n      dup2\n      mstore\n      0x04\n      add\n      tag_129\n      swap1\n      tag_130\n      jump\t// in\n    tag_129:\n      mload(0x40)\n      dup1\n      swap2\n      sub\n      swap1\n      revert\n    tag_128:\n        /* \"Exchange.sol\":4363:4443  LiquidityWithdrew(amountERC20ToSend, amountEthToSend, _liquidityPositionsToBurn) */\n      0xb14f451e613015c13a17c78777f1d87fcb448d7330d67299a09b8f2db38aab10\n        /* \"Exchange.sol\":4381:4398  amountERC20ToSend */\n      dup2\n        /* \"Exchange.sol\":4400:4415  amountEthToSend */\n      dup4\n        /* \"Exchange.sol\":4417:4442  _liquidityPositionsToBurn */\n      dup8\n        /* \"Exchange.sol\":4363:4443  LiquidityWithdrew(amountERC20ToSend, amountEthToSend, _liquidityPositionsToBurn) */\n      mload(0x40)\n      tag_131\n      swap4\n      swap3\n      swap2\n      swap1\n      tag_132\n      jump\t// in\n    tag_131:\n      mload(0x40)\n      dup1\n      swap2\n      sub\n      swap1\n      log1\n        /* \"Exchange.sol\":4461:4478  amountERC20ToSend */\n      dup1\n        /* \"Exchange.sol\":4480:4495  amountEthToSend */\n      dup3\n        /* \"Exchange.sol\":4453:4496  return (amountERC20ToSend, amountEthToSend) */\n      swap4\n      pop\n      swap4\n      pop\n      pop\n      pop\n        /* \"Exchange.sol\":2920:4503  function withdrawLiquidity(uint256 _liquidityPositionsToBurn) public returns (uint, uint) ... */\n      swap2\n      pop\n      swap2\n      jump\t// out\n        /* \"Exchange.sol\":257:292  uint public totalLiquidityPositions */\n    tag_33:\n      sload(0x02)\n      dup2\n      jump\t// out\n        /* \"Exchange.sol\":2353:2567  function estimateEthToProvide(uint _amountERC20Token) public view returns (uint)... */\n    tag_39:\n        /* \"Exchange.sol\":2428:2432  uint */\n      0x00\n        /* \"Exchange.sol\":2448:2465  uint256 amountEth */\n      dup1\n        /* \"Exchange.sol\":2509:2534  contractERC20TokenBalance */\n      sload(0x01)\n        /* \"Exchange.sol\":2489:2506  _amountERC20Token */\n      dup4\n        /* \"Exchange.sol\":2468:2486  contractEthBalance */\n      sload(0x00)\n        /* \"Exchange.sol\":2468:2506  contractEthBalance * _amountERC20Token */\n      tag_134\n      swap2\n      swap1\n      tag_103\n      jump\t// in\n    tag_134:\n        /* \"Exchange.sol\":2468:2534  contractEthBalance * _amountERC20Token / contractERC20TokenBalance */\n      tag_135\n      swap2\n      swap1\n      tag_105\n      jump\t// in\n    tag_135:\n        /* \"Exchange.sol\":2448:2534  uint256 amountEth = contractEthBalance * _amountERC20Token / contractERC20TokenBalance */\n      swap1\n      pop\n        /* \"Exchange.sol\":2551:2560  amountEth */\n      dup1\n        /* \"Exchange.sol\":2544:2560  return amountEth */\n      swap2\n      pop\n      pop\n        /* \"Exchange.sol\":2353:2567  function estimateEthToProvide(uint _amountERC20Token) public view returns (uint)... */\n      swap2\n      swap1\n      pop\n      jump\t// out\n        /* \"Exchange.sol\":178:208  uint public contractEthBalance */\n    tag_43:\n      sload(0x00)\n      dup2\n      jump\t// out\n        /* \"Exchange.sol\":6660:7038  function estimateSwapForERC20Token(uint _amountEth) public view returns (uint)... */\n    tag_48:\n        /* \"Exchange.sol\":6733:6737  uint */\n      0x00\n        /* \"Exchange.sol\":6753:6785  uint contractEthBalanceAfterSwap */\n      dup1\n        /* \"Exchange.sol\":6809:6819  _amountEth */\n      dup3\n        /* \"Exchange.sol\":6788:6806  contractEthBalance */\n      sload(0x00)\n        /* \"Exchange.sol\":6788:6819  contractEthBalance + _amountEth */\n      tag_137\n      swap2\n      swap1\n      tag_23\n      jump\t// in\n    tag_137:\n        /* \"Exchange.sol\":6753:6819  uint contractEthBalanceAfterSwap = contractEthBalance + _amountEth */\n      swap1\n      pop\n        /* \"Exchange.sol\":6829:6868  uint contractERC20TokenBalanceAfterSwap */\n      0x00\n        /* \"Exchange.sol\":6875:6902  contractEthBalanceAfterSwap */\n      dup2\n        /* \"Exchange.sol\":6871:6872  k */\n      sload(0x04)\n        /* \"Exchange.sol\":6871:6902  k / contractEthBalanceAfterSwap */\n      tag_138\n      swap2\n      swap1\n      tag_105\n      jump\t// in\n    tag_138:\n        /* \"Exchange.sol\":6829:6902  uint contractERC20TokenBalanceAfterSwap = k / contractEthBalanceAfterSwap */\n      swap1\n      pop\n        /* \"Exchange.sol\":6912:6933  uint ERC20TokenToSend */\n      0x00\n        /* \"Exchange.sol\":6964:6998  contractERC20TokenBalanceAfterSwap */\n      dup2\n        /* \"Exchange.sol\":6936:6961  contractERC20TokenBalance */\n      sload(0x01)\n        /* \"Exchange.sol\":6936:6998  contractERC20TokenBalance - contractERC20TokenBalanceAfterSwap */\n      tag_139\n      swap2\n      swap1\n      tag_115\n      jump\t// in\n    tag_139:\n        /* \"Exchange.sol\":6912:6998  uint ERC20TokenToSend = contractERC20TokenBalance - contractERC20TokenBalanceAfterSwap */\n      swap1\n      pop\n        /* \"Exchange.sol\":7015:7031  ERC20TokenToSend */\n      dup1\n        /* \"Exchange.sol\":7008:7031  return ERC20TokenToSend */\n      swap4\n      pop\n      pop\n      pop\n      pop\n        /* \"Exchange.sol\":6660:7038  function estimateSwapForERC20Token(uint _amountEth) public view returns (uint)... */\n      swap2\n      swap1\n      pop\n      jump\t// out\n        /* \"Exchange.sol\":5434:5805  function estimateSwapForEth(uint _amountERC20Token) public view returns (uint)... */\n    tag_53:\n        /* \"Exchange.sol\":5507:5511  uint */\n      0x00\n        /* \"Exchange.sol\":5527:5566  uint contractERC20TokenBalanceAfterSwap */\n      dup1\n        /* \"Exchange.sol\":5597:5614  _amountERC20Token */\n      dup3\n        /* \"Exchange.sol\":5569:5594  contractERC20TokenBalance */\n      sload(0x01)\n        /* \"Exchange.sol\":5569:5614  contractERC20TokenBalance + _amountERC20Token */\n      tag_141\n      swap2\n      swap1\n      tag_23\n      jump\t// in\n    tag_141:\n        /* \"Exchange.sol\":5527:5614  uint contractERC20TokenBalanceAfterSwap = contractERC20TokenBalance + _amountERC20Token */\n      swap1\n      pop\n        /* \"Exchange.sol\":5624:5656  uint contractEthBalanceAfterSwap */\n      0x00\n        /* \"Exchange.sol\":5663:5697  contractERC20TokenBalanceAfterSwap */\n      dup2\n        /* \"Exchange.sol\":5659:5660  k */\n      sload(0x04)\n        /* \"Exchange.sol\":5659:5697  k / contractERC20TokenBalanceAfterSwap */\n      tag_142\n      swap2\n      swap1\n      tag_105\n      jump\t// in\n    tag_142:\n        /* \"Exchange.sol\":5624:5697  uint contractEthBalanceAfterSwap = k / contractERC20TokenBalanceAfterSwap */\n      swap1\n      pop\n        /* \"Exchange.sol\":5707:5721  uint ethToSend */\n      0x00\n        /* \"Exchange.sol\":5745:5772  contractEthBalanceAfterSwap */\n      dup2\n        /* \"Exchange.sol\":5724:5742  contractEthBalance */\n      sload(0x00)\n        /* \"Exchange.sol\":5724:5772  contractEthBalance - contractEthBalanceAfterSwap */\n      tag_143\n      swap2\n      swap1\n      tag_115\n      jump\t// in\n    tag_143:\n        /* \"Exchange.sol\":5707:5772  uint ethToSend = contractEthBalance - contractEthBalanceAfterSwap */\n      swap1\n      pop\n        /* \"Exchange.sol\":5789:5798  ethToSend */\n      dup1\n        /* \"Exchange.sol\":5782:5798  return ethToSend */\n      swap4\n      pop\n      pop\n      pop\n      pop\n        /* \"Exchange.sol\":5434:5805  function estimateSwapForEth(uint _amountERC20Token) public view returns (uint)... */\n      swap2\n      swap1\n      pop\n      jump\t// out\n        /* \"Exchange.sol\":356:369  uint public k */\n    tag_57:\n      sload(0x04)\n      dup2\n      jump\t// out\n        /* \"Exchange.sol\":5811:6654  function swapForERC20Token(uint _amountEth) public returns (uint){... */\n    tag_62:\n        /* \"Exchange.sol\":5871:5875  uint */\n      0x00\n        /* \"Exchange.sol\":5907:5908  0 */\n      dup1\n        /* \"Exchange.sol\":5894:5904  _amountEth */\n      dup3\n        /* \"Exchange.sol\":5894:5908  _amountEth > 0 */\n      gt\n        /* \"Exchange.sol\":5886:5960  require(_amountEth > 0, \"The amount of Eth tokens must be greater than 0\") */\n      tag_145\n      jumpi\n      mload(0x40)\n      0x08c379a000000000000000000000000000000000000000000000000000000000\n      dup2\n      mstore\n      0x04\n      add\n      tag_146\n      swap1\n      tag_147\n      jump\t// in\n    tag_146:\n      mload(0x40)\n      dup1\n      swap2\n      sub\n      swap1\n      revert\n    tag_145:\n        /* \"Exchange.sol\":5992:6013  address(this).balance */\n      selfbalance\n        /* \"Exchange.sol\":5978:5988  _amountEth */\n      dup3\n        /* \"Exchange.sol\":5978:6013  _amountEth <= address(this).balance */\n      gt\n      iszero\n        /* \"Exchange.sol\":5970:6048  require(_amountEth <= address(this).balance, \"Caller doesn't have enough Eth\") */\n      tag_148\n      jumpi\n      mload(0x40)\n      0x08c379a000000000000000000000000000000000000000000000000000000000\n      dup2\n      mstore\n      0x04\n      add\n      tag_149\n      swap1\n      tag_150\n      jump\t// in\n    tag_149:\n      mload(0x40)\n      dup1\n      swap2\n      sub\n      swap1\n      revert\n    tag_148:\n        /* \"Exchange.sol\":6059:6080  uint ERC20TokenToSend */\n      0x00\n        /* \"Exchange.sol\":6137:6147  _amountEth */\n      dup3\n        /* \"Exchange.sol\":6116:6134  contractEthBalance */\n      sload(0x00)\n        /* \"Exchange.sol\":6116:6147  contractEthBalance + _amountEth */\n      tag_151\n      swap2\n      swap1\n      tag_23\n      jump\t// in\n    tag_151:\n        /* \"Exchange.sol\":6112:6113  k */\n      sload(0x04)\n        /* \"Exchange.sol\":6112:6148  k /(contractEthBalance + _amountEth) */\n      tag_152\n      swap2\n      swap1\n      tag_105\n      jump\t// in\n    tag_152:\n        /* \"Exchange.sol\":6083:6108  contractERC20TokenBalance */\n      sload(0x01)\n        /* \"Exchange.sol\":6083:6149  contractERC20TokenBalance - (k /(contractEthBalance + _amountEth)) */\n      tag_153\n      swap2\n      swap1\n      tag_115\n      jump\t// in\n    tag_153:\n        /* \"Exchange.sol\":6059:6149  uint ERC20TokenToSend = contractERC20TokenBalance - (k /(contractEthBalance + _amountEth)) */\n      swap1\n      pop\n        /* \"Exchange.sol\":6196:6212  ERC20TokenToSend */\n      dup1\n        /* \"Exchange.sol\":6167:6192  contractERC20TokenBalance */\n      sload(0x01)\n        /* \"Exchange.sol\":6167:6212  contractERC20TokenBalance >= ERC20TokenToSend */\n      lt\n      iszero\n        /* \"Exchange.sol\":6159:6256  require(contractERC20TokenBalance >= ERC20TokenToSend, \"Not enough ERC20 tokens in the contract\") */\n      tag_154\n      jumpi\n      mload(0x40)\n      0x08c379a000000000000000000000000000000000000000000000000000000000\n      dup2\n      mstore\n      0x04\n      add\n      tag_155\n      swap1\n      tag_113\n      jump\t// in\n    tag_155:\n      mload(0x40)\n      dup1\n      swap2\n      sub\n      swap1\n      revert\n    tag_154:\n        /* \"Exchange.sol\":6289:6299  _amountEth */\n      dup3\n        /* \"Exchange.sol\":6267:6285  contractEthBalance */\n      0x00\n      dup1\n        /* \"Exchange.sol\":6267:6299  contractEthBalance += _amountEth */\n      dup3\n      dup3\n      sload\n      tag_156\n      swap2\n      swap1\n      tag_23\n      jump\t// in\n    tag_156:\n      swap3\n      pop\n      pop\n      dup2\n      swap1\n      sstore\n      pop\n        /* \"Exchange.sol\":6338:6354  ERC20TokenToSend */\n      dup1\n        /* \"Exchange.sol\":6309:6334  contractERC20TokenBalance */\n      0x01\n      0x00\n        /* \"Exchange.sol\":6309:6354  contractERC20TokenBalance -= ERC20TokenToSend */\n      dup3\n      dup3\n      sload\n      tag_157\n      swap2\n      swap1\n      tag_115\n      jump\t// in\n    tag_157:\n      swap3\n      pop\n      pop\n      dup2\n      swap1\n      sstore\n      pop\n        /* \"Exchange.sol\":6389:6414  contractERC20TokenBalance */\n      sload(0x01)\n        /* \"Exchange.sol\":6368:6386  contractEthBalance */\n      sload(0x00)\n        /* \"Exchange.sol\":6368:6414  contractEthBalance * contractERC20TokenBalance */\n      tag_158\n      swap2\n      swap1\n      tag_103\n      jump\t// in\n    tag_158:\n        /* \"Exchange.sol\":6364:6365  k */\n      0x04\n        /* \"Exchange.sol\":6364:6414  k = contractEthBalance * contractERC20TokenBalance */\n      dup2\n      swap1\n      sstore\n      pop\n        /* \"Exchange.sol\":6441:6445  this */\n      address\n        /* \"Exchange.sol\":6425:6456  payable(address(this)).transfer */\n      0xffffffffffffffffffffffffffffffffffffffff\n      and\n        /* \"Exchange.sol\":6425:6468  payable(address(this)).transfer(_amountEth) */\n      0x08fc\n        /* \"Exchange.sol\":6457:6467  _amountEth */\n      dup5\n        /* \"Exchange.sol\":6425:6468  payable(address(this)).transfer(_amountEth) */\n      swap1\n      dup2\n      iszero\n      mul\n      swap1\n      mload(0x40)\n      0x00\n      mload(0x40)\n      dup1\n      dup4\n      sub\n      dup2\n      dup6\n      dup9\n      dup9\n      call\n      swap4\n      pop\n      pop\n      pop\n      pop\n      iszero\n      dup1\n      iszero\n      tag_160\n      jumpi\n      returndatasize\n      0x00\n      dup1\n      returndatacopy\n      revert(0x00, returndatasize)\n    tag_160:\n      pop\n        /* \"Exchange.sol\":6493:6510  erc20TokenAddress */\n      0x05\n      0x00\n      swap1\n      sload\n      swap1\n      0x0100\n      exp\n      swap1\n      div\n      0xffffffffffffffffffffffffffffffffffffffff\n      and\n        /* \"Exchange.sol\":6486:6520  IERC20(erc20TokenAddress).transfer */\n      0xffffffffffffffffffffffffffffffffffffffff\n      and\n      0xa9059cbb\n        /* \"Exchange.sol\":6521:6531  msg.sender */\n      caller\n        /* \"Exchange.sol\":6533:6549  ERC20TokenToSend */\n      dup4\n        /* \"Exchange.sol\":6486:6550  IERC20(erc20TokenAddress).transfer(msg.sender, ERC20TokenToSend) */\n      mload(0x40)\n      dup4\n      0xffffffff\n      and\n      0xe0\n      shl\n      dup2\n      mstore\n      0x04\n      add\n      tag_161\n      swap3\n      swap2\n      swap1\n      tag_123\n      jump\t// in\n    tag_161:\n      0x20\n      mload(0x40)\n      dup1\n      dup4\n      sub\n      dup2\n      0x00\n      dup8\n      gas\n      call\n      iszero\n      dup1\n      iszero\n      tag_163\n      jumpi\n      returndatasize\n      0x00\n      dup1\n      returndatacopy\n      revert(0x00, returndatasize)\n    tag_163:\n      pop\n      pop\n      pop\n      pop\n      mload(0x40)\n      returndatasize\n      not(0x1f)\n      0x1f\n      dup3\n      add\n      and\n      dup3\n      add\n      dup1\n      0x40\n      mstore\n      pop\n      dup2\n      add\n      swap1\n      tag_164\n      swap2\n      swap1\n      tag_127\n      jump\t// in\n    tag_164:\n        /* \"Exchange.sol\":6478:6551  require(IERC20(erc20TokenAddress).transfer(msg.sender, ERC20TokenToSend)) */\n      tag_165\n      jumpi\n      0x00\n      dup1\n      revert\n    tag_165:\n        /* \"Exchange.sol\":6567:6614  SwapForERC20Token(ERC20TokenToSend, _amountEth) */\n      0xcdfc57b3d0cdc24b23cea1f480aabea287321f5bee23ad76c2b52fa7982f5ea5\n        /* \"Exchange.sol\":6585:6601  ERC20TokenToSend */\n      dup2\n        /* \"Exchange.sol\":6603:6613  _amountEth */\n      dup5\n        /* \"Exchange.sol\":6567:6614  SwapForERC20Token(ERC20TokenToSend, _amountEth) */\n      mload(0x40)\n      tag_166\n      swap3\n      swap2\n      swap1\n      tag_30\n      jump\t// in\n    tag_166:\n      mload(0x40)\n      dup1\n      swap2\n      sub\n      swap1\n      log1\n        /* \"Exchange.sol\":6631:6647  ERC20TokenToSend */\n      dup1\n        /* \"Exchange.sol\":6624:6647  return ERC20TokenToSend */\n      swap2\n      pop\n      pop\n        /* \"Exchange.sol\":5811:6654  function swapForERC20Token(uint _amountEth) public returns (uint){... */\n      swap2\n      swap1\n      pop\n      jump\t// out\n        /* \"Exchange.sol\":4509:5428  function swapForEth(uint256 _amountERC20Token) public returns (uint) ... */\n    tag_67:\n        /* \"Exchange.sol\":4572:4576  uint */\n      0x00\n        /* \"Exchange.sol\":4621:4622  0 */\n      dup1\n        /* \"Exchange.sol\":4601:4618  _amountERC20Token */\n      dup3\n        /* \"Exchange.sol\":4601:4622  _amountERC20Token > 0 */\n      gt\n        /* \"Exchange.sol\":4593:4684  require(_amountERC20Token > 0, \"The amount of ERC20 tokens to swap must be greater than 0\") */\n      tag_168\n      jumpi\n      mload(0x40)\n      0x08c379a000000000000000000000000000000000000000000000000000000000\n      dup2\n      mstore\n      0x04\n      add\n      tag_169\n      swap1\n      tag_170\n      jump\t// in\n    tag_169:\n      mload(0x40)\n      dup1\n      swap2\n      sub\n      swap1\n      revert\n    tag_168:\n        /* \"Exchange.sol\":4730:4747  erc20TokenAddress */\n      0x05\n      0x00\n      swap1\n      sload\n      swap1\n      0x0100\n      exp\n      swap1\n      div\n      0xffffffffffffffffffffffffffffffffffffffff\n      and\n        /* \"Exchange.sol\":4723:4758  IERC20(erc20TokenAddress).balanceOf */\n      0xffffffffffffffffffffffffffffffffffffffff\n      and\n      0x70a08231\n        /* \"Exchange.sol\":4759:4769  msg.sender */\n      caller\n        /* \"Exchange.sol\":4723:4770  IERC20(erc20TokenAddress).balanceOf(msg.sender) */\n      mload(0x40)\n      dup3\n      0xffffffff\n      and\n      0xe0\n      shl\n      dup2\n      mstore\n      0x04\n      add\n      tag_171\n      swap2\n      swap1\n      tag_90\n      jump\t// in\n    tag_171:\n      0x20\n      mload(0x40)\n      dup1\n      dup4\n      sub\n      dup2\n      dup7\n      gas\n      staticcall\n      iszero\n      dup1\n      iszero\n      tag_173\n      jumpi\n      returndatasize\n      0x00\n      dup1\n      returndatacopy\n      revert(0x00, returndatasize)\n    tag_173:\n      pop\n      pop\n      pop\n      pop\n      mload(0x40)\n      returndatasize\n      not(0x1f)\n      0x1f\n      dup3\n      add\n      and\n      dup3\n      add\n      dup1\n      0x40\n      mstore\n      pop\n      dup2\n      add\n      swap1\n      tag_174\n      swap2\n      swap1\n      tag_175\n      jump\t// in\n    tag_174:\n        /* \"Exchange.sol\":4702:4719  _amountERC20Token */\n      dup3\n        /* \"Exchange.sol\":4702:4770  _amountERC20Token <= IERC20(erc20TokenAddress).balanceOf(msg.sender) */\n      gt\n      iszero\n        /* \"Exchange.sol\":4694:4814  require(_amountERC20Token <= IERC20(erc20TokenAddress).balanceOf(msg.sender), \"Caller doesn't have enough ERC20 tokens\") */\n      tag_176\n      jumpi\n      mload(0x40)\n      0x08c379a000000000000000000000000000000000000000000000000000000000\n      dup2\n      mstore\n      0x04\n      add\n      tag_177\n      swap1\n      tag_178\n      jump\t// in\n    tag_177:\n      mload(0x40)\n      dup1\n      swap2\n      sub\n      swap1\n      revert\n    tag_176:\n        /* \"Exchange.sol\":4825:4839  uint ethToSend */\n      0x00\n        /* \"Exchange.sol\":4897:4914  _amountERC20Token */\n      dup3\n        /* \"Exchange.sol\":4869:4894  contractERC20TokenBalance */\n      sload(0x01)\n        /* \"Exchange.sol\":4869:4914  contractERC20TokenBalance + _amountERC20Token */\n      tag_179\n      swap2\n      swap1\n      tag_23\n      jump\t// in\n    tag_179:\n        /* \"Exchange.sol\":4864:4865  k */\n      sload(0x04)\n        /* \"Exchange.sol\":4864:4915  k / (contractERC20TokenBalance + _amountERC20Token) */\n      tag_180\n      swap2\n      swap1\n      tag_105\n      jump\t// in\n    tag_180:\n        /* \"Exchange.sol\":4842:4860  contractEthBalance */\n      sload(0x00)\n        /* \"Exchange.sol\":4842:4916  contractEthBalance - (k / (contractERC20TokenBalance + _amountERC20Token)) */\n      tag_181\n      swap2\n      swap1\n      tag_115\n      jump\t// in\n    tag_181:\n        /* \"Exchange.sol\":4825:4916  uint ethToSend = contractEthBalance - (k / (contractERC20TokenBalance + _amountERC20Token)) */\n      swap1\n      pop\n        /* \"Exchange.sol\":4957:4966  ethToSend */\n      dup1\n        /* \"Exchange.sol\":4935:4953  contractEthBalance */\n      sload(0x00)\n        /* \"Exchange.sol\":4935:4966  contractEthBalance >= ethToSend */\n      lt\n      iszero\n        /* \"Exchange.sol\":4927:5003  require(contractEthBalance >= ethToSend, \"Not enough ether in the contract\") */\n      tag_182\n      jumpi\n      mload(0x40)\n      0x08c379a000000000000000000000000000000000000000000000000000000000\n      dup2\n      mstore\n      0x04\n      add\n      tag_183\n      swap1\n      tag_184\n      jump\t// in\n    tag_183:\n      mload(0x40)\n      dup1\n      swap2\n      sub\n      swap1\n      revert\n    tag_182:\n        /* \"Exchange.sol\":5036:5045  ethToSend */\n      dup1\n        /* \"Exchange.sol\":5014:5032  contractEthBalance */\n      0x00\n      dup1\n        /* \"Exchange.sol\":5014:5045  contractEthBalance -= ethToSend */\n      dup3\n      dup3\n      sload\n      tag_185\n      swap2\n      swap1\n      tag_115\n      jump\t// in\n    tag_185:\n      swap3\n      pop\n      pop\n      dup2\n      swap1\n      sstore\n      pop\n        /* \"Exchange.sol\":5084:5101  _amountERC20Token */\n      dup3\n        /* \"Exchange.sol\":5055:5080  contractERC20TokenBalance */\n      0x01\n      0x00\n        /* \"Exchange.sol\":5055:5101  contractERC20TokenBalance += _amountERC20Token */\n      dup3\n      dup3\n      sload\n      tag_186\n      swap2\n      swap1\n      tag_23\n      jump\t// in\n    tag_186:\n      swap3\n      pop\n      pop\n      dup2\n      swap1\n      sstore\n      pop\n        /* \"Exchange.sol\":5136:5161  contractERC20TokenBalance */\n      sload(0x01)\n        /* \"Exchange.sol\":5115:5133  contractEthBalance */\n      sload(0x00)\n        /* \"Exchange.sol\":5115:5161  contractEthBalance * contractERC20TokenBalance */\n      tag_187\n      swap2\n      swap1\n      tag_103\n      jump\t// in\n    tag_187:\n        /* \"Exchange.sol\":5111:5112  k */\n      0x04\n        /* \"Exchange.sol\":5111:5161  k = contractEthBalance * contractERC20TokenBalance */\n      dup2\n      swap1\n      sstore\n      pop\n        /* \"Exchange.sol\":5187:5204  erc20TokenAddress */\n      0x05\n      0x00\n      swap1\n      sload\n      swap1\n      0x0100\n      exp\n      swap1\n      div\n      0xffffffffffffffffffffffffffffffffffffffff\n      and\n        /* \"Exchange.sol\":5180:5218  IERC20(erc20TokenAddress).transferFrom */\n      0xffffffffffffffffffffffffffffffffffffffff\n      and\n      0x23b872dd\n        /* \"Exchange.sol\":5219:5229  msg.sender */\n      caller\n        /* \"Exchange.sol\":5239:5243  this */\n      address\n        /* \"Exchange.sol\":5246:5263  _amountERC20Token */\n      dup7\n        /* \"Exchange.sol\":5180:5264  IERC20(erc20TokenAddress).transferFrom(msg.sender, address(this), _amountERC20Token) */\n      mload(0x40)\n      dup5\n      0xffffffff\n      and\n      0xe0\n      shl\n      dup2\n      mstore\n      0x04\n      add\n      tag_188\n      swap4\n      swap3\n      swap2\n      swap1\n      tag_189\n      jump\t// in\n    tag_188:\n      0x20\n      mload(0x40)\n      dup1\n      dup4\n      sub\n      dup2\n      0x00\n      dup8\n      gas\n      call\n      iszero\n      dup1\n      iszero\n      tag_191\n      jumpi\n      returndatasize\n      0x00\n      dup1\n      returndatacopy\n      revert(0x00, returndatasize)\n    tag_191:\n      pop\n      pop\n      pop\n      pop\n      mload(0x40)\n      returndatasize\n      not(0x1f)\n      0x1f\n      dup3\n      add\n      and\n      dup3\n      add\n      dup1\n      0x40\n      mstore\n      pop\n      dup2\n      add\n      swap1\n      tag_192\n      swap2\n      swap1\n      tag_127\n      jump\t// in\n    tag_192:\n        /* \"Exchange.sol\":5172:5290  require(IERC20(erc20TokenAddress).transferFrom(msg.sender, address(this), _amountERC20Token), \"ERC20 transfer failed\") */\n      tag_193\n      jumpi\n      mload(0x40)\n      0x08c379a000000000000000000000000000000000000000000000000000000000\n      dup2\n      mstore\n      0x04\n      add\n      tag_194\n      swap1\n      tag_130\n      jump\t// in\n    tag_194:\n      mload(0x40)\n      dup1\n      swap2\n      sub\n      swap1\n      revert\n    tag_193:\n        /* \"Exchange.sol\":5308:5318  msg.sender */\n      caller\n        /* \"Exchange.sol\":5300:5328  payable(msg.sender).transfer */\n      0xffffffffffffffffffffffffffffffffffffffff\n      and\n        /* \"Exchange.sol\":5300:5339  payable(msg.sender).transfer(ethToSend) */\n      0x08fc\n        /* \"Exchange.sol\":5329:5338  ethToSend */\n      dup3\n        /* \"Exchange.sol\":5300:5339  payable(msg.sender).transfer(ethToSend) */\n      swap1\n      dup2\n      iszero\n      mul\n      swap1\n      mload(0x40)\n      0x00\n      mload(0x40)\n      dup1\n      dup4\n      sub\n      dup2\n      dup6\n      dup9\n      dup9\n      call\n      swap4\n      pop\n      pop\n      pop\n      pop\n      iszero\n      dup1\n      iszero\n      tag_196\n      jumpi\n      returndatasize\n      0x00\n      dup1\n      returndatacopy\n      revert(0x00, returndatasize)\n    tag_196:\n      pop\n        /* \"Exchange.sol\":5355:5395  SwapForEth(_amountERC20Token, ethToSend) */\n      0x3297a389bb586920e62a196af529d5f42651b17a1013d6bfe77f22372a0b2112\n        /* \"Exchange.sol\":5366:5383  _amountERC20Token */\n      dup4\n        /* \"Exchange.sol\":5385:5394  ethToSend */\n      dup3\n        /* \"Exchange.sol\":5355:5395  SwapForEth(_amountERC20Token, ethToSend) */\n      mload(0x40)\n      tag_197\n      swap3\n      swap2\n      swap1\n      tag_30\n      jump\t// in\n    tag_197:\n      mload(0x40)\n      dup1\n      swap2\n      sub\n      swap1\n      log1\n        /* \"Exchange.sol\":5412:5421  ethToSend */\n      dup1\n        /* \"Exchange.sol\":5405:5421  return ethToSend */\n      swap2\n      pop\n      pop\n        /* \"Exchange.sol\":4509:5428  function swapForEth(uint256 _amountERC20Token) public returns (uint) ... */\n      swap2\n      swap1\n      pop\n      jump\t// out\n        /* \"Exchange.sol\":214:251  uint public contractERC20TokenBalance */\n    tag_71:\n      sload(0x01)\n      dup2\n      jump\t// out\n        /* \"Exchange.sol\":2790:2914  function getMyLiquidityPositions() public view returns (uint) ... */\n    tag_75:\n        /* \"Exchange.sol\":2846:2850  uint */\n      0x00\n        /* \"Exchange.sol\":2874:2895  mapLiquidityPositions */\n      0x03\n        /* \"Exchange.sol\":2874:2907  mapLiquidityPositions[msg.sender] */\n      0x00\n        /* \"Exchange.sol\":2896:2906  msg.sender */\n      caller\n        /* \"Exchange.sol\":2874:2907  mapLiquidityPositions[msg.sender] */\n      0xffffffffffffffffffffffffffffffffffffffff\n      and\n      0xffffffffffffffffffffffffffffffffffffffff\n      and\n      dup2\n      mstore\n      0x20\n      add\n      swap1\n      dup2\n      mstore\n      0x20\n      add\n      0x00\n      keccak256\n      sload\n        /* \"Exchange.sol\":2867:2907  return mapLiquidityPositions[msg.sender] */\n      swap1\n      pop\n        /* \"Exchange.sol\":2790:2914  function getMyLiquidityPositions() public view returns (uint) ... */\n      swap1\n      jump\t// out\n        /* \"Exchange.sol\":1094:2347  function provideLiquidity(uint _amountERC20Token) public payable returns (uint)... */\n    tag_79:\n        /* \"Exchange.sol\":1168:1172  uint */\n      0x00\n        /* \"Exchange.sol\":1216:1217  0 */\n      dup1\n        /* \"Exchange.sol\":1196:1213  _amountERC20Token */\n      dup3\n        /* \"Exchange.sol\":1196:1217  _amountERC20Token > 0 */\n      gt\n        /* \"Exchange.sol\":1188:1253  require(_amountERC20Token > 0, \"You must deposit ERC-20 tokens.\") */\n      tag_200\n      jumpi\n      mload(0x40)\n      0x08c379a000000000000000000000000000000000000000000000000000000000\n      dup2\n      mstore\n      0x04\n      add\n      tag_201\n      swap1\n      tag_202\n      jump\t// in\n    tag_201:\n      mload(0x40)\n      dup1\n      swap2\n      sub\n      swap1\n      revert\n    tag_200:\n        /* \"Exchange.sol\":1264:1287  uint callerERC20Balance */\n      0x00\n        /* \"Exchange.sol\":1297:1314  erc20TokenAddress */\n      0x05\n      0x00\n      swap1\n      sload\n      swap1\n      0x0100\n      exp\n      swap1\n      div\n      0xffffffffffffffffffffffffffffffffffffffff\n      and\n        /* \"Exchange.sol\":1290:1325  IERC20(erc20TokenAddress).balanceOf */\n      0xffffffffffffffffffffffffffffffffffffffff\n      and\n      0x70a08231\n        /* \"Exchange.sol\":1326:1336  msg.sender */\n      caller\n        /* \"Exchange.sol\":1290:1337  IERC20(erc20TokenAddress).balanceOf(msg.sender) */\n      mload(0x40)\n      dup3\n      0xffffffff\n      and\n      0xe0\n      shl\n      dup2\n      mstore\n      0x04\n      add\n      tag_203\n      swap2\n      swap1\n      tag_90\n      jump\t// in\n    tag_203:\n      0x20\n      mload(0x40)\n      dup1\n      dup4\n      sub\n      dup2\n      dup7\n      gas\n      staticcall\n      iszero\n      dup1\n      iszero\n      tag_205\n      jumpi\n      returndatasize\n      0x00\n      dup1\n      returndatacopy\n      revert(0x00, returndatasize)\n    tag_205:\n      pop\n      pop\n      pop\n      pop\n      mload(0x40)\n      returndatasize\n      not(0x1f)\n      0x1f\n      dup3\n      add\n      and\n      dup3\n      add\n      dup1\n      0x40\n      mstore\n      pop\n      dup2\n      add\n      swap1\n      tag_206\n      swap2\n      swap1\n      tag_175\n      jump\t// in\n    tag_206:\n        /* \"Exchange.sol\":1264:1337  uint callerERC20Balance = IERC20(erc20TokenAddress).balanceOf(msg.sender) */\n      swap1\n      pop\n        /* \"Exchange.sol\":1378:1395  _amountERC20Token */\n      dup3\n        /* \"Exchange.sol\":1356:1374  callerERC20Balance */\n      dup2\n        /* \"Exchange.sol\":1356:1395  callerERC20Balance >= _amountERC20Token */\n      lt\n      iszero\n        /* \"Exchange.sol\":1348:1440  require(callerERC20Balance >= _amountERC20Token, \"Caller does not have enough ERC20 tokens\") */\n      tag_207\n      jumpi\n      mload(0x40)\n      0x08c379a000000000000000000000000000000000000000000000000000000000\n      dup2\n      mstore\n      0x04\n      add\n      tag_208\n      swap1\n      tag_209\n      jump\t// in\n    tag_208:\n      mload(0x40)\n      dup1\n      swap2\n      sub\n      swap1\n      revert\n    tag_207:\n        /* \"Exchange.sol\":1451:1474  uint liquidityPositions */\n      0x00\n        /* \"Exchange.sol\":1516:1517  0 */\n      dup1\n        /* \"Exchange.sol\":1489:1512  totalLiquidityPositions */\n      sload(0x02)\n        /* \"Exchange.sol\":1489:1517  totalLiquidityPositions == 0 */\n      sub\n        /* \"Exchange.sol\":1485:1693  if (totalLiquidityPositions == 0) {... */\n      tag_210\n      jumpi\n        /* \"Exchange.sol\":1554:1557  100 */\n      0x64\n        /* \"Exchange.sol\":1533:1557  liquidityPositions = 100 */\n      swap1\n      pop\n        /* \"Exchange.sol\":1485:1693  if (totalLiquidityPositions == 0) {... */\n      jump(tag_211)\n    tag_210:\n        /* \"Exchange.sol\":1657:1682  contractERC20TokenBalance */\n      sload(0x01)\n        /* \"Exchange.sol\":1636:1653  _amountERC20Token */\n      dup5\n        /* \"Exchange.sol\":1610:1633  totalLiquidityPositions */\n      sload(0x02)\n        /* \"Exchange.sol\":1610:1653  totalLiquidityPositions * _amountERC20Token */\n      tag_212\n      swap2\n      swap1\n      tag_103\n      jump\t// in\n    tag_212:\n        /* \"Exchange.sol\":1609:1682  (totalLiquidityPositions * _amountERC20Token) / contractERC20TokenBalance */\n      tag_213\n      swap2\n      swap1\n      tag_105\n      jump\t// in\n    tag_213:\n        /* \"Exchange.sol\":1588:1682  liquidityPositions = (totalLiquidityPositions * _amountERC20Token) / contractERC20TokenBalance */\n      swap1\n      pop\n        /* \"Exchange.sol\":1485:1693  if (totalLiquidityPositions == 0) {... */\n    tag_211:\n        /* \"Exchange.sol\":1723:1724  0 */\n      0x00\n        /* \"Exchange.sol\":1711:1720  msg.value */\n      callvalue\n        /* \"Exchange.sol\":1711:1724  msg.value > 0 */\n      gt\n        /* \"Exchange.sol\":1703:1762  require(msg.value > 0, \"Caller does not have enough ether\") */\n      tag_214\n      jumpi\n      mload(0x40)\n      0x08c379a000000000000000000000000000000000000000000000000000000000\n      dup2\n      mstore\n      0x04\n      add\n      tag_215\n      swap1\n      tag_216\n      jump\t// in\n    tag_215:\n      mload(0x40)\n      dup1\n      swap2\n      sub\n      swap1\n      revert\n    tag_214:\n        /* \"Exchange.sol\":1789:1793  this */\n      address\n        /* \"Exchange.sol\":1773:1804  payable(address(this)).transfer */\n      0xffffffffffffffffffffffffffffffffffffffff\n      and\n        /* \"Exchange.sol\":1773:1815  payable(address(this)).transfer(msg.value) */\n      0x08fc\n        /* \"Exchange.sol\":1805:1814  msg.value */\n      callvalue\n        /* \"Exchange.sol\":1773:1815  payable(address(this)).transfer(msg.value) */\n      swap1\n      dup2\n      iszero\n      mul\n      swap1\n      mload(0x40)\n      0x00\n      mload(0x40)\n      dup1\n      dup4\n      sub\n      dup2\n      dup6\n      dup9\n      dup9\n      call\n      swap4\n      pop\n      pop\n      pop\n      pop\n      iszero\n      dup1\n      iszero\n      tag_218\n      jumpi\n      returndatasize\n      0x00\n      dup1\n      returndatacopy\n      revert(0x00, returndatasize)\n    tag_218:\n      pop\n        /* \"Exchange.sol\":1840:1857  erc20TokenAddress */\n      0x05\n      0x00\n      swap1\n      sload\n      swap1\n      0x0100\n      exp\n      swap1\n      div\n      0xffffffffffffffffffffffffffffffffffffffff\n      and\n        /* \"Exchange.sol\":1833:1871  IERC20(erc20TokenAddress).transferFrom */\n      0xffffffffffffffffffffffffffffffffffffffff\n      and\n      0x23b872dd\n        /* \"Exchange.sol\":1872:1882  msg.sender */\n      caller\n        /* \"Exchange.sol\":1892:1896  this */\n      address\n        /* \"Exchange.sol\":1899:1916  _amountERC20Token */\n      dup8\n        /* \"Exchange.sol\":1833:1917  IERC20(erc20TokenAddress).transferFrom(msg.sender, address(this), _amountERC20Token) */\n      mload(0x40)\n      dup5\n      0xffffffff\n      and\n      0xe0\n      shl\n      dup2\n      mstore\n      0x04\n      add\n      tag_219\n      swap4\n      swap3\n      swap2\n      swap1\n      tag_189\n      jump\t// in\n    tag_219:\n      0x20\n      mload(0x40)\n      dup1\n      dup4\n      sub\n      dup2\n      0x00\n      dup8\n      gas\n      call\n      iszero\n      dup1\n      iszero\n      tag_221\n      jumpi\n      returndatasize\n      0x00\n      dup1\n      returndatacopy\n      revert(0x00, returndatasize)\n    tag_221:\n      pop\n      pop\n      pop\n      pop\n      mload(0x40)\n      returndatasize\n      not(0x1f)\n      0x1f\n      dup3\n      add\n      and\n      dup3\n      add\n      dup1\n      0x40\n      mstore\n      pop\n      dup2\n      add\n      swap1\n      tag_222\n      swap2\n      swap1\n      tag_127\n      jump\t// in\n    tag_222:\n        /* \"Exchange.sol\":1825:1943  require(IERC20(erc20TokenAddress).transferFrom(msg.sender, address(this), _amountERC20Token), \"ERC20 transfer failed\") */\n      tag_223\n      jumpi\n      mload(0x40)\n      0x08c379a000000000000000000000000000000000000000000000000000000000\n      dup2\n      mstore\n      0x04\n      add\n      tag_224\n      swap1\n      tag_130\n      jump\t// in\n    tag_224:\n      mload(0x40)\n      dup1\n      swap2\n      sub\n      swap1\n      revert\n    tag_223:\n        /* \"Exchange.sol\":1976:1985  msg.value */\n      callvalue\n        /* \"Exchange.sol\":1954:1972  contractEthBalance */\n      0x00\n      dup1\n        /* \"Exchange.sol\":1954:1985  contractEthBalance += msg.value */\n      dup3\n      dup3\n      sload\n      tag_225\n      swap2\n      swap1\n      tag_23\n      jump\t// in\n    tag_225:\n      swap3\n      pop\n      pop\n      dup2\n      swap1\n      sstore\n      pop\n        /* \"Exchange.sol\":2024:2041  _amountERC20Token */\n      dup4\n        /* \"Exchange.sol\":1995:2020  contractERC20TokenBalance */\n      0x01\n      0x00\n        /* \"Exchange.sol\":1995:2041  contractERC20TokenBalance += _amountERC20Token */\n      dup3\n      dup3\n      sload\n      tag_226\n      swap2\n      swap1\n      tag_23\n      jump\t// in\n    tag_226:\n      swap3\n      pop\n      pop\n      dup2\n      swap1\n      sstore\n      pop\n        /* \"Exchange.sol\":2076:2101  contractERC20TokenBalance */\n      sload(0x01)\n        /* \"Exchange.sol\":2055:2073  contractEthBalance */\n      sload(0x00)\n        /* \"Exchange.sol\":2055:2101  contractEthBalance * contractERC20TokenBalance */\n      tag_227\n      swap2\n      swap1\n      tag_103\n      jump\t// in\n    tag_227:\n        /* \"Exchange.sol\":2051:2052  k */\n      0x04\n        /* \"Exchange.sol\":2051:2101  k = contractEthBalance * contractERC20TokenBalance */\n      dup2\n      swap1\n      sstore\n      pop\n        /* \"Exchange.sol\":2139:2157  liquidityPositions */\n      dup1\n        /* \"Exchange.sol\":2112:2135  totalLiquidityPositions */\n      0x02\n      0x00\n        /* \"Exchange.sol\":2112:2157  totalLiquidityPositions += liquidityPositions */\n      dup3\n      dup3\n      sload\n      tag_228\n      swap2\n      swap1\n      tag_23\n      jump\t// in\n    tag_228:\n      swap3\n      pop\n      pop\n      dup2\n      swap1\n      sstore\n      pop\n        /* \"Exchange.sol\":2204:2222  liquidityPositions */\n      dup1\n        /* \"Exchange.sol\":2167:2188  mapLiquidityPositions */\n      0x03\n        /* \"Exchange.sol\":2167:2200  mapLiquidityPositions[msg.sender] */\n      0x00\n        /* \"Exchange.sol\":2189:2199  msg.sender */\n      caller\n        /* \"Exchange.sol\":2167:2200  mapLiquidityPositions[msg.sender] */\n      0xffffffffffffffffffffffffffffffffffffffff\n      and\n      0xffffffffffffffffffffffffffffffffffffffff\n      and\n      dup2\n      mstore\n      0x20\n      add\n      swap1\n      dup2\n      mstore\n      0x20\n      add\n      0x00\n      keccak256\n      0x00\n        /* \"Exchange.sol\":2167:2222  mapLiquidityPositions[msg.sender] += liquidityPositions */\n      dup3\n      dup3\n      sload\n      tag_229\n      swap2\n      swap1\n      tag_23\n      jump\t// in\n    tag_229:\n      swap3\n      pop\n      pop\n      dup2\n      swap1\n      sstore\n      pop\n        /* \"Exchange.sol\":2238:2305  LiquidityProvided(_amountERC20Token, msg.value, liquidityPositions) */\n      0xaa58f006cc244b2af6662862508bd39465f57169ff8386d1d1f7b0b903150abc\n        /* \"Exchange.sol\":2256:2273  _amountERC20Token */\n      dup5\n        /* \"Exchange.sol\":2275:2284  msg.value */\n      callvalue\n        /* \"Exchange.sol\":2286:2304  liquidityPositions */\n      dup4\n        /* \"Exchange.sol\":2238:2305  LiquidityProvided(_amountERC20Token, msg.value, liquidityPositions) */\n      mload(0x40)\n      tag_230\n      swap4\n      swap3\n      swap2\n      swap1\n      tag_132\n      jump\t// in\n    tag_230:\n      mload(0x40)\n      dup1\n      swap2\n      sub\n      swap1\n      log1\n        /* \"Exchange.sol\":2322:2340  liquidityPositions */\n      dup1\n        /* \"Exchange.sol\":2315:2340  return liquidityPositions */\n      swap3\n      pop\n      pop\n      pop\n        /* \"Exchange.sol\":1094:2347  function provideLiquidity(uint _amountERC20Token) public payable returns (uint)... */\n      swap2\n      swap1\n      pop\n      jump\t// out\n        /* \"Exchange.sol\":2573:2784  function estimateERC20TokenToProvide(uint _amountEth) public view returns (uint)... */\n    tag_84:\n        /* \"Exchange.sol\":2648:2652  uint */\n      0x00\n        /* \"Exchange.sol\":2668:2687  uint256 amountERC20 */\n      dup1\n        /* \"Exchange.sol\":2731:2749  contractEthBalance */\n      sload(0x00)\n        /* \"Exchange.sol\":2718:2728  _amountEth */\n      dup4\n        /* \"Exchange.sol\":2690:2715  contractERC20TokenBalance */\n      sload(0x01)\n        /* \"Exchange.sol\":2690:2728  contractERC20TokenBalance * _amountEth */\n      tag_232\n      swap2\n      swap1\n      tag_103\n      jump\t// in\n    tag_232:\n        /* \"Exchange.sol\":2690:2749  contractERC20TokenBalance * _amountEth / contractEthBalance */\n      tag_233\n      swap2\n      swap1\n      tag_105\n      jump\t// in\n    tag_233:\n        /* \"Exchange.sol\":2668:2749  uint256 amountERC20 = contractERC20TokenBalance * _amountEth / contractEthBalance */\n      swap1\n      pop\n        /* \"Exchange.sol\":2766:2777  amountERC20 */\n      dup1\n        /* \"Exchange.sol\":2759:2777  return amountERC20 */\n      swap2\n      pop\n      pop\n        /* \"Exchange.sol\":2573:2784  function estimateERC20TokenToProvide(uint _amountEth) public view returns (uint)... */\n      swap2\n      swap1\n      pop\n      jump\t// out\n        /* \"Exchange.sol\":375:407  address public erc20TokenAddress */\n    tag_88:\n      0x05\n      0x00\n      swap1\n      sload\n      swap1\n      0x0100\n      exp\n      swap1\n      div\n      0xffffffffffffffffffffffffffffffffffffffff\n      and\n      dup2\n      jump\t// out\n        /* \"#utility.yul\":7:84   */\n    tag_234:\n        /* \"#utility.yul\":44:51   */\n      0x00\n        /* \"#utility.yul\":73:78   */\n      dup2\n        /* \"#utility.yul\":62:78   */\n      swap1\n      pop\n        /* \"#utility.yul\":7:84   */\n      swap2\n      swap1\n      pop\n      jump\t// out\n        /* \"#utility.yul\":90:270   */\n    tag_235:\n        /* \"#utility.yul\":138:215   */\n      0x4e487b7100000000000000000000000000000000000000000000000000000000\n        /* \"#utility.yul\":135:136   */\n      0x00\n        /* \"#utility.yul\":128:216   */\n      mstore\n        /* \"#utility.yul\":235:239   */\n      0x11\n        /* \"#utility.yul\":232:233   */\n      0x04\n        /* \"#utility.yul\":225:240   */\n      mstore\n        /* \"#utility.yul\":259:263   */\n      0x24\n        /* \"#utility.yul\":256:257   */\n      0x00\n        /* \"#utility.yul\":249:264   */\n      revert\n        /* \"#utility.yul\":276:467   */\n    tag_23:\n        /* \"#utility.yul\":316:319   */\n      0x00\n        /* \"#utility.yul\":335:355   */\n      tag_283\n        /* \"#utility.yul\":353:354   */\n      dup3\n        /* \"#utility.yul\":335:355   */\n      tag_234\n      jump\t// in\n    tag_283:\n        /* \"#utility.yul\":330:355   */\n      swap2\n      pop\n        /* \"#utility.yul\":369:389   */\n      tag_284\n        /* \"#utility.yul\":387:388   */\n      dup4\n        /* \"#utility.yul\":369:389   */\n      tag_234\n      jump\t// in\n    tag_284:\n        /* \"#utility.yul\":364:389   */\n      swap3\n      pop\n        /* \"#utility.yul\":412:413   */\n      dup3\n        /* \"#utility.yul\":409:410   */\n      dup3\n        /* \"#utility.yul\":405:414   */\n      add\n        /* \"#utility.yul\":398:414   */\n      swap1\n      pop\n        /* \"#utility.yul\":433:436   */\n      dup1\n        /* \"#utility.yul\":430:431   */\n      dup3\n        /* \"#utility.yul\":427:437   */\n      gt\n        /* \"#utility.yul\":424:460   */\n      iszero\n      tag_285\n      jumpi\n        /* \"#utility.yul\":440:458   */\n      tag_286\n      tag_235\n      jump\t// in\n    tag_286:\n        /* \"#utility.yul\":424:460   */\n    tag_285:\n        /* \"#utility.yul\":276:467   */\n      swap3\n      swap2\n      pop\n      pop\n      jump\t// out\n        /* \"#utility.yul\":554:671   */\n    tag_237:\n        /* \"#utility.yul\":663:664   */\n      0x00\n        /* \"#utility.yul\":660:661   */\n      dup1\n        /* \"#utility.yul\":653:665   */\n      revert\n        /* \"#utility.yul\":800:922   */\n    tag_239:\n        /* \"#utility.yul\":873:897   */\n      tag_291\n        /* \"#utility.yul\":891:896   */\n      dup2\n        /* \"#utility.yul\":873:897   */\n      tag_234\n      jump\t// in\n    tag_291:\n        /* \"#utility.yul\":866:871   */\n      dup2\n        /* \"#utility.yul\":863:898   */\n      eq\n        /* \"#utility.yul\":853:916   */\n      tag_292\n      jumpi\n        /* \"#utility.yul\":912:913   */\n      0x00\n        /* \"#utility.yul\":909:910   */\n      dup1\n        /* \"#utility.yul\":902:914   */\n      revert\n        /* \"#utility.yul\":853:916   */\n    tag_292:\n        /* \"#utility.yul\":800:922   */\n      pop\n      jump\t// out\n        /* \"#utility.yul\":928:1067   */\n    tag_240:\n        /* \"#utility.yul\":974:979   */\n      0x00\n        /* \"#utility.yul\":1012:1018   */\n      dup2\n        /* \"#utility.yul\":999:1019   */\n      calldataload\n        /* \"#utility.yul\":990:1019   */\n      swap1\n      pop\n        /* \"#utility.yul\":1028:1061   */\n      tag_294\n        /* \"#utility.yul\":1055:1060   */\n      dup2\n        /* \"#utility.yul\":1028:1061   */\n      tag_239\n      jump\t// in\n    tag_294:\n        /* \"#utility.yul\":928:1067   */\n      swap3\n      swap2\n      pop\n      pop\n      jump\t// out\n        /* \"#utility.yul\":1073:1402   */\n    tag_27:\n        /* \"#utility.yul\":1132:1138   */\n      0x00\n        /* \"#utility.yul\":1181:1183   */\n      0x20\n        /* \"#utility.yul\":1169:1178   */\n      dup3\n        /* \"#utility.yul\":1160:1167   */\n      dup5\n        /* \"#utility.yul\":1156:1179   */\n      sub\n        /* \"#utility.yul\":1152:1184   */\n      slt\n        /* \"#utility.yul\":1149:1268   */\n      iszero\n      tag_296\n      jumpi\n        /* \"#utility.yul\":1187:1266   */\n      tag_297\n      tag_237\n      jump\t// in\n    tag_297:\n        /* \"#utility.yul\":1149:1268   */\n    tag_296:\n        /* \"#utility.yul\":1307:1308   */\n      0x00\n        /* \"#utility.yul\":1332:1385   */\n      tag_298\n        /* \"#utility.yul\":1377:1384   */\n      dup5\n        /* \"#utility.yul\":1368:1374   */\n      dup3\n        /* \"#utility.yul\":1357:1366   */\n      dup6\n        /* \"#utility.yul\":1353:1375   */\n      add\n        /* \"#utility.yul\":1332:1385   */\n      tag_240\n      jump\t// in\n    tag_298:\n        /* \"#utility.yul\":1322:1385   */\n      swap2\n      pop\n        /* \"#utility.yul\":1278:1395   */\n      pop\n        /* \"#utility.yul\":1073:1402   */\n      swap3\n      swap2\n      pop\n      pop\n      jump\t// out\n        /* \"#utility.yul\":1408:1526   */\n    tag_241:\n        /* \"#utility.yul\":1495:1519   */\n      tag_300\n        /* \"#utility.yul\":1513:1518   */\n      dup2\n        /* \"#utility.yul\":1495:1519   */\n      tag_234\n      jump\t// in\n    tag_300:\n        /* \"#utility.yul\":1490:1493   */\n      dup3\n        /* \"#utility.yul\":1483:1520   */\n      mstore\n        /* \"#utility.yul\":1408:1526   */\n      pop\n      pop\n      jump\t// out\n        /* \"#utility.yul\":1532:1864   */\n    tag_30:\n        /* \"#utility.yul\":1653:1657   */\n      0x00\n        /* \"#utility.yul\":1691:1693   */\n      0x40\n        /* \"#utility.yul\":1680:1689   */\n      dup3\n        /* \"#utility.yul\":1676:1694   */\n      add\n        /* \"#utility.yul\":1668:1694   */\n      swap1\n      pop\n        /* \"#utility.yul\":1704:1775   */\n      tag_302\n        /* \"#utility.yul\":1772:1773   */\n      0x00\n        /* \"#utility.yul\":1761:1770   */\n      dup4\n        /* \"#utility.yul\":1757:1774   */\n      add\n        /* \"#utility.yul\":1748:1754   */\n      dup6\n        /* \"#utility.yul\":1704:1775   */\n      tag_241\n      jump\t// in\n    tag_302:\n        /* \"#utility.yul\":1785:1857   */\n      tag_303\n        /* \"#utility.yul\":1853:1855   */\n      0x20\n        /* \"#utility.yul\":1842:1851   */\n      dup4\n        /* \"#utility.yul\":1838:1856   */\n      add\n        /* \"#utility.yul\":1829:1835   */\n      dup5\n        /* \"#utility.yul\":1785:1857   */\n      tag_241\n      jump\t// in\n    tag_303:\n        /* \"#utility.yul\":1532:1864   */\n      swap4\n      swap3\n      pop\n      pop\n      pop\n      jump\t// out\n        /* \"#utility.yul\":1870:2092   */\n    tag_35:\n        /* \"#utility.yul\":1963:1967   */\n      0x00\n        /* \"#utility.yul\":2001:2003   */\n      0x20\n        /* \"#utility.yul\":1990:1999   */\n      dup3\n        /* \"#utility.yul\":1986:2004   */\n      add\n        /* \"#utility.yul\":1978:2004   */\n      swap1\n      pop\n        /* \"#utility.yul\":2014:2085   */\n      tag_305\n        /* \"#utility.yul\":2082:2083   */\n      0x00\n        /* \"#utility.yul\":2071:2080   */\n      dup4\n        /* \"#utility.yul\":2067:2084   */\n      add\n        /* \"#utility.yul\":2058:2064   */\n      dup5\n        /* \"#utility.yul\":2014:2085   */\n      tag_241\n      jump\t// in\n    tag_305:\n        /* \"#utility.yul\":1870:2092   */\n      swap3\n      swap2\n      pop\n      pop\n      jump\t// out\n        /* \"#utility.yul\":2098:2224   */\n    tag_242:\n        /* \"#utility.yul\":2135:2142   */\n      0x00\n        /* \"#utility.yul\":2175:2217   */\n      0xffffffffffffffffffffffffffffffffffffffff\n        /* \"#utility.yul\":2168:2173   */\n      dup3\n        /* \"#utility.yul\":2164:2218   */\n      and\n        /* \"#utility.yul\":2153:2218   */\n      swap1\n      pop\n        /* \"#utility.yul\":2098:2224   */\n      swap2\n      swap1\n      pop\n      jump\t// out\n        /* \"#utility.yul\":2230:2326   */\n    tag_243:\n        /* \"#utility.yul\":2267:2274   */\n      0x00\n        /* \"#utility.yul\":2296:2320   */\n      tag_308\n        /* \"#utility.yul\":2314:2319   */\n      dup3\n        /* \"#utility.yul\":2296:2320   */\n      tag_242\n      jump\t// in\n    tag_308:\n        /* \"#utility.yul\":2285:2320   */\n      swap1\n      pop\n        /* \"#utility.yul\":2230:2326   */\n      swap2\n      swap1\n      pop\n      jump\t// out\n        /* \"#utility.yul\":2332:2450   */\n    tag_244:\n        /* \"#utility.yul\":2419:2443   */\n      tag_310\n        /* \"#utility.yul\":2437:2442   */\n      dup2\n        /* \"#utility.yul\":2419:2443   */\n      tag_243\n      jump\t// in\n    tag_310:\n        /* \"#utility.yul\":2414:2417   */\n      dup3\n        /* \"#utility.yul\":2407:2444   */\n      mstore\n        /* \"#utility.yul\":2332:2450   */\n      pop\n      pop\n      jump\t// out\n        /* \"#utility.yul\":2456:2678   */\n    tag_90:\n        /* \"#utility.yul\":2549:2553   */\n      0x00\n        /* \"#utility.yul\":2587:2589   */\n      0x20\n        /* \"#utility.yul\":2576:2585   */\n      dup3\n        /* \"#utility.yul\":2572:2590   */\n      add\n        /* \"#utility.yul\":2564:2590   */\n      swap1\n      pop\n        /* \"#utility.yul\":2600:2671   */\n      tag_312\n        /* \"#utility.yul\":2668:2669   */\n      0x00\n        /* \"#utility.yul\":2657:2666   */\n      dup4\n        /* \"#utility.yul\":2653:2670   */\n      add\n        /* \"#utility.yul\":2644:2650   */\n      dup5\n        /* \"#utility.yul\":2600:2671   */\n      tag_244\n      jump\t// in\n    tag_312:\n        /* \"#utility.yul\":2456:2678   */\n      swap3\n      swap2\n      pop\n      pop\n      jump\t// out\n        /* \"#utility.yul\":2684:2853   */\n    tag_245:\n        /* \"#utility.yul\":2768:2779   */\n      0x00\n        /* \"#utility.yul\":2802:2808   */\n      dup3\n        /* \"#utility.yul\":2797:2800   */\n      dup3\n        /* \"#utility.yul\":2790:2809   */\n      mstore\n        /* \"#utility.yul\":2842:2846   */\n      0x20\n        /* \"#utility.yul\":2837:2840   */\n      dup3\n        /* \"#utility.yul\":2833:2847   */\n      add\n        /* \"#utility.yul\":2818:2847   */\n      swap1\n      pop\n        /* \"#utility.yul\":2684:2853   */\n      swap3\n      swap2\n      pop\n      pop\n      jump\t// out\n        /* \"#utility.yul\":2859:3110   */\n    tag_246:\n        /* \"#utility.yul\":2999:3033   */\n      0x546865206e756d626572206f66206c697175696469747920706f736974696f6e\n        /* \"#utility.yul\":2995:2996   */\n      0x00\n        /* \"#utility.yul\":2987:2993   */\n      dup3\n        /* \"#utility.yul\":2983:2997   */\n      add\n        /* \"#utility.yul\":2976:3034   */\n      mstore\n        /* \"#utility.yul\":3068:3102   */\n      0x7320746f206275726e206d7573742062652067726561746572207468616e2030\n        /* \"#utility.yul\":3063:3065   */\n      0x20\n        /* \"#utility.yul\":3055:3061   */\n      dup3\n        /* \"#utility.yul\":3051:3066   */\n      add\n        /* \"#utility.yul\":3044:3103   */\n      mstore\n        /* \"#utility.yul\":2859:3110   */\n      pop\n      jump\t// out\n        /* \"#utility.yul\":3116:3482   */\n    tag_247:\n        /* \"#utility.yul\":3258:3261   */\n      0x00\n        /* \"#utility.yul\":3279:3346   */\n      tag_316\n        /* \"#utility.yul\":3343:3345   */\n      0x40\n        /* \"#utility.yul\":3338:3341   */\n      dup4\n        /* \"#utility.yul\":3279:3346   */\n      tag_245\n      jump\t// in\n    tag_316:\n        /* \"#utility.yul\":3272:3346   */\n      swap2\n      pop\n        /* \"#utility.yul\":3355:3448   */\n      tag_317\n        /* \"#utility.yul\":3444:3447   */\n      dup3\n        /* \"#utility.yul\":3355:3448   */\n      tag_246\n      jump\t// in\n    tag_317:\n        /* \"#utility.yul\":3473:3475   */\n      0x40\n        /* \"#utility.yul\":3468:3471   */\n      dup3\n        /* \"#utility.yul\":3464:3476   */\n      add\n        /* \"#utility.yul\":3457:3476   */\n      swap1\n      pop\n        /* \"#utility.yul\":3116:3482   */\n      swap2\n      swap1\n      pop\n      jump\t// out\n        /* \"#utility.yul\":3488:3907   */\n    tag_94:\n        /* \"#utility.yul\":3654:3658   */\n      0x00\n        /* \"#utility.yul\":3692:3694   */\n      0x20\n        /* \"#utility.yul\":3681:3690   */\n      dup3\n        /* \"#utility.yul\":3677:3695   */\n      add\n        /* \"#utility.yul\":3669:3695   */\n      swap1\n      pop\n        /* \"#utility.yul\":3741:3750   */\n      dup2\n        /* \"#utility.yul\":3735:3739   */\n      dup2\n        /* \"#utility.yul\":3731:3751   */\n      sub\n        /* \"#utility.yul\":3727:3728   */\n      0x00\n        /* \"#utility.yul\":3716:3725   */\n      dup4\n        /* \"#utility.yul\":3712:3729   */\n      add\n        /* \"#utility.yul\":3705:3752   */\n      mstore\n        /* \"#utility.yul\":3769:3900   */\n      tag_319\n        /* \"#utility.yul\":3895:3899   */\n      dup2\n        /* \"#utility.yul\":3769:3900   */\n      tag_247\n      jump\t// in\n    tag_319:\n        /* \"#utility.yul\":3761:3900   */\n      swap1\n      pop\n        /* \"#utility.yul\":3488:3907   */\n      swap2\n      swap1\n      pop\n      jump\t// out\n        /* \"#utility.yul\":3913:4159   */\n    tag_248:\n        /* \"#utility.yul\":4053:4087   */\n      0x43616c6c65722063616e27742067697665207570206d6f7265206c6971756964\n        /* \"#utility.yul\":4049:4050   */\n      0x00\n        /* \"#utility.yul\":4041:4047   */\n      dup3\n        /* \"#utility.yul\":4037:4051   */\n      add\n        /* \"#utility.yul\":4030:4088   */\n      mstore\n        /* \"#utility.yul\":4122:4151   */\n      0x69747920706f736974696f6e73207468616e2074686579206f776e0000000000\n        /* \"#utility.yul\":4117:4119   */\n      0x20\n        /* \"#utility.yul\":4109:4115   */\n      dup3\n        /* \"#utility.yul\":4105:4120   */\n      add\n        /* \"#utility.yul\":4098:4152   */\n      mstore\n        /* \"#utility.yul\":3913:4159   */\n      pop\n      jump\t// out\n        /* \"#utility.yul\":4165:4531   */\n    tag_249:\n        /* \"#utility.yul\":4307:4310   */\n      0x00\n        /* \"#utility.yul\":4328:4395   */\n      tag_322\n        /* \"#utility.yul\":4392:4394   */\n      0x3b\n        /* \"#utility.yul\":4387:4390   */\n      dup4\n        /* \"#utility.yul\":4328:4395   */\n      tag_245\n      jump\t// in\n    tag_322:\n        /* \"#utility.yul\":4321:4395   */\n      swap2\n      pop\n        /* \"#utility.yul\":4404:4497   */\n      tag_323\n        /* \"#utility.yul\":4493:4496   */\n      dup3\n        /* \"#utility.yul\":4404:4497   */\n      tag_248\n      jump\t// in\n    tag_323:\n        /* \"#utility.yul\":4522:4524   */\n      0x40\n        /* \"#utility.yul\":4517:4520   */\n      dup3\n        /* \"#utility.yul\":4513:4525   */\n      add\n        /* \"#utility.yul\":4506:4525   */\n      swap1\n      pop\n        /* \"#utility.yul\":4165:4531   */\n      swap2\n      swap1\n      pop\n      jump\t// out\n        /* \"#utility.yul\":4537:4956   */\n    tag_98:\n        /* \"#utility.yul\":4703:4707   */\n      0x00\n        /* \"#utility.yul\":4741:4743   */\n      0x20\n        /* \"#utility.yul\":4730:4739   */\n      dup3\n        /* \"#utility.yul\":4726:4744   */\n      add\n        /* \"#utility.yul\":4718:4744   */\n      swap1\n      pop\n        /* \"#utility.yul\":4790:4799   */\n      dup2\n        /* \"#utility.yul\":4784:4788   */\n      dup2\n        /* \"#utility.yul\":4780:4800   */\n      sub\n        /* \"#utility.yul\":4776:4777   */\n      0x00\n        /* \"#utility.yul\":4765:4774   */\n      dup4\n        /* \"#utility.yul\":4761:4778   */\n      add\n        /* \"#utility.yul\":4754:4801   */\n      mstore\n        /* \"#utility.yul\":4818:4949   */\n      tag_325\n        /* \"#utility.yul\":4944:4948   */\n      dup2\n        /* \"#utility.yul\":4818:4949   */\n      tag_249\n      jump\t// in\n    tag_325:\n        /* \"#utility.yul\":4810:4949   */\n      swap1\n      pop\n        /* \"#utility.yul\":4537:4956   */\n      swap2\n      swap1\n      pop\n      jump\t// out\n        /* \"#utility.yul\":4962:5205   */\n    tag_250:\n        /* \"#utility.yul\":5102:5136   */\n      0x43616c6c65722063616e2774206769766520757020616c6c206c697175696469\n        /* \"#utility.yul\":5098:5099   */\n      0x00\n        /* \"#utility.yul\":5090:5096   */\n      dup3\n        /* \"#utility.yul\":5086:5100   */\n      add\n        /* \"#utility.yul\":5079:5137   */\n      mstore\n        /* \"#utility.yul\":5171:5197   */\n      0x747920706f736974696f6e7320696e2074686520706f6f6c0000000000000000\n        /* \"#utility.yul\":5166:5168   */\n      0x20\n        /* \"#utility.yul\":5158:5164   */\n      dup3\n        /* \"#utility.yul\":5154:5169   */\n      add\n        /* \"#utility.yul\":5147:5198   */\n      mstore\n        /* \"#utility.yul\":4962:5205   */\n      pop\n      jump\t// out\n        /* \"#utility.yul\":5211:5577   */\n    tag_251:\n        /* \"#utility.yul\":5353:5356   */\n      0x00\n        /* \"#utility.yul\":5374:5441   */\n      tag_328\n        /* \"#utility.yul\":5438:5440   */\n      0x38\n        /* \"#utility.yul\":5433:5436   */\n      dup4\n        /* \"#utility.yul\":5374:5441   */\n      tag_245\n      jump\t// in\n    tag_328:\n        /* \"#utility.yul\":5367:5441   */\n      swap2\n      pop\n        /* \"#utility.yul\":5450:5543   */\n      tag_329\n        /* \"#utility.yul\":5539:5542   */\n      dup3\n        /* \"#utility.yul\":5450:5543   */\n      tag_250\n      jump\t// in\n    tag_329:\n        /* \"#utility.yul\":5568:5570   */\n      0x40\n        /* \"#utility.yul\":5563:5566   */\n      dup3\n        /* \"#utility.yul\":5559:5571   */\n      add\n        /* \"#utility.yul\":5552:5571   */\n      swap1\n      pop\n        /* \"#utility.yul\":5211:5577   */\n      swap2\n      swap1\n      pop\n      jump\t// out\n        /* \"#utility.yul\":5583:6002   */\n    tag_101:\n        /* \"#utility.yul\":5749:5753   */\n      0x00\n        /* \"#utility.yul\":5787:5789   */\n      0x20\n        /* \"#utility.yul\":5776:5785   */\n      dup3\n        /* \"#utility.yul\":5772:5790   */\n      add\n        /* \"#utility.yul\":5764:5790   */\n      swap1\n      pop\n        /* \"#utility.yul\":5836:5845   */\n      dup2\n        /* \"#utility.yul\":5830:5834   */\n      dup2\n        /* \"#utility.yul\":5826:5846   */\n      sub\n        /* \"#utility.yul\":5822:5823   */\n      0x00\n        /* \"#utility.yul\":5811:5820   */\n      dup4\n        /* \"#utility.yul\":5807:5824   */\n      add\n        /* \"#utility.yul\":5800:5847   */\n      mstore\n        /* \"#utility.yul\":5864:5995   */\n      tag_331\n        /* \"#utility.yul\":5990:5994   */\n      dup2\n        /* \"#utility.yul\":5864:5995   */\n      tag_251\n      jump\t// in\n    tag_331:\n        /* \"#utility.yul\":5856:5995   */\n      swap1\n      pop\n        /* \"#utility.yul\":5583:6002   */\n      swap2\n      swap1\n      pop\n      jump\t// out\n        /* \"#utility.yul\":6008:6418   */\n    tag_103:\n        /* \"#utility.yul\":6048:6055   */\n      0x00\n        /* \"#utility.yul\":6071:6091   */\n      tag_333\n        /* \"#utility.yul\":6089:6090   */\n      dup3\n        /* \"#utility.yul\":6071:6091   */\n      tag_234\n      jump\t// in\n    tag_333:\n        /* \"#utility.yul\":6066:6091   */\n      swap2\n      pop\n        /* \"#utility.yul\":6105:6125   */\n      tag_334\n        /* \"#utility.yul\":6123:6124   */\n      dup4\n        /* \"#utility.yul\":6105:6125   */\n      tag_234\n      jump\t// in\n    tag_334:\n        /* \"#utility.yul\":6100:6125   */\n      swap3\n      pop\n        /* \"#utility.yul\":6160:6161   */\n      dup3\n        /* \"#utility.yul\":6157:6158   */\n      dup3\n        /* \"#utility.yul\":6153:6162   */\n      mul\n        /* \"#utility.yul\":6182:6212   */\n      tag_335\n        /* \"#utility.yul\":6200:6211   */\n      dup2\n        /* \"#utility.yul\":6182:6212   */\n      tag_234\n      jump\t// in\n    tag_335:\n        /* \"#utility.yul\":6171:6212   */\n      swap2\n      pop\n        /* \"#utility.yul\":6361:6362   */\n      dup3\n        /* \"#utility.yul\":6352:6359   */\n      dup3\n        /* \"#utility.yul\":6348:6363   */\n      div\n        /* \"#utility.yul\":6345:6346   */\n      dup5\n        /* \"#utility.yul\":6342:6364   */\n      eq\n        /* \"#utility.yul\":6322:6323   */\n      dup4\n        /* \"#utility.yul\":6315:6324   */\n      iszero\n        /* \"#utility.yul\":6295:6378   */\n      or\n        /* \"#utility.yul\":6272:6411   */\n      tag_336\n      jumpi\n        /* \"#utility.yul\":6391:6409   */\n      tag_337\n      tag_235\n      jump\t// in\n    tag_337:\n        /* \"#utility.yul\":6272:6411   */\n    tag_336:\n        /* \"#utility.yul\":6056:6418   */\n      pop\n        /* \"#utility.yul\":6008:6418   */\n      swap3\n      swap2\n      pop\n      pop\n      jump\t// out\n        /* \"#utility.yul\":6424:6604   */\n    tag_252:\n        /* \"#utility.yul\":6472:6549   */\n      0x4e487b7100000000000000000000000000000000000000000000000000000000\n        /* \"#utility.yul\":6469:6470   */\n      0x00\n        /* \"#utility.yul\":6462:6550   */\n      mstore\n        /* \"#utility.yul\":6569:6573   */\n      0x12\n        /* \"#utility.yul\":6566:6567   */\n      0x04\n        /* \"#utility.yul\":6559:6574   */\n      mstore\n        /* \"#utility.yul\":6593:6597   */\n      0x24\n        /* \"#utility.yul\":6590:6591   */\n      0x00\n        /* \"#utility.yul\":6583:6598   */\n      revert\n        /* \"#utility.yul\":6610:6795   */\n    tag_105:\n        /* \"#utility.yul\":6650:6651   */\n      0x00\n        /* \"#utility.yul\":6667:6687   */\n      tag_340\n        /* \"#utility.yul\":6685:6686   */\n      dup3\n        /* \"#utility.yul\":6667:6687   */\n      tag_234\n      jump\t// in\n    tag_340:\n        /* \"#utility.yul\":6662:6687   */\n      swap2\n      pop\n        /* \"#utility.yul\":6701:6721   */\n      tag_341\n        /* \"#utility.yul\":6719:6720   */\n      dup4\n        /* \"#utility.yul\":6701:6721   */\n      tag_234\n      jump\t// in\n    tag_341:\n        /* \"#utility.yul\":6696:6721   */\n      swap3\n      pop\n        /* \"#utility.yul\":6740:6741   */\n      dup3\n        /* \"#utility.yul\":6730:6765   */\n      tag_342\n      jumpi\n        /* \"#utility.yul\":6745:6763   */\n      tag_343\n      tag_252\n      jump\t// in\n    tag_343:\n        /* \"#utility.yul\":6730:6765   */\n    tag_342:\n        /* \"#utility.yul\":6787:6788   */\n      dup3\n        /* \"#utility.yul\":6784:6785   */\n      dup3\n        /* \"#utility.yul\":6780:6789   */\n      div\n        /* \"#utility.yul\":6775:6789   */\n      swap1\n      pop\n        /* \"#utility.yul\":6610:6795   */\n      swap3\n      swap2\n      pop\n      pop\n      jump\t// out\n        /* \"#utility.yul\":6801:6983   */\n    tag_253:\n        /* \"#utility.yul\":6941:6975   */\n      0x4e6f7420656e6f75676820457468657220696e2074686520636f6e7472616374\n        /* \"#utility.yul\":6937:6938   */\n      0x00\n        /* \"#utility.yul\":6929:6935   */\n      dup3\n        /* \"#utility.yul\":6925:6939   */\n      add\n        /* \"#utility.yul\":6918:6976   */\n      mstore\n        /* \"#utility.yul\":6801:6983   */\n      pop\n      jump\t// out\n        /* \"#utility.yul\":6989:7355   */\n    tag_254:\n        /* \"#utility.yul\":7131:7134   */\n      0x00\n        /* \"#utility.yul\":7152:7219   */\n      tag_346\n        /* \"#utility.yul\":7216:7218   */\n      0x20\n        /* \"#utility.yul\":7211:7214   */\n      dup4\n        /* \"#utility.yul\":7152:7219   */\n      tag_245\n      jump\t// in\n    tag_346:\n        /* \"#utility.yul\":7145:7219   */\n      swap2\n      pop\n        /* \"#utility.yul\":7228:7321   */\n      tag_347\n        /* \"#utility.yul\":7317:7320   */\n      dup3\n        /* \"#utility.yul\":7228:7321   */\n      tag_253\n      jump\t// in\n    tag_347:\n        /* \"#utility.yul\":7346:7348   */\n      0x20\n        /* \"#utility.yul\":7341:7344   */\n      dup3\n        /* \"#utility.yul\":7337:7349   */\n      add\n        /* \"#utility.yul\":7330:7349   */\n      swap1\n      pop\n        /* \"#utility.yul\":6989:7355   */\n      swap2\n      swap1\n      pop\n      jump\t// out\n        /* \"#utility.yul\":7361:7780   */\n    tag_110:\n        /* \"#utility.yul\":7527:7531   */\n      0x00\n        /* \"#utility.yul\":7565:7567   */\n      0x20\n        /* \"#utility.yul\":7554:7563   */\n      dup3\n        /* \"#utility.yul\":7550:7568   */\n      add\n        /* \"#utility.yul\":7542:7568   */\n      swap1\n      pop\n        /* \"#utility.yul\":7614:7623   */\n      dup2\n        /* \"#utility.yul\":7608:7612   */\n      dup2\n        /* \"#utility.yul\":7604:7624   */\n      sub\n        /* \"#utility.yul\":7600:7601   */\n      0x00\n        /* \"#utility.yul\":7589:7598   */\n      dup4\n        /* \"#utility.yul\":7585:7602   */\n      add\n        /* \"#utility.yul\":7578:7625   */\n      mstore\n        /* \"#utility.yul\":7642:7773   */\n      tag_349\n        /* \"#utility.yul\":7768:7772   */\n      dup2\n        /* \"#utility.yul\":7642:7773   */\n      tag_254\n      jump\t// in\n    tag_349:\n        /* \"#utility.yul\":7634:7773   */\n      swap1\n      pop\n        /* \"#utility.yul\":7361:7780   */\n      swap2\n      swap1\n      pop\n      jump\t// out\n        /* \"#utility.yul\":7786:8012   */\n    tag_255:\n        /* \"#utility.yul\":7926:7960   */\n      0x4e6f7420656e6f75676820455243323020746f6b656e7320696e207468652063\n        /* \"#utility.yul\":7922:7923   */\n      0x00\n        /* \"#utility.yul\":7914:7920   */\n      dup3\n        /* \"#utility.yul\":7910:7924   */\n      add\n        /* \"#utility.yul\":7903:7961   */\n      mstore\n        /* \"#utility.yul\":7995:8004   */\n      0x6f6e747261637400000000000000000000000000000000000000000000000000\n        /* \"#utility.yul\":7990:7992   */\n      0x20\n        /* \"#utility.yul\":7982:7988   */\n      dup3\n        /* \"#utility.yul\":7978:7993   */\n      add\n        /* \"#utility.yul\":7971:8005   */\n      mstore\n        /* \"#utility.yul\":7786:8012   */\n      pop\n      jump\t// out\n        /* \"#utility.yul\":8018:8384   */\n    tag_256:\n        /* \"#utility.yul\":8160:8163   */\n      0x00\n        /* \"#utility.yul\":8181:8248   */\n      tag_352\n        /* \"#utility.yul\":8245:8247   */\n      0x27\n        /* \"#utility.yul\":8240:8243   */\n      dup4\n        /* \"#utility.yul\":8181:8248   */\n      tag_245\n      jump\t// in\n    tag_352:\n        /* \"#utility.yul\":8174:8248   */\n      swap2\n      pop\n        /* \"#utility.yul\":8257:8350   */\n      tag_353\n        /* \"#utility.yul\":8346:8349   */\n      dup3\n        /* \"#utility.yul\":8257:8350   */\n      tag_255\n      jump\t// in\n    tag_353:\n        /* \"#utility.yul\":8375:8377   */\n      0x40\n        /* \"#utility.yul\":8370:8373   */\n      dup3\n        /* \"#utility.yul\":8366:8378   */\n      add\n        /* \"#utility.yul\":8359:8378   */\n      swap1\n      pop\n        /* \"#utility.yul\":8018:8384   */\n      swap2\n      swap1\n      pop\n      jump\t// out\n        /* \"#utility.yul\":8390:8809   */\n    tag_113:\n        /* \"#utility.yul\":8556:8560   */\n      0x00\n        /* \"#utility.yul\":8594:8596   */\n      0x20\n        /* \"#utility.yul\":8583:8592   */\n      dup3\n        /* \"#utility.yul\":8579:8597   */\n      add\n        /* \"#utility.yul\":8571:8597   */\n      swap1\n      pop\n        /* \"#utility.yul\":8643:8652   */\n      dup2\n        /* \"#utility.yul\":8637:8641   */\n      dup2\n        /* \"#utility.yul\":8633:8653   */\n      sub\n        /* \"#utility.yul\":8629:8630   */\n      0x00\n        /* \"#utility.yul\":8618:8627   */\n      dup4\n        /* \"#utility.yul\":8614:8631   */\n      add\n        /* \"#utility.yul\":8607:8654   */\n      mstore\n        /* \"#utility.yul\":8671:8802   */\n      tag_355\n        /* \"#utility.yul\":8797:8801   */\n      dup2\n        /* \"#utility.yul\":8671:8802   */\n      tag_256\n      jump\t// in\n    tag_355:\n        /* \"#utility.yul\":8663:8802   */\n      swap1\n      pop\n        /* \"#utility.yul\":8390:8809   */\n      swap2\n      swap1\n      pop\n      jump\t// out\n        /* \"#utility.yul\":8815:9009   */\n    tag_115:\n        /* \"#utility.yul\":8855:8859   */\n      0x00\n        /* \"#utility.yul\":8875:8895   */\n      tag_357\n        /* \"#utility.yul\":8893:8894   */\n      dup3\n        /* \"#utility.yul\":8875:8895   */\n      tag_234\n      jump\t// in\n    tag_357:\n        /* \"#utility.yul\":8870:8895   */\n      swap2\n      pop\n        /* \"#utility.yul\":8909:8929   */\n      tag_358\n        /* \"#utility.yul\":8927:8928   */\n      dup4\n        /* \"#utility.yul\":8909:8929   */\n      tag_234\n      jump\t// in\n    tag_358:\n        /* \"#utility.yul\":8904:8929   */\n      swap3\n      pop\n        /* \"#utility.yul\":8953:8954   */\n      dup3\n        /* \"#utility.yul\":8950:8951   */\n      dup3\n        /* \"#utility.yul\":8946:8955   */\n      sub\n        /* \"#utility.yul\":8938:8955   */\n      swap1\n      pop\n        /* \"#utility.yul\":8977:8978   */\n      dup2\n        /* \"#utility.yul\":8971:8975   */\n      dup2\n        /* \"#utility.yul\":8968:8979   */\n      gt\n        /* \"#utility.yul\":8965:9002   */\n      iszero\n      tag_359\n      jumpi\n        /* \"#utility.yul\":8982:9000   */\n      tag_360\n      tag_235\n      jump\t// in\n    tag_360:\n        /* \"#utility.yul\":8965:9002   */\n    tag_359:\n        /* \"#utility.yul\":8815:9009   */\n      swap3\n      swap2\n      pop\n      pop\n      jump\t// out\n        /* \"#utility.yul\":9015:9347   */\n    tag_123:\n        /* \"#utility.yul\":9136:9140   */\n      0x00\n        /* \"#utility.yul\":9174:9176   */\n      0x40\n        /* \"#utility.yul\":9163:9172   */\n      dup3\n        /* \"#utility.yul\":9159:9177   */\n      add\n        /* \"#utility.yul\":9151:9177   */\n      swap1\n      pop\n        /* \"#utility.yul\":9187:9258   */\n      tag_362\n        /* \"#utility.yul\":9255:9256   */\n      0x00\n        /* \"#utility.yul\":9244:9253   */\n      dup4\n        /* \"#utility.yul\":9240:9257   */\n      add\n        /* \"#utility.yul\":9231:9237   */\n      dup6\n        /* \"#utility.yul\":9187:9258   */\n      tag_244\n      jump\t// in\n    tag_362:\n        /* \"#utility.yul\":9268:9340   */\n      tag_363\n        /* \"#utility.yul\":9336:9338   */\n      0x20\n        /* \"#utility.yul\":9325:9334   */\n      dup4\n        /* \"#utility.yul\":9321:9339   */\n      add\n        /* \"#utility.yul\":9312:9318   */\n      dup5\n        /* \"#utility.yul\":9268:9340   */\n      tag_241\n      jump\t// in\n    tag_363:\n        /* \"#utility.yul\":9015:9347   */\n      swap4\n      swap3\n      pop\n      pop\n      pop\n      jump\t// out\n        /* \"#utility.yul\":9353:9443   */\n    tag_257:\n        /* \"#utility.yul\":9387:9394   */\n      0x00\n        /* \"#utility.yul\":9430:9435   */\n      dup2\n        /* \"#utility.yul\":9423:9436   */\n      iszero\n        /* \"#utility.yul\":9416:9437   */\n      iszero\n        /* \"#utility.yul\":9405:9437   */\n      swap1\n      pop\n        /* \"#utility.yul\":9353:9443   */\n      swap2\n      swap1\n      pop\n      jump\t// out\n        /* \"#utility.yul\":9449:9565   */\n    tag_258:\n        /* \"#utility.yul\":9519:9540   */\n      tag_366\n        /* \"#utility.yul\":9534:9539   */\n      dup2\n        /* \"#utility.yul\":9519:9540   */\n      tag_257\n      jump\t// in\n    tag_366:\n        /* \"#utility.yul\":9512:9517   */\n      dup2\n        /* \"#utility.yul\":9509:9541   */\n      eq\n        /* \"#utility.yul\":9499:9559   */\n      tag_367\n      jumpi\n        /* \"#utility.yul\":9555:9556   */\n      0x00\n        /* \"#utility.yul\":9552:9553   */\n      dup1\n        /* \"#utility.yul\":9545:9557   */\n      revert\n        /* \"#utility.yul\":9499:9559   */\n    tag_367:\n        /* \"#utility.yul\":9449:9565   */\n      pop\n      jump\t// out\n        /* \"#utility.yul\":9571:9708   */\n    tag_259:\n        /* \"#utility.yul\":9625:9630   */\n      0x00\n        /* \"#utility.yul\":9656:9662   */\n      dup2\n        /* \"#utility.yul\":9650:9663   */\n      mload\n        /* \"#utility.yul\":9641:9663   */\n      swap1\n      pop\n        /* \"#utility.yul\":9672:9702   */\n      tag_369\n        /* \"#utility.yul\":9696:9701   */\n      dup2\n        /* \"#utility.yul\":9672:9702   */\n      tag_258\n      jump\t// in\n    tag_369:\n        /* \"#utility.yul\":9571:9708   */\n      swap3\n      swap2\n      pop\n      pop\n      jump\t// out\n        /* \"#utility.yul\":9714:10059   */\n    tag_127:\n        /* \"#utility.yul\":9781:9787   */\n      0x00\n        /* \"#utility.yul\":9830:9832   */\n      0x20\n        /* \"#utility.yul\":9818:9827   */\n      dup3\n        /* \"#utility.yul\":9809:9816   */\n      dup5\n        /* \"#utility.yul\":9805:9828   */\n      sub\n        /* \"#utility.yul\":9801:9833   */\n      slt\n        /* \"#utility.yul\":9798:9917   */\n      iszero\n      tag_371\n      jumpi\n        /* \"#utility.yul\":9836:9915   */\n      tag_372\n      tag_237\n      jump\t// in\n    tag_372:\n        /* \"#utility.yul\":9798:9917   */\n    tag_371:\n        /* \"#utility.yul\":9956:9957   */\n      0x00\n        /* \"#utility.yul\":9981:10042   */\n      tag_373\n        /* \"#utility.yul\":10034:10041   */\n      dup5\n        /* \"#utility.yul\":10025:10031   */\n      dup3\n        /* \"#utility.yul\":10014:10023   */\n      dup6\n        /* \"#utility.yul\":10010:10032   */\n      add\n        /* \"#utility.yul\":9981:10042   */\n      tag_259\n      jump\t// in\n    tag_373:\n        /* \"#utility.yul\":9971:10042   */\n      swap2\n      pop\n        /* \"#utility.yul\":9927:10052   */\n      pop\n        /* \"#utility.yul\":9714:10059   */\n      swap3\n      swap2\n      pop\n      pop\n      jump\t// out\n        /* \"#utility.yul\":10065:10236   */\n    tag_260:\n        /* \"#utility.yul\":10205:10228   */\n      0x4552433230207472616e73666572206661696c65640000000000000000000000\n        /* \"#utility.yul\":10201:10202   */\n      0x00\n        /* \"#utility.yul\":10193:10199   */\n      dup3\n        /* \"#utility.yul\":10189:10203   */\n      add\n        /* \"#utility.yul\":10182:10229   */\n      mstore\n        /* \"#utility.yul\":10065:10236   */\n      pop\n      jump\t// out\n        /* \"#utility.yul\":10242:10608   */\n    tag_261:\n        /* \"#utility.yul\":10384:10387   */\n      0x00\n        /* \"#utility.yul\":10405:10472   */\n      tag_376\n        /* \"#utility.yul\":10469:10471   */\n      0x15\n        /* \"#utility.yul\":10464:10467   */\n      dup4\n        /* \"#utility.yul\":10405:10472   */\n      tag_245\n      jump\t// in\n    tag_376:\n        /* \"#utility.yul\":10398:10472   */\n      swap2\n      pop\n        /* \"#utility.yul\":10481:10574   */\n      tag_377\n        /* \"#utility.yul\":10570:10573   */\n      dup3\n        /* \"#utility.yul\":10481:10574   */\n      tag_260\n      jump\t// in\n    tag_377:\n        /* \"#utility.yul\":10599:10601   */\n      0x20\n        /* \"#utility.yul\":10594:10597   */\n      dup3\n        /* \"#utility.yul\":10590:10602   */\n      add\n        /* \"#utility.yul\":10583:10602   */\n      swap1\n      pop\n        /* \"#utility.yul\":10242:10608   */\n      swap2\n      swap1\n      pop\n      jump\t// out\n        /* \"#utility.yul\":10614:11033   */\n    tag_130:\n        /* \"#utility.yul\":10780:10784   */\n      0x00\n        /* \"#utility.yul\":10818:10820   */\n      0x20\n        /* \"#utility.yul\":10807:10816   */\n      dup3\n        /* \"#utility.yul\":10803:10821   */\n      add\n        /* \"#utility.yul\":10795:10821   */\n      swap1\n      pop\n        /* \"#utility.yul\":10867:10876   */\n      dup2\n        /* \"#utility.yul\":10861:10865   */\n      dup2\n        /* \"#utility.yul\":10857:10877   */\n      sub\n        /* \"#utility.yul\":10853:10854   */\n      0x00\n        /* \"#utility.yul\":10842:10851   */\n      dup4\n        /* \"#utility.yul\":10838:10855   */\n      add\n        /* \"#utility.yul\":10831:10878   */\n      mstore\n        /* \"#utility.yul\":10895:11026   */\n      tag_379\n        /* \"#utility.yul\":11021:11025   */\n      dup2\n        /* \"#utility.yul\":10895:11026   */\n      tag_261\n      jump\t// in\n    tag_379:\n        /* \"#utility.yul\":10887:11026   */\n      swap1\n      pop\n        /* \"#utility.yul\":10614:11033   */\n      swap2\n      swap1\n      pop\n      jump\t// out\n        /* \"#utility.yul\":11039:11481   */\n    tag_132:\n        /* \"#utility.yul\":11188:11192   */\n      0x00\n        /* \"#utility.yul\":11226:11228   */\n      0x60\n        /* \"#utility.yul\":11215:11224   */\n      dup3\n        /* \"#utility.yul\":11211:11229   */\n      add\n        /* \"#utility.yul\":11203:11229   */\n      swap1\n      pop\n        /* \"#utility.yul\":11239:11310   */\n      tag_381\n        /* \"#utility.yul\":11307:11308   */\n      0x00\n        /* \"#utility.yul\":11296:11305   */\n      dup4\n        /* \"#utility.yul\":11292:11309   */\n      add\n        /* \"#utility.yul\":11283:11289   */\n      dup7\n        /* \"#utility.yul\":11239:11310   */\n      tag_241\n      jump\t// in\n    tag_381:\n        /* \"#utility.yul\":11320:11392   */\n      tag_382\n        /* \"#utility.yul\":11388:11390   */\n      0x20\n        /* \"#utility.yul\":11377:11386   */\n      dup4\n        /* \"#utility.yul\":11373:11391   */\n      add\n        /* \"#utility.yul\":11364:11370   */\n      dup6\n        /* \"#utility.yul\":11320:11392   */\n      tag_241\n      jump\t// in\n    tag_382:\n        /* \"#utility.yul\":11402:11474   */\n      tag_383\n        /* \"#utility.yul\":11470:11472   */\n      0x40\n        /* \"#utility.yul\":11459:11468   */\n      dup4\n        /* \"#utility.yul\":11455:11473   */\n      add\n        /* \"#utility.yul\":11446:11452   */\n      dup5\n        /* \"#utility.yul\":11402:11474   */\n      tag_241\n      jump\t// in\n    tag_383:\n        /* \"#utility.yul\":11039:11481   */\n      swap5\n      swap4\n      pop\n      pop\n      pop\n      pop\n      jump\t// out\n        /* \"#utility.yul\":11487:11721   */\n    tag_262:\n        /* \"#utility.yul\":11627:11661   */\n      0x54686520616d6f756e74206f662045746820746f6b656e73206d757374206265\n        /* \"#utility.yul\":11623:11624   */\n      0x00\n        /* \"#utility.yul\":11615:11621   */\n      dup3\n        /* \"#utility.yul\":11611:11625   */\n      add\n        /* \"#utility.yul\":11604:11662   */\n      mstore\n        /* \"#utility.yul\":11696:11713   */\n      0x2067726561746572207468616e20300000000000000000000000000000000000\n        /* \"#utility.yul\":11691:11693   */\n      0x20\n        /* \"#utility.yul\":11683:11689   */\n      dup3\n        /* \"#utility.yul\":11679:11694   */\n      add\n        /* \"#utility.yul\":11672:11714   */\n      mstore\n        /* \"#utility.yul\":11487:11721   */\n      pop\n      jump\t// out\n        /* \"#utility.yul\":11727:12093   */\n    tag_263:\n        /* \"#utility.yul\":11869:11872   */\n      0x00\n        /* \"#utility.yul\":11890:11957   */\n      tag_386\n        /* \"#utility.yul\":11954:11956   */\n      0x2f\n        /* \"#utility.yul\":11949:11952   */\n      dup4\n        /* \"#utility.yul\":11890:11957   */\n      tag_245\n      jump\t// in\n    tag_386:\n        /* \"#utility.yul\":11883:11957   */\n      swap2\n      pop\n        /* \"#utility.yul\":11966:12059   */\n      tag_387\n        /* \"#utility.yul\":12055:12058   */\n      dup3\n        /* \"#utility.yul\":11966:12059   */\n      tag_262\n      jump\t// in\n    tag_387:\n        /* \"#utility.yul\":12084:12086   */\n      0x40\n        /* \"#utility.yul\":12079:12082   */\n      dup3\n        /* \"#utility.yul\":12075:12087   */\n      add\n        /* \"#utility.yul\":12068:12087   */\n      swap1\n      pop\n        /* \"#utility.yul\":11727:12093   */\n      swap2\n      swap1\n      pop\n      jump\t// out\n        /* \"#utility.yul\":12099:12518   */\n    tag_147:\n        /* \"#utility.yul\":12265:12269   */\n      0x00\n        /* \"#utility.yul\":12303:12305   */\n      0x20\n        /* \"#utility.yul\":12292:12301   */\n      dup3\n        /* \"#utility.yul\":12288:12306   */\n      add\n        /* \"#utility.yul\":12280:12306   */\n      swap1\n      pop\n        /* \"#utility.yul\":12352:12361   */\n      dup2\n        /* \"#utility.yul\":12346:12350   */\n      dup2\n        /* \"#utility.yul\":12342:12362   */\n      sub\n        /* \"#utility.yul\":12338:12339   */\n      0x00\n        /* \"#utility.yul\":12327:12336   */\n      dup4\n        /* \"#utility.yul\":12323:12340   */\n      add\n        /* \"#utility.yul\":12316:12363   */\n      mstore\n        /* \"#utility.yul\":12380:12511   */\n      tag_389\n        /* \"#utility.yul\":12506:12510   */\n      dup2\n        /* \"#utility.yul\":12380:12511   */\n      tag_263\n      jump\t// in\n    tag_389:\n        /* \"#utility.yul\":12372:12511   */\n      swap1\n      pop\n        /* \"#utility.yul\":12099:12518   */\n      swap2\n      swap1\n      pop\n      jump\t// out\n        /* \"#utility.yul\":12524:12704   */\n    tag_264:\n        /* \"#utility.yul\":12664:12696   */\n      0x43616c6c657220646f65736e2774206861766520656e6f756768204574680000\n        /* \"#utility.yul\":12660:12661   */\n      0x00\n        /* \"#utility.yul\":12652:12658   */\n      dup3\n        /* \"#utility.yul\":12648:12662   */\n      add\n        /* \"#utility.yul\":12641:12697   */\n      mstore\n        /* \"#utility.yul\":12524:12704   */\n      pop\n      jump\t// out\n        /* \"#utility.yul\":12710:13076   */\n    tag_265:\n        /* \"#utility.yul\":12852:12855   */\n      0x00\n        /* \"#utility.yul\":12873:12940   */\n      tag_392\n        /* \"#utility.yul\":12937:12939   */\n      0x1e\n        /* \"#utility.yul\":12932:12935   */\n      dup4\n        /* \"#utility.yul\":12873:12940   */\n      tag_245\n      jump\t// in\n    tag_392:\n        /* \"#utility.yul\":12866:12940   */\n      swap2\n      pop\n        /* \"#utility.yul\":12949:13042   */\n      tag_393\n        /* \"#utility.yul\":13038:13041   */\n      dup3\n        /* \"#utility.yul\":12949:13042   */\n      tag_264\n      jump\t// in\n    tag_393:\n        /* \"#utility.yul\":13067:13069   */\n      0x20\n        /* \"#utility.yul\":13062:13065   */\n      dup3\n        /* \"#utility.yul\":13058:13070   */\n      add\n        /* \"#utility.yul\":13051:13070   */\n      swap1\n      pop\n        /* \"#utility.yul\":12710:13076   */\n      swap2\n      swap1\n      pop\n      jump\t// out\n        /* \"#utility.yul\":13082:13501   */\n    tag_150:\n        /* \"#utility.yul\":13248:13252   */\n      0x00\n        /* \"#utility.yul\":13286:13288   */\n      0x20\n        /* \"#utility.yul\":13275:13284   */\n      dup3\n        /* \"#utility.yul\":13271:13289   */\n      add\n        /* \"#utility.yul\":13263:13289   */\n      swap1\n      pop\n        /* \"#utility.yul\":13335:13344   */\n      dup2\n        /* \"#utility.yul\":13329:13333   */\n      dup2\n        /* \"#utility.yul\":13325:13345   */\n      sub\n        /* \"#utility.yul\":13321:13322   */\n      0x00\n        /* \"#utility.yul\":13310:13319   */\n      dup4\n        /* \"#utility.yul\":13306:13323   */\n      add\n        /* \"#utility.yul\":13299:13346   */\n      mstore\n        /* \"#utility.yul\":13363:13494   */\n      tag_395\n        /* \"#utility.yul\":13489:13493   */\n      dup2\n        /* \"#utility.yul\":13363:13494   */\n      tag_265\n      jump\t// in\n    tag_395:\n        /* \"#utility.yul\":13355:13494   */\n      swap1\n      pop\n        /* \"#utility.yul\":13082:13501   */\n      swap2\n      swap1\n      pop\n      jump\t// out\n        /* \"#utility.yul\":13507:13751   */\n    tag_266:\n        /* \"#utility.yul\":13647:13681   */\n      0x54686520616d6f756e74206f6620455243323020746f6b656e7320746f207377\n        /* \"#utility.yul\":13643:13644   */\n      0x00\n        /* \"#utility.yul\":13635:13641   */\n      dup3\n        /* \"#utility.yul\":13631:13645   */\n      add\n        /* \"#utility.yul\":13624:13682   */\n      mstore\n        /* \"#utility.yul\":13716:13743   */\n      0x6170206d7573742062652067726561746572207468616e203000000000000000\n        /* \"#utility.yul\":13711:13713   */\n      0x20\n        /* \"#utility.yul\":13703:13709   */\n      dup3\n        /* \"#utility.yul\":13699:13714   */\n      add\n        /* \"#utility.yul\":13692:13744   */\n      mstore\n        /* \"#utility.yul\":13507:13751   */\n      pop\n      jump\t// out\n        /* \"#utility.yul\":13757:14123   */\n    tag_267:\n        /* \"#utility.yul\":13899:13902   */\n      0x00\n        /* \"#utility.yul\":13920:13987   */\n      tag_398\n        /* \"#utility.yul\":13984:13986   */\n      0x39\n        /* \"#utility.yul\":13979:13982   */\n      dup4\n        /* \"#utility.yul\":13920:13987   */\n      tag_245\n      jump\t// in\n    tag_398:\n        /* \"#utility.yul\":13913:13987   */\n      swap2\n      pop\n        /* \"#utility.yul\":13996:14089   */\n      tag_399\n        /* \"#utility.yul\":14085:14088   */\n      dup3\n        /* \"#utility.yul\":13996:14089   */\n      tag_266\n      jump\t// in\n    tag_399:\n        /* \"#utility.yul\":14114:14116   */\n      0x40\n        /* \"#utility.yul\":14109:14112   */\n      dup3\n        /* \"#utility.yul\":14105:14117   */\n      add\n        /* \"#utility.yul\":14098:14117   */\n      swap1\n      pop\n        /* \"#utility.yul\":13757:14123   */\n      swap2\n      swap1\n      pop\n      jump\t// out\n        /* \"#utility.yul\":14129:14548   */\n    tag_170:\n        /* \"#utility.yul\":14295:14299   */\n      0x00\n        /* \"#utility.yul\":14333:14335   */\n      0x20\n        /* \"#utility.yul\":14322:14331   */\n      dup3\n        /* \"#utility.yul\":14318:14336   */\n      add\n        /* \"#utility.yul\":14310:14336   */\n      swap1\n      pop\n        /* \"#utility.yul\":14382:14391   */\n      dup2\n        /* \"#utility.yul\":14376:14380   */\n      dup2\n        /* \"#utility.yul\":14372:14392   */\n      sub\n        /* \"#utility.yul\":14368:14369   */\n      0x00\n        /* \"#utility.yul\":14357:14366   */\n      dup4\n        /* \"#utility.yul\":14353:14370   */\n      add\n        /* \"#utility.yul\":14346:14393   */\n      mstore\n        /* \"#utility.yul\":14410:14541   */\n      tag_401\n        /* \"#utility.yul\":14536:14540   */\n      dup2\n        /* \"#utility.yul\":14410:14541   */\n      tag_267\n      jump\t// in\n    tag_401:\n        /* \"#utility.yul\":14402:14541   */\n      swap1\n      pop\n        /* \"#utility.yul\":14129:14548   */\n      swap2\n      swap1\n      pop\n      jump\t// out\n        /* \"#utility.yul\":14554:14697   */\n    tag_268:\n        /* \"#utility.yul\":14611:14616   */\n      0x00\n        /* \"#utility.yul\":14642:14648   */\n      dup2\n        /* \"#utility.yul\":14636:14649   */\n      mload\n        /* \"#utility.yul\":14627:14649   */\n      swap1\n      pop\n        /* \"#utility.yul\":14658:14691   */\n      tag_403\n        /* \"#utility.yul\":14685:14690   */\n      dup2\n        /* \"#utility.yul\":14658:14691   */\n      tag_239\n      jump\t// in\n    tag_403:\n        /* \"#utility.yul\":14554:14697   */\n      swap3\n      swap2\n      pop\n      pop\n      jump\t// out\n        /* \"#utility.yul\":14703:15054   */\n    tag_175:\n        /* \"#utility.yul\":14773:14779   */\n      0x00\n        /* \"#utility.yul\":14822:14824   */\n      0x20\n        /* \"#utility.yul\":14810:14819   */\n      dup3\n        /* \"#utility.yul\":14801:14808   */\n      dup5\n        /* \"#utility.yul\":14797:14820   */\n      sub\n        /* \"#utility.yul\":14793:14825   */\n      slt\n        /* \"#utility.yul\":14790:14909   */\n      iszero\n      tag_405\n      jumpi\n        /* \"#utility.yul\":14828:14907   */\n      tag_406\n      tag_237\n      jump\t// in\n    tag_406:\n        /* \"#utility.yul\":14790:14909   */\n    tag_405:\n        /* \"#utility.yul\":14948:14949   */\n      0x00\n        /* \"#utility.yul\":14973:15037   */\n      tag_407\n        /* \"#utility.yul\":15029:15036   */\n      dup5\n        /* \"#utility.yul\":15020:15026   */\n      dup3\n        /* \"#utility.yul\":15009:15018   */\n      dup6\n        /* \"#utility.yul\":15005:15027   */\n      add\n        /* \"#utility.yul\":14973:15037   */\n      tag_268\n      jump\t// in\n    tag_407:\n        /* \"#utility.yul\":14963:15037   */\n      swap2\n      pop\n        /* \"#utility.yul\":14919:15047   */\n      pop\n        /* \"#utility.yul\":14703:15054   */\n      swap3\n      swap2\n      pop\n      pop\n      jump\t// out\n        /* \"#utility.yul\":15060:15286   */\n    tag_269:\n        /* \"#utility.yul\":15200:15234   */\n      0x43616c6c657220646f65736e2774206861766520656e6f756768204552433230\n        /* \"#utility.yul\":15196:15197   */\n      0x00\n        /* \"#utility.yul\":15188:15194   */\n      dup3\n        /* \"#utility.yul\":15184:15198   */\n      add\n        /* \"#utility.yul\":15177:15235   */\n      mstore\n        /* \"#utility.yul\":15269:15278   */\n      0x20746f6b656e7300000000000000000000000000000000000000000000000000\n        /* \"#utility.yul\":15264:15266   */\n      0x20\n        /* \"#utility.yul\":15256:15262   */\n      dup3\n        /* \"#utility.yul\":15252:15267   */\n      add\n        /* \"#utility.yul\":15245:15279   */\n      mstore\n        /* \"#utility.yul\":15060:15286   */\n      pop\n      jump\t// out\n        /* \"#utility.yul\":15292:15658   */\n    tag_270:\n        /* \"#utility.yul\":15434:15437   */\n      0x00\n        /* \"#utility.yul\":15455:15522   */\n      tag_410\n        /* \"#utility.yul\":15519:15521   */\n      0x27\n        /* \"#utility.yul\":15514:15517   */\n      dup4\n        /* \"#utility.yul\":15455:15522   */\n      tag_245\n      jump\t// in\n    tag_410:\n        /* \"#utility.yul\":15448:15522   */\n      swap2\n      pop\n        /* \"#utility.yul\":15531:15624   */\n      tag_411\n        /* \"#utility.yul\":15620:15623   */\n      dup3\n        /* \"#utility.yul\":15531:15624   */\n      tag_269\n      jump\t// in\n    tag_411:\n        /* \"#utility.yul\":15649:15651   */\n      0x40\n        /* \"#utility.yul\":15644:15647   */\n      dup3\n        /* \"#utility.yul\":15640:15652   */\n      add\n        /* \"#utility.yul\":15633:15652   */\n      swap1\n      pop\n        /* \"#utility.yul\":15292:15658   */\n      swap2\n      swap1\n      pop\n      jump\t// out\n        /* \"#utility.yul\":15664:16083   */\n    tag_178:\n        /* \"#utility.yul\":15830:15834   */\n      0x00\n        /* \"#utility.yul\":15868:15870   */\n      0x20\n        /* \"#utility.yul\":15857:15866   */\n      dup3\n        /* \"#utility.yul\":15853:15871   */\n      add\n        /* \"#utility.yul\":15845:15871   */\n      swap1\n      pop\n        /* \"#utility.yul\":15917:15926   */\n      dup2\n        /* \"#utility.yul\":15911:15915   */\n      dup2\n        /* \"#utility.yul\":15907:15927   */\n      sub\n        /* \"#utility.yul\":15903:15904   */\n      0x00\n        /* \"#utility.yul\":15892:15901   */\n      dup4\n        /* \"#utility.yul\":15888:15905   */\n      add\n        /* \"#utility.yul\":15881:15928   */\n      mstore\n        /* \"#utility.yul\":15945:16076   */\n      tag_413\n        /* \"#utility.yul\":16071:16075   */\n      dup2\n        /* \"#utility.yul\":15945:16076   */\n      tag_270\n      jump\t// in\n    tag_413:\n        /* \"#utility.yul\":15937:16076   */\n      swap1\n      pop\n        /* \"#utility.yul\":15664:16083   */\n      swap2\n      swap1\n      pop\n      jump\t// out\n        /* \"#utility.yul\":16089:16271   */\n    tag_271:\n        /* \"#utility.yul\":16229:16263   */\n      0x4e6f7420656e6f75676820657468657220696e2074686520636f6e7472616374\n        /* \"#utility.yul\":16225:16226   */\n      0x00\n        /* \"#utility.yul\":16217:16223   */\n      dup3\n        /* \"#utility.yul\":16213:16227   */\n      add\n        /* \"#utility.yul\":16206:16264   */\n      mstore\n        /* \"#utility.yul\":16089:16271   */\n      pop\n      jump\t// out\n        /* \"#utility.yul\":16277:16643   */\n    tag_272:\n        /* \"#utility.yul\":16419:16422   */\n      0x00\n        /* \"#utility.yul\":16440:16507   */\n      tag_416\n        /* \"#utility.yul\":16504:16506   */\n      0x20\n        /* \"#utility.yul\":16499:16502   */\n      dup4\n        /* \"#utility.yul\":16440:16507   */\n      tag_245\n      jump\t// in\n    tag_416:\n        /* \"#utility.yul\":16433:16507   */\n      swap2\n      pop\n        /* \"#utility.yul\":16516:16609   */\n      tag_417\n        /* \"#utility.yul\":16605:16608   */\n      dup3\n        /* \"#utility.yul\":16516:16609   */\n      tag_271\n      jump\t// in\n    tag_417:\n        /* \"#utility.yul\":16634:16636   */\n      0x20\n        /* \"#utility.yul\":16629:16632   */\n      dup3\n        /* \"#utility.yul\":16625:16637   */\n      add\n        /* \"#utility.yul\":16618:16637   */\n      swap1\n      pop\n        /* \"#utility.yul\":16277:16643   */\n      swap2\n      swap1\n      pop\n      jump\t// out\n        /* \"#utility.yul\":16649:17068   */\n    tag_184:\n        /* \"#utility.yul\":16815:16819   */\n      0x00\n        /* \"#utility.yul\":16853:16855   */\n      0x20\n        /* \"#utility.yul\":16842:16851   */\n      dup3\n        /* \"#utility.yul\":16838:16856   */\n      add\n        /* \"#utility.yul\":16830:16856   */\n      swap1\n      pop\n        /* \"#utility.yul\":16902:16911   */\n      dup2\n        /* \"#utility.yul\":16896:16900   */\n      dup2\n        /* \"#utility.yul\":16892:16912   */\n      sub\n        /* \"#utility.yul\":16888:16889   */\n      0x00\n        /* \"#utility.yul\":16877:16886   */\n      dup4\n        /* \"#utility.yul\":16873:16890   */\n      add\n        /* \"#utility.yul\":16866:16913   */\n      mstore\n        /* \"#utility.yul\":16930:17061   */\n      tag_419\n        /* \"#utility.yul\":17056:17060   */\n      dup2\n        /* \"#utility.yul\":16930:17061   */\n      tag_272\n      jump\t// in\n    tag_419:\n        /* \"#utility.yul\":16922:17061   */\n      swap1\n      pop\n        /* \"#utility.yul\":16649:17068   */\n      swap2\n      swap1\n      pop\n      jump\t// out\n        /* \"#utility.yul\":17074:17516   */\n    tag_189:\n        /* \"#utility.yul\":17223:17227   */\n      0x00\n        /* \"#utility.yul\":17261:17263   */\n      0x60\n        /* \"#utility.yul\":17250:17259   */\n      dup3\n        /* \"#utility.yul\":17246:17264   */\n      add\n        /* \"#utility.yul\":17238:17264   */\n      swap1\n      pop\n        /* \"#utility.yul\":17274:17345   */\n      tag_421\n        /* \"#utility.yul\":17342:17343   */\n      0x00\n        /* \"#utility.yul\":17331:17340   */\n      dup4\n        /* \"#utility.yul\":17327:17344   */\n      add\n        /* \"#utility.yul\":17318:17324   */\n      dup7\n        /* \"#utility.yul\":17274:17345   */\n      tag_244\n      jump\t// in\n    tag_421:\n        /* \"#utility.yul\":17355:17427   */\n      tag_422\n        /* \"#utility.yul\":17423:17425   */\n      0x20\n        /* \"#utility.yul\":17412:17421   */\n      dup4\n        /* \"#utility.yul\":17408:17426   */\n      add\n        /* \"#utility.yul\":17399:17405   */\n      dup6\n        /* \"#utility.yul\":17355:17427   */\n      tag_244\n      jump\t// in\n    tag_422:\n        /* \"#utility.yul\":17437:17509   */\n      tag_423\n        /* \"#utility.yul\":17505:17507   */\n      0x40\n        /* \"#utility.yul\":17494:17503   */\n      dup4\n        /* \"#utility.yul\":17490:17508   */\n      add\n        /* \"#utility.yul\":17481:17487   */\n      dup5\n        /* \"#utility.yul\":17437:17509   */\n      tag_241\n      jump\t// in\n    tag_423:\n        /* \"#utility.yul\":17074:17516   */\n      swap5\n      swap4\n      pop\n      pop\n      pop\n      pop\n      jump\t// out\n        /* \"#utility.yul\":17522:17703   */\n    tag_273:\n        /* \"#utility.yul\":17662:17695   */\n      0x596f75206d757374206465706f736974204552432d323020746f6b656e732e00\n        /* \"#utility.yul\":17658:17659   */\n      0x00\n        /* \"#utility.yul\":17650:17656   */\n      dup3\n        /* \"#utility.yul\":17646:17660   */\n      add\n        /* \"#utility.yul\":17639:17696   */\n      mstore\n        /* \"#utility.yul\":17522:17703   */\n      pop\n      jump\t// out\n        /* \"#utility.yul\":17709:18075   */\n    tag_274:\n        /* \"#utility.yul\":17851:17854   */\n      0x00\n        /* \"#utility.yul\":17872:17939   */\n      tag_426\n        /* \"#utility.yul\":17936:17938   */\n      0x1f\n        /* \"#utility.yul\":17931:17934   */\n      dup4\n        /* \"#utility.yul\":17872:17939   */\n      tag_245\n      jump\t// in\n    tag_426:\n        /* \"#utility.yul\":17865:17939   */\n      swap2\n      pop\n        /* \"#utility.yul\":17948:18041   */\n      tag_427\n        /* \"#utility.yul\":18037:18040   */\n      dup3\n        /* \"#utility.yul\":17948:18041   */\n      tag_273\n      jump\t// in\n    tag_427:\n        /* \"#utility.yul\":18066:18068   */\n      0x20\n        /* \"#utility.yul\":18061:18064   */\n      dup3\n        /* \"#utility.yul\":18057:18069   */\n      add\n        /* \"#utility.yul\":18050:18069   */\n      swap1\n      pop\n        /* \"#utility.yul\":17709:18075   */\n      swap2\n      swap1\n      pop\n      jump\t// out\n        /* \"#utility.yul\":18081:18500   */\n    tag_202:\n        /* \"#utility.yul\":18247:18251   */\n      0x00\n        /* \"#utility.yul\":18285:18287   */\n      0x20\n        /* \"#utility.yul\":18274:18283   */\n      dup3\n        /* \"#utility.yul\":18270:18288   */\n      add\n        /* \"#utility.yul\":18262:18288   */\n      swap1\n      pop\n        /* \"#utility.yul\":18334:18343   */\n      dup2\n        /* \"#utility.yul\":18328:18332   */\n      dup2\n        /* \"#utility.yul\":18324:18344   */\n      sub\n        /* \"#utility.yul\":18320:18321   */\n      0x00\n        /* \"#utility.yul\":18309:18318   */\n      dup4\n        /* \"#utility.yul\":18305:18322   */\n      add\n        /* \"#utility.yul\":18298:18345   */\n      mstore\n        /* \"#utility.yul\":18362:18493   */\n      tag_429\n        /* \"#utility.yul\":18488:18492   */\n      dup2\n        /* \"#utility.yul\":18362:18493   */\n      tag_274\n      jump\t// in\n    tag_429:\n        /* \"#utility.yul\":18354:18493   */\n      swap1\n      pop\n        /* \"#utility.yul\":18081:18500   */\n      swap2\n      swap1\n      pop\n      jump\t// out\n        /* \"#utility.yul\":18506:18733   */\n    tag_275:\n        /* \"#utility.yul\":18646:18680   */\n      0x43616c6c657220646f6573206e6f74206861766520656e6f7567682045524332\n        /* \"#utility.yul\":18642:18643   */\n      0x00\n        /* \"#utility.yul\":18634:18640   */\n      dup3\n        /* \"#utility.yul\":18630:18644   */\n      add\n        /* \"#utility.yul\":18623:18681   */\n      mstore\n        /* \"#utility.yul\":18715:18725   */\n      0x3020746f6b656e73000000000000000000000000000000000000000000000000\n        /* \"#utility.yul\":18710:18712   */\n      0x20\n        /* \"#utility.yul\":18702:18708   */\n      dup3\n        /* \"#utility.yul\":18698:18713   */\n      add\n        /* \"#utility.yul\":18691:18726   */\n      mstore\n        /* \"#utility.yul\":18506:18733   */\n      pop\n      jump\t// out\n        /* \"#utility.yul\":18739:19105   */\n    tag_276:\n        /* \"#utility.yul\":18881:18884   */\n      0x00\n        /* \"#utility.yul\":18902:18969   */\n      tag_432\n        /* \"#utility.yul\":18966:18968   */\n      0x28\n        /* \"#utility.yul\":18961:18964   */\n      dup4\n        /* \"#utility.yul\":18902:18969   */\n      tag_245\n      jump\t// in\n    tag_432:\n        /* \"#utility.yul\":18895:18969   */\n      swap2\n      pop\n        /* \"#utility.yul\":18978:19071   */\n      tag_433\n        /* \"#utility.yul\":19067:19070   */\n      dup3\n        /* \"#utility.yul\":18978:19071   */\n      tag_275\n      jump\t// in\n    tag_433:\n        /* \"#utility.yul\":19096:19098   */\n      0x40\n        /* \"#utility.yul\":19091:19094   */\n      dup3\n        /* \"#utility.yul\":19087:19099   */\n      add\n        /* \"#utility.yul\":19080:19099   */\n      swap1\n      pop\n        /* \"#utility.yul\":18739:19105   */\n      swap2\n      swap1\n      pop\n      jump\t// out\n        /* \"#utility.yul\":19111:19530   */\n    tag_209:\n        /* \"#utility.yul\":19277:19281   */\n      0x00\n        /* \"#utility.yul\":19315:19317   */\n      0x20\n        /* \"#utility.yul\":19304:19313   */\n      dup3\n        /* \"#utility.yul\":19300:19318   */\n      add\n        /* \"#utility.yul\":19292:19318   */\n      swap1\n      pop\n        /* \"#utility.yul\":19364:19373   */\n      dup2\n        /* \"#utility.yul\":19358:19362   */\n      dup2\n        /* \"#utility.yul\":19354:19374   */\n      sub\n        /* \"#utility.yul\":19350:19351   */\n      0x00\n        /* \"#utility.yul\":19339:19348   */\n      dup4\n        /* \"#utility.yul\":19335:19352   */\n      add\n        /* \"#utility.yul\":19328:19375   */\n      mstore\n        /* \"#utility.yul\":19392:19523   */\n      tag_435\n        /* \"#utility.yul\":19518:19522   */\n      dup2\n        /* \"#utility.yul\":19392:19523   */\n      tag_276\n      jump\t// in\n    tag_435:\n        /* \"#utility.yul\":19384:19523   */\n      swap1\n      pop\n        /* \"#utility.yul\":19111:19530   */\n      swap2\n      swap1\n      pop\n      jump\t// out\n        /* \"#utility.yul\":19536:19756   */\n    tag_277:\n        /* \"#utility.yul\":19676:19710   */\n      0x43616c6c657220646f6573206e6f74206861766520656e6f7567682065746865\n        /* \"#utility.yul\":19672:19673   */\n      0x00\n        /* \"#utility.yul\":19664:19670   */\n      dup3\n        /* \"#utility.yul\":19660:19674   */\n      add\n        /* \"#utility.yul\":19653:19711   */\n      mstore\n        /* \"#utility.yul\":19745:19748   */\n      0x7200000000000000000000000000000000000000000000000000000000000000\n        /* \"#utility.yul\":19740:19742   */\n      0x20\n        /* \"#utility.yul\":19732:19738   */\n      dup3\n        /* \"#utility.yul\":19728:19743   */\n      add\n        /* \"#utility.yul\":19721:19749   */\n      mstore\n        /* \"#utility.yul\":19536:19756   */\n      pop\n      jump\t// out\n        /* \"#utility.yul\":19762:20128   */\n    tag_278:\n        /* \"#utility.yul\":19904:19907   */\n      0x00\n        /* \"#utility.yul\":19925:19992   */\n      tag_438\n        /* \"#utility.yul\":19989:19991   */\n      0x21\n        /* \"#utility.yul\":19984:19987   */\n      dup4\n        /* \"#utility.yul\":19925:19992   */\n      tag_245\n      jump\t// in\n    tag_438:\n        /* \"#utility.yul\":19918:19992   */\n      swap2\n      pop\n        /* \"#utility.yul\":20001:20094   */\n      tag_439\n        /* \"#utility.yul\":20090:20093   */\n      dup3\n        /* \"#utility.yul\":20001:20094   */\n      tag_277\n      jump\t// in\n    tag_439:\n        /* \"#utility.yul\":20119:20121   */\n      0x40\n        /* \"#utility.yul\":20114:20117   */\n      dup3\n        /* \"#utility.yul\":20110:20122   */\n      add\n        /* \"#utility.yul\":20103:20122   */\n      swap1\n      pop\n        /* \"#utility.yul\":19762:20128   */\n      swap2\n      swap1\n      pop\n      jump\t// out\n        /* \"#utility.yul\":20134:20553   */\n    tag_216:\n        /* \"#utility.yul\":20300:20304   */\n      0x00\n        /* \"#utility.yul\":20338:20340   */\n      0x20\n        /* \"#utility.yul\":20327:20336   */\n      dup3\n        /* \"#utility.yul\":20323:20341   */\n      add\n        /* \"#utility.yul\":20315:20341   */\n      swap1\n      pop\n        /* \"#utility.yul\":20387:20396   */\n      dup2\n        /* \"#utility.yul\":20381:20385   */\n      dup2\n        /* \"#utility.yul\":20377:20397   */\n      sub\n        /* \"#utility.yul\":20373:20374   */\n      0x00\n        /* \"#utility.yul\":20362:20371   */\n      dup4\n        /* \"#utility.yul\":20358:20375   */\n      add\n        /* \"#utility.yul\":20351:20398   */\n      mstore\n        /* \"#utility.yul\":20415:20546   */\n      tag_441\n        /* \"#utility.yul\":20541:20545   */\n      dup2\n        /* \"#utility.yul\":20415:20546   */\n      tag_278\n      jump\t// in\n    tag_441:\n        /* \"#utility.yul\":20407:20546   */\n      swap1\n      pop\n        /* \"#utility.yul\":20134:20553   */\n      swap2\n      swap1\n      pop\n      jump\t// out\n\n    auxdata: 0xa2646970667358221220e7631a9382081d216bb946b1f58a16e639e1f09e11ff37fe00a34f8e7cc721f464736f6c63430008120033\n}\n",
				"bytecode": {
					"linkReferences": {},
					"object": "60806040523480156200001157600080fd5b5060405162001ebf38038062001ebf8339818101604052810190620000379190620000f9565b80600560006101000a81548173ffffffffffffffffffffffffffffffffffffffff021916908373ffffffffffffffffffffffffffffffffffffffff16021790555060006002819055506000600481905550506200012b565b600080fd5b600073ffffffffffffffffffffffffffffffffffffffff82169050919050565b6000620000c18262000094565b9050919050565b620000d381620000b4565b8114620000df57600080fd5b50565b600081519050620000f381620000c8565b92915050565b6000602082840312156200011257620001116200008f565b5b60006200012284828501620000e2565b91505092915050565b611d84806200013b6000396000f3fe6080604052600436106100e15760003560e01c8063ba1f92721161007f578063e0ba200011610059578063e0ba20001461031f578063eb521a4c1461034a578063ed7bf8681461037a578063f835cd3c146103b7576100ff565b8063ba1f92721461027a578063c8ab8325146102b7578063c9691034146102f4576100ff565b80635d58ce36116100bb5780635d58ce36146101aa57806379ed3562146101d5578063903875f714610212578063b4f40c611461024f576100ff565b80630a861f2a146101045780631cde622614610142578063240f3dea1461016d576100ff565b366100ff57346000808282546100f791906112aa565b925050819055005b600080fd5b34801561011057600080fd5b5061012b6004803603810190610126919061130f565b6103e2565b60405161013992919061134b565b60405180910390f35b34801561014e57600080fd5b506101576107a2565b6040516101649190611374565b60405180910390f35b34801561017957600080fd5b50610194600480360381019061018f919061130f565b6107a8565b6040516101a19190611374565b60405180910390f35b3480156101b657600080fd5b506101bf6107d1565b6040516101cc9190611374565b60405180910390f35b3480156101e157600080fd5b506101fc60048036038101906101f7919061130f565b6107d7565b6040516102099190611374565b60405180910390f35b34801561021e57600080fd5b506102396004803603810190610234919061130f565b610819565b6040516102469190611374565b60405180910390f35b34801561025b57600080fd5b5061026461085b565b6040516102719190611374565b60405180910390f35b34801561028657600080fd5b506102a1600480360381019061029c919061130f565b610861565b6040516102ae9190611374565b60405180910390f35b3480156102c357600080fd5b506102de60048036038101906102d9919061130f565b610ad2565b6040516102eb9190611374565b60405180910390f35b34801561030057600080fd5b50610309610e16565b6040516103169190611374565b60405180910390f35b34801561032b57600080fd5b50610334610e1c565b6040516103419190611374565b60405180910390f35b610364600480360381019061035f919061130f565b610e63565b6040516103719190611374565b60405180910390f35b34801561038657600080fd5b506103a1600480360381019061039c919061130f565b611222565b6040516103ae9190611374565b60405180910390f35b3480156103c357600080fd5b506103cc61124b565b6040516103d991906113d0565b60405180910390f35b60008060008311610428576040517f08c379a000000000000000000000000000000000000000000000000000000000815260040161041f9061146e565b60405180910390fd5b610430610e1c565b831115610472576040517f08c379a000000000000000000000000000000000000000000000000000000000815260040161046990611500565b60405180910390fd5b60025483106104b6576040517f08c379a00000000000000000000000000000000000000000000000000000000081526004016104ad90611592565b60405180910390fd5b6000600254600054856104c991906115b2565b6104d39190611623565b90506000600254600154866104e891906115b2565b6104f29190611623565b9050600054821115610539576040517f08c379a0000000000000000000000000000000000000000000000000000000008152600401610530906116a0565b60405180910390fd5b60015481111561057e576040517f08c379a000000000000000000000000000000000000000000000000000000000815260040161057590611732565b60405180910390fd5b84600360003373ffffffffffffffffffffffffffffffffffffffff1673ffffffffffffffffffffffffffffffffffffffff16815260200190815260200160002060008282546105cd9190611752565b9250508190555084600260008282546105e69190611752565b92505081905550816000808282546105fe9190611752565b9250508190555080600160008282546106179190611752565b9250508190555060015460005461062e91906115b2565b6004819055503373ffffffffffffffffffffffffffffffffffffffff166108fc839081150290604051600060405180830381858888f1935050505015801561067a573d6000803e3d6000fd5b50600560009054906101000a900473ffffffffffffffffffffffffffffffffffffffff1673ffffffffffffffffffffffffffffffffffffffff1663a9059cbb33836040518363ffffffff1660e01b81526004016106d8929190611786565b6020604051808303816000875af11580156106f7573d6000803e3d6000fd5b505050506040513d601f19601f8201168201806040525081019061071b91906117e7565b61075a576040517f08c379a000000000000000000000000000000000000000000000000000000000815260040161075190611860565b60405180910390fd5b7fb14f451e613015c13a17c78777f1d87fcb448d7330d67299a09b8f2db38aab1081838760405161078d93929190611880565b60405180910390a18082935093505050915091565b60025481565b600080600154836000546107bc91906115b2565b6107c69190611623565b905080915050919050565b60005481565b600080826000546107e891906112aa565b90506000816004546107fa9190611623565b905060008160015461080c9190611752565b9050809350505050919050565b6000808260015461082a91906112aa565b905060008160045461083c9190611623565b905060008160005461084e9190611752565b9050809350505050919050565b60045481565b60008082116108a5576040517f08c379a000000000000000000000000000000000000000000000000000000000815260040161089c90611929565b60405180910390fd5b478211156108e8576040517f08c379a00000000000000000000000000000000000000000000000000000000081526004016108df90611995565b60405180910390fd5b6000826000546108f891906112aa565b6004546109059190611623565b6001546109129190611752565b9050806001541015610959576040517f08c379a000000000000000000000000000000000000000000000000000000000815260040161095090611732565b60405180910390fd5b8260008082825461096a91906112aa565b9250508190555080600160008282546109839190611752565b9250508190555060015460005461099a91906115b2565b6004819055503073ffffffffffffffffffffffffffffffffffffffff166108fc849081150290604051600060405180830381858888f193505050501580156109e6573d6000803e3d6000fd5b50600560009054906101000a900473ffffffffffffffffffffffffffffffffffffffff1673ffffffffffffffffffffffffffffffffffffffff1663a9059cbb33836040518363ffffffff1660e01b8152600401610a44929190611786565b6020604051808303816000875af1158015610a63573d6000803e3d6000fd5b505050506040513d601f19601f82011682018060405250810190610a8791906117e7565b610a9057600080fd5b7fcdfc57b3d0cdc24b23cea1f480aabea287321f5bee23ad76c2b52fa7982f5ea58184604051610ac192919061134b565b60405180910390a180915050919050565b6000808211610b16576040517f08c379a0000000000000000000000000000000000000000000000000000000008152600401610b0d90611a27565b60405180910390fd5b600560009054906101000a900473ffffffffffffffffffffffffffffffffffffffff1673ffffffffffffffffffffffffffffffffffffffff166370a08231336040518263ffffffff1660e01b8152600401610b7191906113d0565b602060405180830381865afa158015610b8e573d6000803e3d6000fd5b505050506040513d601f19601f82011682018060405250810190610bb29190611a5c565b821115610bf4576040517f08c379a0000000000000000000000000000000000000000000000000000000008152600401610beb90611afb565b60405180910390fd5b600082600154610c0491906112aa565b600454610c119190611623565b600054610c1e9190611752565b9050806000541015610c65576040517f08c379a0000000000000000000000000000000000000000000000000000000008152600401610c5c90611b67565b60405180910390fd5b80600080828254610c769190611752565b925050819055508260016000828254610c8f91906112aa565b92505081905550600154600054610ca691906115b2565b600481905550600560009054906101000a900473ffffffffffffffffffffffffffffffffffffffff1673ffffffffffffffffffffffffffffffffffffffff166323b872dd3330866040518463ffffffff1660e01b8152600401610d0b93929190611b87565b6020604051808303816000875af1158015610d2a573d6000803e3d6000fd5b505050506040513d601f19601f82011682018060405250810190610d4e91906117e7565b610d8d576040517f08c379a0000000000000000000000000000000000000000000000000000000008152600401610d8490611860565b60405180910390fd5b3373ffffffffffffffffffffffffffffffffffffffff166108fc829081150290604051600060405180830381858888f19350505050158015610dd3573d6000803e3d6000fd5b507f3297a389bb586920e62a196af529d5f42651b17a1013d6bfe77f22372a0b21128382604051610e0592919061134b565b60405180910390a180915050919050565b60015481565b6000600360003373ffffffffffffffffffffffffffffffffffffffff1673ffffffffffffffffffffffffffffffffffffffff16815260200190815260200160002054905090565b6000808211610ea7576040517f08c379a0000000000000000000000000000000000000000000000000000000008152600401610e9e90611c0a565b60405180910390fd5b6000600560009054906101000a900473ffffffffffffffffffffffffffffffffffffffff1673ffffffffffffffffffffffffffffffffffffffff166370a08231336040518263ffffffff1660e01b8152600401610f0491906113d0565b602060405180830381865afa158015610f21573d6000803e3d6000fd5b505050506040513d601f19601f82011682018060405250810190610f459190611a5c565b905082811015610f8a576040517f08c379a0000000000000000000000000000000000000000000000000000000008152600401610f8190611c9c565b60405180910390fd5b60008060025403610f9e5760649050610fbc565b60015484600254610faf91906115b2565b610fb99190611623565b90505b60003411610fff576040517f08c379a0000000000000000000000000000000000000000000000000000000008152600401610ff690611d2e565b60405180910390fd5b3073ffffffffffffffffffffffffffffffffffffffff166108fc349081150290604051600060405180830381858888f19350505050158015611045573d6000803e3d6000fd5b50600560009054906101000a900473ffffffffffffffffffffffffffffffffffffffff1673ffffffffffffffffffffffffffffffffffffffff166323b872dd3330876040518463ffffffff1660e01b81526004016110a593929190611b87565b6020604051808303816000875af11580156110c4573d6000803e3d6000fd5b505050506040513d601f19601f820116820180604052508101906110e891906117e7565b611127576040517f08c379a000000000000000000000000000000000000000000000000000000000815260040161111e90611860565b60405180910390fd5b3460008082825461113891906112aa565b92505081905550836001600082825461115191906112aa565b9250508190555060015460005461116891906115b2565b600481905550806002600082825461118091906112aa565b9250508190555080600360003373ffffffffffffffffffffffffffffffffffffffff1673ffffffffffffffffffffffffffffffffffffffff16815260200190815260200160002060008282546111d691906112aa565b925050819055507faa58f006cc244b2af6662862508bd39465f57169ff8386d1d1f7b0b903150abc84348360405161121093929190611880565b60405180910390a18092505050919050565b6000806000548360015461123691906115b2565b6112409190611623565b905080915050919050565b600560009054906101000a900473ffffffffffffffffffffffffffffffffffffffff1681565b6000819050919050565b7f4e487b7100000000000000000000000000000000000000000000000000000000600052601160045260246000fd5b60006112b582611271565b91506112c083611271565b92508282019050808211156112d8576112d761127b565b5b92915050565b600080fd5b6112ec81611271565b81146112f757600080fd5b50565b600081359050611309816112e3565b92915050565b600060208284031215611325576113246112de565b5b6000611333848285016112fa565b91505092915050565b61134581611271565b82525050565b6000604082019050611360600083018561133c565b61136d602083018461133c565b9392505050565b6000602082019050611389600083018461133c565b92915050565b600073ffffffffffffffffffffffffffffffffffffffff82169050919050565b60006113ba8261138f565b9050919050565b6113ca816113af565b82525050565b60006020820190506113e560008301846113c1565b92915050565b600082825260208201905092915050565b7f546865206e756d626572206f66206c697175696469747920706f736974696f6e60008201527f7320746f206275726e206d7573742062652067726561746572207468616e2030602082015250565b60006114586040836113eb565b9150611463826113fc565b604082019050919050565b600060208201905081810360008301526114878161144b565b9050919050565b7f43616c6c65722063616e27742067697665207570206d6f7265206c697175696460008201527f69747920706f736974696f6e73207468616e2074686579206f776e0000000000602082015250565b60006114ea603b836113eb565b91506114f58261148e565b604082019050919050565b60006020820190508181036000830152611519816114dd565b9050919050565b7f43616c6c65722063616e2774206769766520757020616c6c206c69717569646960008201527f747920706f736974696f6e7320696e2074686520706f6f6c0000000000000000602082015250565b600061157c6038836113eb565b915061158782611520565b604082019050919050565b600060208201905081810360008301526115ab8161156f565b9050919050565b60006115bd82611271565b91506115c883611271565b92508282026115d681611271565b915082820484148315176115ed576115ec61127b565b5b5092915050565b7f4e487b7100000000000000000000000000000000000000000000000000000000600052601260045260246000fd5b600061162e82611271565b915061163983611271565b925082611649576116486115f4565b5b828204905092915050565b7f4e6f7420656e6f75676820457468657220696e2074686520636f6e7472616374600082015250565b600061168a6020836113eb565b915061169582611654565b602082019050919050565b600060208201905081810360008301526116b98161167d565b9050919050565b7f4e6f7420656e6f75676820455243323020746f6b656e7320696e20746865206360008201527f6f6e747261637400000000000000000000000000000000000000000000000000602082015250565b600061171c6027836113eb565b9150611727826116c0565b604082019050919050565b6000602082019050818103600083015261174b8161170f565b9050919050565b600061175d82611271565b915061176883611271565b92508282039050818111156117805761177f61127b565b5b92915050565b600060408201905061179b60008301856113c1565b6117a8602083018461133c565b9392505050565b60008115159050919050565b6117c4816117af565b81146117cf57600080fd5b50565b6000815190506117e1816117bb565b92915050565b6000602082840312156117fd576117fc6112de565b5b600061180b848285016117d2565b91505092915050565b7f4552433230207472616e73666572206661696c65640000000000000000000000600082015250565b600061184a6015836113eb565b915061185582611814565b602082019050919050565b600060208201905081810360008301526118798161183d565b9050919050565b6000606082019050611895600083018661133c565b6118a2602083018561133c565b6118af604083018461133c565b949350505050565b7f54686520616d6f756e74206f662045746820746f6b656e73206d75737420626560008201527f2067726561746572207468616e20300000000000000000000000000000000000602082015250565b6000611913602f836113eb565b915061191e826118b7565b604082019050919050565b6000602082019050818103600083015261194281611906565b9050919050565b7f43616c6c657220646f65736e2774206861766520656e6f756768204574680000600082015250565b600061197f601e836113eb565b915061198a82611949565b602082019050919050565b600060208201905081810360008301526119ae81611972565b9050919050565b7f54686520616d6f756e74206f6620455243323020746f6b656e7320746f20737760008201527f6170206d7573742062652067726561746572207468616e203000000000000000602082015250565b6000611a116039836113eb565b9150611a1c826119b5565b604082019050919050565b60006020820190508181036000830152611a4081611a04565b9050919050565b600081519050611a56816112e3565b92915050565b600060208284031215611a7257611a716112de565b5b6000611a8084828501611a47565b91505092915050565b7f43616c6c657220646f65736e2774206861766520656e6f75676820455243323060008201527f20746f6b656e7300000000000000000000000000000000000000000000000000602082015250565b6000611ae56027836113eb565b9150611af082611a89565b604082019050919050565b60006020820190508181036000830152611b1481611ad8565b9050919050565b7f4e6f7420656e6f75676820657468657220696e2074686520636f6e7472616374600082015250565b6000611b516020836113eb565b9150611b5c82611b1b565b602082019050919050565b60006020820190508181036000830152611b8081611b44565b9050919050565b6000606082019050611b9c60008301866113c1565b611ba960208301856113c1565b611bb6604083018461133c565b949350505050565b7f596f75206d757374206465706f736974204552432d323020746f6b656e732e00600082015250565b6000611bf4601f836113eb565b9150611bff82611bbe565b602082019050919050565b60006020820190508181036000830152611c2381611be7565b9050919050565b7f43616c6c657220646f6573206e6f74206861766520656e6f756768204552433260008201527f3020746f6b656e73000000000000000000000000000000000000000000000000602082015250565b6000611c866028836113eb565b9150611c9182611c2a565b604082019050919050565b60006020820190508181036000830152611cb581611c79565b9050919050565b7f43616c6c657220646f6573206e6f74206861766520656e6f756768206574686560008201527f7200000000000000000000000000000000000000000000000000000000000000602082015250565b6000611d186021836113eb565b9150611d2382611cbc565b604082019050919050565b60006020820190508181036000830152611d4781611d0b565b905091905056fea2646970667358221220e7631a9382081d216bb946b1f58a16e639e1f09e11ff37fe00a34f8e7cc721f464736f6c63430008120033",
					"opcodes": "PUSH1 0x80 PUSH1 0x40 MSTORE CALLVALUE DUP1 ISZERO PUSH3 0x11 JUMPI PUSH1 0x0 DUP1 REVERT JUMPDEST POP PUSH1 0x40 MLOAD PUSH3 0x1EBF CODESIZE SUB DUP1 PUSH3 0x1EBF DUP4 CODECOPY DUP2 DUP2 ADD PUSH1 0x40 MSTORE DUP2 ADD SWAP1 PUSH3 0x37 SWAP2 SWAP1 PUSH3 0xF9 JUMP JUMPDEST DUP1 PUSH1 0x5 PUSH1 0x0 PUSH2 0x100 EXP DUP2 SLOAD DUP2 PUSH20 0xFFFFFFFFFFFFFFFFFFFFFFFFFFFFFFFFFFFFFFFF MUL NOT AND SWAP1 DUP4 PUSH20 0xFFFFFFFFFFFFFFFFFFFFFFFFFFFFFFFFFFFFFFFF AND MUL OR SWAP1 SSTORE POP PUSH1 0x0 PUSH1 0x2 DUP2 SWAP1 SSTORE POP PUSH1 0x0 PUSH1 0x4 DUP2 SWAP1 SSTORE POP POP PUSH3 0x12B JUMP JUMPDEST PUSH1 0x0 DUP1 REVERT JUMPDEST PUSH1 0x0 PUSH20 0xFFFFFFFFFFFFFFFFFFFFFFFFFFFFFFFFFFFFFFFF DUP3 AND SWAP1 POP SWAP2 SWAP1 POP JUMP JUMPDEST PUSH1 0x0 PUSH3 0xC1 DUP3 PUSH3 0x94 JUMP JUMPDEST SWAP1 POP SWAP2 SWAP1 POP JUMP JUMPDEST PUSH3 0xD3 DUP2 PUSH3 0xB4 JUMP JUMPDEST DUP2 EQ PUSH3 0xDF JUMPI PUSH1 0x0 DUP1 REVERT JUMPDEST POP JUMP JUMPDEST PUSH1 0x0 DUP2 MLOAD SWAP1 POP PUSH3 0xF3 DUP2 PUSH3 0xC8 JUMP JUMPDEST SWAP3 SWAP2 POP POP JUMP JUMPDEST PUSH1 0x0 PUSH1 0x20 DUP3 DUP5 SUB SLT ISZERO PUSH3 0x112 JUMPI PUSH3 0x111 PUSH3 0x8F JUMP JUMPDEST JUMPDEST PUSH1 0x0 PUSH3 0x122 DUP5 DUP3 DUP6 ADD PUSH3 0xE2 JUMP JUMPDEST SWAP2 POP POP SWAP3 SWAP2 POP POP JUMP JUMPDEST PUSH2 0x1D84 DUP1 PUSH3 0x13B PUSH1 0x0 CODECOPY PUSH1 0x0 RETURN INVALID PUSH1 0x80 PUSH1 0x40 MSTORE PUSH1 0x4 CALLDATASIZE LT PUSH2 0xE1 JUMPI PUSH1 0x0 CALLDATALOAD PUSH1 0xE0 SHR DUP1 PUSH4 0xBA1F9272 GT PUSH2 0x7F JUMPI DUP1 PUSH4 0xE0BA2000 GT PUSH2 0x59 JUMPI DUP1 PUSH4 0xE0BA2000 EQ PUSH2 0x31F JUMPI DUP1 PUSH4 0xEB521A4C EQ PUSH2 0x34A JUMPI DUP1 PUSH4 0xED7BF868 EQ PUSH2 0x37A JUMPI DUP1 PUSH4 0xF835CD3C EQ PUSH2 0x3B7 JUMPI PUSH2 0xFF JUMP JUMPDEST DUP1 PUSH4 0xBA1F9272 EQ PUSH2 0x27A JUMPI DUP1 PUSH4 0xC8AB8325 EQ PUSH2 0x2B7 JUMPI DUP1 PUSH4 0xC9691034 EQ PUSH2 0x2F4 JUMPI PUSH2 0xFF JUMP JUMPDEST DUP1 PUSH4 0x5D58CE36 GT PUSH2 0xBB JUMPI DUP1 PUSH4 0x5D58CE36 EQ PUSH2 0x1AA JUMPI DUP1 PUSH4 0x79ED3562 EQ PUSH2 0x1D5 JUMPI DUP1 PUSH4 0x903875F7 EQ PUSH2 0x212 JUMPI DUP1 PUSH4 0xB4F40C61 EQ PUSH2 0x24F JUMPI PUSH2 0xFF JUMP JUMPDEST DUP1 PUSH4 0xA861F2A EQ PUSH2 0x104 JUMPI DUP1 PUSH4 0x1CDE6226 EQ PUSH2 0x142 JUMPI DUP1 PUSH4 0x240F3DEA EQ PUSH2 0x16D JUMPI PUSH2 0xFF JUMP JUMPDEST CALLDATASIZE PUSH2 0xFF JUMPI CALLVALUE PUSH1 0x0 DUP1 DUP3 DUP3 SLOAD PUSH2 0xF7 SWAP2 SWAP1 PUSH2 0x12AA JUMP JUMPDEST SWAP3 POP POP DUP2 SWAP1 SSTORE STOP JUMPDEST PUSH1 0x0 DUP1 REVERT JUMPDEST CALLVALUE DUP1 ISZERO PUSH2 0x110 JUMPI PUSH1 0x0 DUP1 REVERT JUMPDEST POP PUSH2 0x12B PUSH1 0x4 DUP1 CALLDATASIZE SUB DUP2 ADD SWAP1 PUSH2 0x126 SWAP2 SWAP1 PUSH2 0x130F JUMP JUMPDEST PUSH2 0x3E2 JUMP JUMPDEST PUSH1 0x40 MLOAD PUSH2 0x139 SWAP3 SWAP2 SWAP1 PUSH2 0x134B JUMP JUMPDEST PUSH1 0x40 MLOAD DUP1 SWAP2 SUB SWAP1 RETURN JUMPDEST CALLVALUE DUP1 ISZERO PUSH2 0x14E JUMPI PUSH1 0x0 DUP1 REVERT JUMPDEST POP PUSH2 0x157 PUSH2 0x7A2 JUMP JUMPDEST PUSH1 0x40 MLOAD PUSH2 0x164 SWAP2 SWAP1 PUSH2 0x1374 JUMP JUMPDEST PUSH1 0x40 MLOAD DUP1 SWAP2 SUB SWAP1 RETURN JUMPDEST CALLVALUE DUP1 ISZERO PUSH2 0x179 JUMPI PUSH1 0x0 DUP1 REVERT JUMPDEST POP PUSH2 0x194 PUSH1 0x4 DUP1 CALLDATASIZE SUB DUP2 ADD SWAP1 PUSH2 0x18F SWAP2 SWAP1 PUSH2 0x130F JUMP JUMPDEST PUSH2 0x7A8 JUMP JUMPDEST PUSH1 0x40 MLOAD PUSH2 0x1A1 SWAP2 SWAP1 PUSH2 0x1374 JUMP JUMPDEST PUSH1 0x40 MLOAD DUP1 SWAP2 SUB SWAP1 RETURN JUMPDEST CALLVALUE DUP1 ISZERO PUSH2 0x1B6 JUMPI PUSH1 0x0 DUP1 REVERT JUMPDEST POP PUSH2 0x1BF PUSH2 0x7D1 JUMP JUMPDEST PUSH1 0x40 MLOAD PUSH2 0x1CC SWAP2 SWAP1 PUSH2 0x1374 JUMP JUMPDEST PUSH1 0x40 MLOAD DUP1 SWAP2 SUB SWAP1 RETURN JUMPDEST CALLVALUE DUP1 ISZERO PUSH2 0x1E1 JUMPI PUSH1 0x0 DUP1 REVERT JUMPDEST POP PUSH2 0x1FC PUSH1 0x4 DUP1 CALLDATASIZE SUB DUP2 ADD SWAP1 PUSH2 0x1F7 SWAP2 SWAP1 PUSH2 0x130F JUMP JUMPDEST PUSH2 0x7D7 JUMP JUMPDEST PUSH1 0x40 MLOAD PUSH2 0x209 SWAP2 SWAP1 PUSH2 0x1374 JUMP JUMPDEST PUSH1 0x40 MLOAD DUP1 SWAP2 SUB SWAP1 RETURN JUMPDEST CALLVALUE DUP1 ISZERO PUSH2 0x21E JUMPI PUSH1 0x0 DUP1 REVERT JUMPDEST POP PUSH2 0x239 PUSH1 0x4 DUP1 CALLDATASIZE SUB DUP2 ADD SWAP1 PUSH2 0x234 SWAP2 SWAP1 PUSH2 0x130F JUMP JUMPDEST PUSH2 0x819 JUMP JUMPDEST PUSH1 0x40 MLOAD PUSH2 0x246 SWAP2 SWAP1 PUSH2 0x1374 JUMP JUMPDEST PUSH1 0x40 MLOAD DUP1 SWAP2 SUB SWAP1 RETURN JUMPDEST CALLVALUE DUP1 ISZERO PUSH2 0x25B JUMPI PUSH1 0x0 DUP1 REVERT JUMPDEST POP PUSH2 0x264 PUSH2 0x85B JUMP JUMPDEST PUSH1 0x40 MLOAD PUSH2 0x271 SWAP2 SWAP1 PUSH2 0x1374 JUMP JUMPDEST PUSH1 0x40 MLOAD DUP1 SWAP2 SUB SWAP1 RETURN JUMPDEST CALLVALUE DUP1 ISZERO PUSH2 0x286 JUMPI PUSH1 0x0 DUP1 REVERT JUMPDEST POP PUSH2 0x2A1 PUSH1 0x4 DUP1 CALLDATASIZE SUB DUP2 ADD SWAP1 PUSH2 0x29C SWAP2 SWAP1 PUSH2 0x130F JUMP JUMPDEST PUSH2 0x861 JUMP JUMPDEST PUSH1 0x40 MLOAD PUSH2 0x2AE SWAP2 SWAP1 PUSH2 0x1374 JUMP JUMPDEST PUSH1 0x40 MLOAD DUP1 SWAP2 SUB SWAP1 RETURN JUMPDEST CALLVALUE DUP1 ISZERO PUSH2 0x2C3 JUMPI PUSH1 0x0 DUP1 REVERT JUMPDEST POP PUSH2 0x2DE PUSH1 0x4 DUP1 CALLDATASIZE SUB DUP2 ADD SWAP1 PUSH2 0x2D9 SWAP2 SWAP1 PUSH2 0x130F JUMP JUMPDEST PUSH2 0xAD2 JUMP JUMPDEST PUSH1 0x40 MLOAD PUSH2 0x2EB SWAP2 SWAP1 PUSH2 0x1374 JUMP JUMPDEST PUSH1 0x40 MLOAD DUP1 SWAP2 SUB SWAP1 RETURN JUMPDEST CALLVALUE DUP1 ISZERO PUSH2 0x300 JUMPI PUSH1 0x0 DUP1 REVERT JUMPDEST POP PUSH2 0x309 PUSH2 0xE16 JUMP JUMPDEST PUSH1 0x40 MLOAD PUSH2 0x316 SWAP2 SWAP1 PUSH2 0x1374 JUMP JUMPDEST PUSH1 0x40 MLOAD DUP1 SWAP2 SUB SWAP1 RETURN JUMPDEST CALLVALUE DUP1 ISZERO PUSH2 0x32B JUMPI PUSH1 0x0 DUP1 REVERT JUMPDEST POP PUSH2 0x334 PUSH2 0xE1C JUMP JUMPDEST PUSH1 0x40 MLOAD PUSH2 0x341 SWAP2 SWAP1 PUSH2 0x1374 JUMP JUMPDEST PUSH1 0x40 MLOAD DUP1 SWAP2 SUB SWAP1 RETURN JUMPDEST PUSH2 0x364 PUSH1 0x4 DUP1 CALLDATASIZE SUB DUP2 ADD SWAP1 PUSH2 0x35F SWAP2 SWAP1 PUSH2 0x130F JUMP JUMPDEST PUSH2 0xE63 JUMP JUMPDEST PUSH1 0x40 MLOAD PUSH2 0x371 SWAP2 SWAP1 PUSH2 0x1374 JUMP JUMPDEST PUSH1 0x40 MLOAD DUP1 SWAP2 SUB SWAP1 RETURN JUMPDEST CALLVALUE DUP1 ISZERO PUSH2 0x386 JUMPI PUSH1 0x0 DUP1 REVERT JUMPDEST POP PUSH2 0x3A1 PUSH1 0x4 DUP1 CALLDATASIZE SUB DUP2 ADD SWAP1 PUSH2 0x39C SWAP2 SWAP1 PUSH2 0x130F JUMP JUMPDEST PUSH2 0x1222 JUMP JUMPDEST PUSH1 0x40 MLOAD PUSH2 0x3AE SWAP2 SWAP1 PUSH2 0x1374 JUMP JUMPDEST PUSH1 0x40 MLOAD DUP1 SWAP2 SUB SWAP1 RETURN JUMPDEST CALLVALUE DUP1 ISZERO PUSH2 0x3C3 JUMPI PUSH1 0x0 DUP1 REVERT JUMPDEST POP PUSH2 0x3CC PUSH2 0x124B JUMP JUMPDEST PUSH1 0x40 MLOAD PUSH2 0x3D9 SWAP2 SWAP1 PUSH2 0x13D0 JUMP JUMPDEST PUSH1 0x40 MLOAD DUP1 SWAP2 SUB SWAP1 RETURN JUMPDEST PUSH1 0x0 DUP1 PUSH1 0x0 DUP4 GT PUSH2 0x428 JUMPI PUSH1 0x40 MLOAD PUSH32 0x8C379A000000000000000000000000000000000000000000000000000000000 DUP2 MSTORE PUSH1 0x4 ADD PUSH2 0x41F SWAP1 PUSH2 0x146E JUMP JUMPDEST PUSH1 0x40 MLOAD DUP1 SWAP2 SUB SWAP1 REVERT JUMPDEST PUSH2 0x430 PUSH2 0xE1C JUMP JUMPDEST DUP4 GT ISZERO PUSH2 0x472 JUMPI PUSH1 0x40 MLOAD PUSH32 0x8C379A000000000000000000000000000000000000000000000000000000000 DUP2 MSTORE PUSH1 0x4 ADD PUSH2 0x469 SWAP1 PUSH2 0x1500 JUMP JUMPDEST PUSH1 0x40 MLOAD DUP1 SWAP2 SUB SWAP1 REVERT JUMPDEST PUSH1 0x2 SLOAD DUP4 LT PUSH2 0x4B6 JUMPI PUSH1 0x40 MLOAD PUSH32 0x8C379A000000000000000000000000000000000000000000000000000000000 DUP2 MSTORE PUSH1 0x4 ADD PUSH2 0x4AD SWAP1 PUSH2 0x1592 JUMP JUMPDEST PUSH1 0x40 MLOAD DUP1 SWAP2 SUB SWAP1 REVERT JUMPDEST PUSH1 0x0 PUSH1 0x2 SLOAD PUSH1 0x0 SLOAD DUP6 PUSH2 0x4C9 SWAP2 SWAP1 PUSH2 0x15B2 JUMP JUMPDEST PUSH2 0x4D3 SWAP2 SWAP1 PUSH2 0x1623 JUMP JUMPDEST SWAP1 POP PUSH1 0x0 PUSH1 0x2 SLOAD PUSH1 0x1 SLOAD DUP7 PUSH2 0x4E8 SWAP2 SWAP1 PUSH2 0x15B2 JUMP JUMPDEST PUSH2 0x4F2 SWAP2 SWAP1 PUSH2 0x1623 JUMP JUMPDEST SWAP1 POP PUSH1 0x0 SLOAD DUP3 GT ISZERO PUSH2 0x539 JUMPI PUSH1 0x40 MLOAD PUSH32 0x8C379A000000000000000000000000000000000000000000000000000000000 DUP2 MSTORE PUSH1 0x4 ADD PUSH2 0x530 SWAP1 PUSH2 0x16A0 JUMP JUMPDEST PUSH1 0x40 MLOAD DUP1 SWAP2 SUB SWAP1 REVERT JUMPDEST PUSH1 0x1 SLOAD DUP2 GT ISZERO PUSH2 0x57E JUMPI PUSH1 0x40 MLOAD PUSH32 0x8C379A000000000000000000000000000000000000000000000000000000000 DUP2 MSTORE PUSH1 0x4 ADD PUSH2 0x575 SWAP1 PUSH2 0x1732 JUMP JUMPDEST PUSH1 0x40 MLOAD DUP1 SWAP2 SUB SWAP1 REVERT JUMPDEST DUP5 PUSH1 0x3 PUSH1 0x0 CALLER PUSH20 0xFFFFFFFFFFFFFFFFFFFFFFFFFFFFFFFFFFFFFFFF AND PUSH20 0xFFFFFFFFFFFFFFFFFFFFFFFFFFFFFFFFFFFFFFFF AND DUP2 MSTORE PUSH1 0x20 ADD SWAP1 DUP2 MSTORE PUSH1 0x20 ADD PUSH1 0x0 KECCAK256 PUSH1 0x0 DUP3 DUP3 SLOAD PUSH2 0x5CD SWAP2 SWAP1 PUSH2 0x1752 JUMP JUMPDEST SWAP3 POP POP DUP2 SWAP1 SSTORE POP DUP5 PUSH1 0x2 PUSH1 0x0 DUP3 DUP3 SLOAD PUSH2 0x5E6 SWAP2 SWAP1 PUSH2 0x1752 JUMP JUMPDEST SWAP3 POP POP DUP2 SWAP1 SSTORE POP DUP2 PUSH1 0x0 DUP1 DUP3 DUP3 SLOAD PUSH2 0x5FE SWAP2 SWAP1 PUSH2 0x1752 JUMP JUMPDEST SWAP3 POP POP DUP2 SWAP1 SSTORE POP DUP1 PUSH1 0x1 PUSH1 0x0 DUP3 DUP3 SLOAD PUSH2 0x617 SWAP2 SWAP1 PUSH2 0x1752 JUMP JUMPDEST SWAP3 POP POP DUP2 SWAP1 SSTORE POP PUSH1 0x1 SLOAD PUSH1 0x0 SLOAD PUSH2 0x62E SWAP2 SWAP1 PUSH2 0x15B2 JUMP JUMPDEST PUSH1 0x4 DUP2 SWAP1 SSTORE POP CALLER PUSH20 0xFFFFFFFFFFFFFFFFFFFFFFFFFFFFFFFFFFFFFFFF AND PUSH2 0x8FC DUP4 SWAP1 DUP2 ISZERO MUL SWAP1 PUSH1 0x40 MLOAD PUSH1 0x0 PUSH1 0x40 MLOAD DUP1 DUP4 SUB DUP2 DUP6 DUP9 DUP9 CALL SWAP4 POP POP POP POP ISZERO DUP1 ISZERO PUSH2 0x67A JUMPI RETURNDATASIZE PUSH1 0x0 DUP1 RETURNDATACOPY RETURNDATASIZE PUSH1 0x0 REVERT JUMPDEST POP PUSH1 0x5 PUSH1 0x0 SWAP1 SLOAD SWAP1 PUSH2 0x100 EXP SWAP1 DIV PUSH20 0xFFFFFFFFFFFFFFFFFFFFFFFFFFFFFFFFFFFFFFFF AND PUSH20 0xFFFFFFFFFFFFFFFFFFFFFFFFFFFFFFFFFFFFFFFF AND PUSH4 0xA9059CBB CALLER DUP4 PUSH1 0x40 MLOAD DUP4 PUSH4 0xFFFFFFFF AND PUSH1 0xE0 SHL DUP2 MSTORE PUSH1 0x4 ADD PUSH2 0x6D8 SWAP3 SWAP2 SWAP1 PUSH2 0x1786 JUMP JUMPDEST PUSH1 0x20 PUSH1 0x40 MLOAD DUP1 DUP4 SUB DUP2 PUSH1 0x0 DUP8 GAS CALL ISZERO DUP1 ISZERO PUSH2 0x6F7 JUMPI RETURNDATASIZE PUSH1 0x0 DUP1 RETURNDATACOPY RETURNDATASIZE PUSH1 0x0 REVERT JUMPDEST POP POP POP POP PUSH1 0x40 MLOAD RETURNDATASIZE PUSH1 0x1F NOT PUSH1 0x1F DUP3 ADD AND DUP3 ADD DUP1 PUSH1 0x40 MSTORE POP DUP2 ADD SWAP1 PUSH2 0x71B SWAP2 SWAP1 PUSH2 0x17E7 JUMP JUMPDEST PUSH2 0x75A JUMPI PUSH1 0x40 MLOAD PUSH32 0x8C379A000000000000000000000000000000000000000000000000000000000 DUP2 MSTORE PUSH1 0x4 ADD PUSH2 0x751 SWAP1 PUSH2 0x1860 JUMP JUMPDEST PUSH1 0x40 MLOAD DUP1 SWAP2 SUB SWAP1 REVERT JUMPDEST PUSH32 0xB14F451E613015C13A17C78777F1D87FCB448D7330D67299A09B8F2DB38AAB10 DUP2 DUP4 DUP8 PUSH1 0x40 MLOAD PUSH2 0x78D SWAP4 SWAP3 SWAP2 SWAP1 PUSH2 0x1880 JUMP JUMPDEST PUSH1 0x40 MLOAD DUP1 SWAP2 SUB SWAP1 LOG1 DUP1 DUP3 SWAP4 POP SWAP4 POP POP POP SWAP2 POP SWAP2 JUMP JUMPDEST PUSH1 0x2 SLOAD DUP2 JUMP JUMPDEST PUSH1 0x0 DUP1 PUSH1 0x1 SLOAD DUP4 PUSH1 0x0 SLOAD PUSH2 0x7BC SWAP2 SWAP1 PUSH2 0x15B2 JUMP JUMPDEST PUSH2 0x7C6 SWAP2 SWAP1 PUSH2 0x1623 JUMP JUMPDEST SWAP1 POP DUP1 SWAP2 POP POP SWAP2 SWAP1 POP JUMP JUMPDEST PUSH1 0x0 SLOAD DUP2 JUMP JUMPDEST PUSH1 0x0 DUP1 DUP3 PUSH1 0x0 SLOAD PUSH2 0x7E8 SWAP2 SWAP1 PUSH2 0x12AA JUMP JUMPDEST SWAP1 POP PUSH1 0x0 DUP2 PUSH1 0x4 SLOAD PUSH2 0x7FA SWAP2 SWAP1 PUSH2 0x1623 JUMP JUMPDEST SWAP1 POP PUSH1 0x0 DUP2 PUSH1 0x1 SLOAD PUSH2 0x80C SWAP2 SWAP1 PUSH2 0x1752 JUMP JUMPDEST SWAP1 POP DUP1 SWAP4 POP POP POP POP SWAP2 SWAP1 POP JUMP JUMPDEST PUSH1 0x0 DUP1 DUP3 PUSH1 0x1 SLOAD PUSH2 0x82A SWAP2 SWAP1 PUSH2 0x12AA JUMP JUMPDEST SWAP1 POP PUSH1 0x0 DUP2 PUSH1 0x4 SLOAD PUSH2 0x83C SWAP2 SWAP1 PUSH2 0x1623 JUMP JUMPDEST SWAP1 POP PUSH1 0x0 DUP2 PUSH1 0x0 SLOAD PUSH2 0x84E SWAP2 SWAP1 PUSH2 0x1752 JUMP JUMPDEST SWAP1 POP DUP1 SWAP4 POP POP POP POP SWAP2 SWAP1 POP JUMP JUMPDEST PUSH1 0x4 SLOAD DUP2 JUMP JUMPDEST PUSH1 0x0 DUP1 DUP3 GT PUSH2 0x8A5 JUMPI PUSH1 0x40 MLOAD PUSH32 0x8C379A000000000000000000000000000000000000000000000000000000000 DUP2 MSTORE PUSH1 0x4 ADD PUSH2 0x89C SWAP1 PUSH2 0x1929 JUMP JUMPDEST PUSH1 0x40 MLOAD DUP1 SWAP2 SUB SWAP1 REVERT JUMPDEST SELFBALANCE DUP3 GT ISZERO PUSH2 0x8E8 JUMPI PUSH1 0x40 MLOAD PUSH32 0x8C379A000000000000000000000000000000000000000000000000000000000 DUP2 MSTORE PUSH1 0x4 ADD PUSH2 0x8DF SWAP1 PUSH2 0x1995 JUMP JUMPDEST PUSH1 0x40 MLOAD DUP1 SWAP2 SUB SWAP1 REVERT JUMPDEST PUSH1 0x0 DUP3 PUSH1 0x0 SLOAD PUSH2 0x8F8 SWAP2 SWAP1 PUSH2 0x12AA JUMP JUMPDEST PUSH1 0x4 SLOAD PUSH2 0x905 SWAP2 SWAP1 PUSH2 0x1623 JUMP JUMPDEST PUSH1 0x1 SLOAD PUSH2 0x912 SWAP2 SWAP1 PUSH2 0x1752 JUMP JUMPDEST SWAP1 POP DUP1 PUSH1 0x1 SLOAD LT ISZERO PUSH2 0x959 JUMPI PUSH1 0x40 MLOAD PUSH32 0x8C379A000000000000000000000000000000000000000000000000000000000 DUP2 MSTORE PUSH1 0x4 ADD PUSH2 0x950 SWAP1 PUSH2 0x1732 JUMP JUMPDEST PUSH1 0x40 MLOAD DUP1 SWAP2 SUB SWAP1 REVERT JUMPDEST DUP3 PUSH1 0x0 DUP1 DUP3 DUP3 SLOAD PUSH2 0x96A SWAP2 SWAP1 PUSH2 0x12AA JUMP JUMPDEST SWAP3 POP POP DUP2 SWAP1 SSTORE POP DUP1 PUSH1 0x1 PUSH1 0x0 DUP3 DUP3 SLOAD PUSH2 0x983 SWAP2 SWAP1 PUSH2 0x1752 JUMP JUMPDEST SWAP3 POP POP DUP2 SWAP1 SSTORE POP PUSH1 0x1 SLOAD PUSH1 0x0 SLOAD PUSH2 0x99A SWAP2 SWAP1 PUSH2 0x15B2 JUMP JUMPDEST PUSH1 0x4 DUP2 SWAP1 SSTORE POP ADDRESS PUSH20 0xFFFFFFFFFFFFFFFFFFFFFFFFFFFFFFFFFFFFFFFF AND PUSH2 0x8FC DUP5 SWAP1 DUP2 ISZERO MUL SWAP1 PUSH1 0x40 MLOAD PUSH1 0x0 PUSH1 0x40 MLOAD DUP1 DUP4 SUB DUP2 DUP6 DUP9 DUP9 CALL SWAP4 POP POP POP POP ISZERO DUP1 ISZERO PUSH2 0x9E6 JUMPI RETURNDATASIZE PUSH1 0x0 DUP1 RETURNDATACOPY RETURNDATASIZE PUSH1 0x0 REVERT JUMPDEST POP PUSH1 0x5 PUSH1 0x0 SWAP1 SLOAD SWAP1 PUSH2 0x100 EXP SWAP1 DIV PUSH20 0xFFFFFFFFFFFFFFFFFFFFFFFFFFFFFFFFFFFFFFFF AND PUSH20 0xFFFFFFFFFFFFFFFFFFFFFFFFFFFFFFFFFFFFFFFF AND PUSH4 0xA9059CBB CALLER DUP4 PUSH1 0x40 MLOAD DUP4 PUSH4 0xFFFFFFFF AND PUSH1 0xE0 SHL DUP2 MSTORE PUSH1 0x4 ADD PUSH2 0xA44 SWAP3 SWAP2 SWAP1 PUSH2 0x1786 JUMP JUMPDEST PUSH1 0x20 PUSH1 0x40 MLOAD DUP1 DUP4 SUB DUP2 PUSH1 0x0 DUP8 GAS CALL ISZERO DUP1 ISZERO PUSH2 0xA63 JUMPI RETURNDATASIZE PUSH1 0x0 DUP1 RETURNDATACOPY RETURNDATASIZE PUSH1 0x0 REVERT JUMPDEST POP POP POP POP PUSH1 0x40 MLOAD RETURNDATASIZE PUSH1 0x1F NOT PUSH1 0x1F DUP3 ADD AND DUP3 ADD DUP1 PUSH1 0x40 MSTORE POP DUP2 ADD SWAP1 PUSH2 0xA87 SWAP2 SWAP1 PUSH2 0x17E7 JUMP JUMPDEST PUSH2 0xA90 JUMPI PUSH1 0x0 DUP1 REVERT JUMPDEST PUSH32 0xCDFC57B3D0CDC24B23CEA1F480AABEA287321F5BEE23AD76C2B52FA7982F5EA5 DUP2 DUP5 PUSH1 0x40 MLOAD PUSH2 0xAC1 SWAP3 SWAP2 SWAP1 PUSH2 0x134B JUMP JUMPDEST PUSH1 0x40 MLOAD DUP1 SWAP2 SUB SWAP1 LOG1 DUP1 SWAP2 POP POP SWAP2 SWAP1 POP JUMP JUMPDEST PUSH1 0x0 DUP1 DUP3 GT PUSH2 0xB16 JUMPI PUSH1 0x40 MLOAD PUSH32 0x8C379A000000000000000000000000000000000000000000000000000000000 DUP2 MSTORE PUSH1 0x4 ADD PUSH2 0xB0D SWAP1 PUSH2 0x1A27 JUMP JUMPDEST PUSH1 0x40 MLOAD DUP1 SWAP2 SUB SWAP1 REVERT JUMPDEST PUSH1 0x5 PUSH1 0x0 SWAP1 SLOAD SWAP1 PUSH2 0x100 EXP SWAP1 DIV PUSH20 0xFFFFFFFFFFFFFFFFFFFFFFFFFFFFFFFFFFFFFFFF AND PUSH20 0xFFFFFFFFFFFFFFFFFFFFFFFFFFFFFFFFFFFFFFFF AND PUSH4 0x70A08231 CALLER PUSH1 0x40 MLOAD DUP3 PUSH4 0xFFFFFFFF AND PUSH1 0xE0 SHL DUP2 MSTORE PUSH1 0x4 ADD PUSH2 0xB71 SWAP2 SWAP1 PUSH2 0x13D0 JUMP JUMPDEST PUSH1 0x20 PUSH1 0x40 MLOAD DUP1 DUP4 SUB DUP2 DUP7 GAS STATICCALL ISZERO DUP1 ISZERO PUSH2 0xB8E JUMPI RETURNDATASIZE PUSH1 0x0 DUP1 RETURNDATACOPY RETURNDATASIZE PUSH1 0x0 REVERT JUMPDEST POP POP POP POP PUSH1 0x40 MLOAD RETURNDATASIZE PUSH1 0x1F NOT PUSH1 0x1F DUP3 ADD AND DUP3 ADD DUP1 PUSH1 0x40 MSTORE POP DUP2 ADD SWAP1 PUSH2 0xBB2 SWAP2 SWAP1 PUSH2 0x1A5C JUMP JUMPDEST DUP3 GT ISZERO PUSH2 0xBF4 JUMPI PUSH1 0x40 MLOAD PUSH32 0x8C379A000000000000000000000000000000000000000000000000000000000 DUP2 MSTORE PUSH1 0x4 ADD PUSH2 0xBEB SWAP1 PUSH2 0x1AFB JUMP JUMPDEST PUSH1 0x40 MLOAD DUP1 SWAP2 SUB SWAP1 REVERT JUMPDEST PUSH1 0x0 DUP3 PUSH1 0x1 SLOAD PUSH2 0xC04 SWAP2 SWAP1 PUSH2 0x12AA JUMP JUMPDEST PUSH1 0x4 SLOAD PUSH2 0xC11 SWAP2 SWAP1 PUSH2 0x1623 JUMP JUMPDEST PUSH1 0x0 SLOAD PUSH2 0xC1E SWAP2 SWAP1 PUSH2 0x1752 JUMP JUMPDEST SWAP1 POP DUP1 PUSH1 0x0 SLOAD LT ISZERO PUSH2 0xC65 JUMPI PUSH1 0x40 MLOAD PUSH32 0x8C379A000000000000000000000000000000000000000000000000000000000 DUP2 MSTORE PUSH1 0x4 ADD PUSH2 0xC5C SWAP1 PUSH2 0x1B67 JUMP JUMPDEST PUSH1 0x40 MLOAD DUP1 SWAP2 SUB SWAP1 REVERT JUMPDEST DUP1 PUSH1 0x0 DUP1 DUP3 DUP3 SLOAD PUSH2 0xC76 SWAP2 SWAP1 PUSH2 0x1752 JUMP JUMPDEST SWAP3 POP POP DUP2 SWAP1 SSTORE POP DUP3 PUSH1 0x1 PUSH1 0x0 DUP3 DUP3 SLOAD PUSH2 0xC8F SWAP2 SWAP1 PUSH2 0x12AA JUMP JUMPDEST SWAP3 POP POP DUP2 SWAP1 SSTORE POP PUSH1 0x1 SLOAD PUSH1 0x0 SLOAD PUSH2 0xCA6 SWAP2 SWAP1 PUSH2 0x15B2 JUMP JUMPDEST PUSH1 0x4 DUP2 SWAP1 SSTORE POP PUSH1 0x5 PUSH1 0x0 SWAP1 SLOAD SWAP1 PUSH2 0x100 EXP SWAP1 DIV PUSH20 0xFFFFFFFFFFFFFFFFFFFFFFFFFFFFFFFFFFFFFFFF AND PUSH20 0xFFFFFFFFFFFFFFFFFFFFFFFFFFFFFFFFFFFFFFFF AND PUSH4 0x23B872DD CALLER ADDRESS DUP7 PUSH1 0x40 MLOAD DUP5 PUSH4 0xFFFFFFFF AND PUSH1 0xE0 SHL DUP2 MSTORE PUSH1 0x4 ADD PUSH2 0xD0B SWAP4 SWAP3 SWAP2 SWAP1 PUSH2 0x1B87 JUMP JUMPDEST PUSH1 0x20 PUSH1 0x40 MLOAD DUP1 DUP4 SUB DUP2 PUSH1 0x0 DUP8 GAS CALL ISZERO DUP1 ISZERO PUSH2 0xD2A JUMPI RETURNDATASIZE PUSH1 0x0 DUP1 RETURNDATACOPY RETURNDATASIZE PUSH1 0x0 REVERT JUMPDEST POP POP POP POP PUSH1 0x40 MLOAD RETURNDATASIZE PUSH1 0x1F NOT PUSH1 0x1F DUP3 ADD AND DUP3 ADD DUP1 PUSH1 0x40 MSTORE POP DUP2 ADD SWAP1 PUSH2 0xD4E SWAP2 SWAP1 PUSH2 0x17E7 JUMP JUMPDEST PUSH2 0xD8D JUMPI PUSH1 0x40 MLOAD PUSH32 0x8C379A000000000000000000000000000000000000000000000000000000000 DUP2 MSTORE PUSH1 0x4 ADD PUSH2 0xD84 SWAP1 PUSH2 0x1860 JUMP JUMPDEST PUSH1 0x40 MLOAD DUP1 SWAP2 SUB SWAP1 REVERT JUMPDEST CALLER PUSH20 0xFFFFFFFFFFFFFFFFFFFFFFFFFFFFFFFFFFFFFFFF AND PUSH2 0x8FC DUP3 SWAP1 DUP2 ISZERO MUL SWAP1 PUSH1 0x40 MLOAD PUSH1 0x0 PUSH1 0x40 MLOAD DUP1 DUP4 SUB DUP2 DUP6 DUP9 DUP9 CALL SWAP4 POP POP POP POP ISZERO DUP1 ISZERO PUSH2 0xDD3 JUMPI RETURNDATASIZE PUSH1 0x0 DUP1 RETURNDATACOPY RETURNDATASIZE PUSH1 0x0 REVERT JUMPDEST POP PUSH32 0x3297A389BB586920E62A196AF529D5F42651B17A1013D6BFE77F22372A0B2112 DUP4 DUP3 PUSH1 0x40 MLOAD PUSH2 0xE05 SWAP3 SWAP2 SWAP1 PUSH2 0x134B JUMP JUMPDEST PUSH1 0x40 MLOAD DUP1 SWAP2 SUB SWAP1 LOG1 DUP1 SWAP2 POP POP SWAP2 SWAP1 POP JUMP JUMPDEST PUSH1 0x1 SLOAD DUP2 JUMP JUMPDEST PUSH1 0x0 PUSH1 0x3 PUSH1 0x0 CALLER PUSH20 0xFFFFFFFFFFFFFFFFFFFFFFFFFFFFFFFFFFFFFFFF AND PUSH20 0xFFFFFFFFFFFFFFFFFFFFFFFFFFFFFFFFFFFFFFFF AND DUP2 MSTORE PUSH1 0x20 ADD SWAP1 DUP2 MSTORE PUSH1 0x20 ADD PUSH1 0x0 KECCAK256 SLOAD SWAP1 POP SWAP1 JUMP JUMPDEST PUSH1 0x0 DUP1 DUP3 GT PUSH2 0xEA7 JUMPI PUSH1 0x40 MLOAD PUSH32 0x8C379A000000000000000000000000000000000000000000000000000000000 DUP2 MSTORE PUSH1 0x4 ADD PUSH2 0xE9E SWAP1 PUSH2 0x1C0A JUMP JUMPDEST PUSH1 0x40 MLOAD DUP1 SWAP2 SUB SWAP1 REVERT JUMPDEST PUSH1 0x0 PUSH1 0x5 PUSH1 0x0 SWAP1 SLOAD SWAP1 PUSH2 0x100 EXP SWAP1 DIV PUSH20 0xFFFFFFFFFFFFFFFFFFFFFFFFFFFFFFFFFFFFFFFF AND PUSH20 0xFFFFFFFFFFFFFFFFFFFFFFFFFFFFFFFFFFFFFFFF AND PUSH4 0x70A08231 CALLER PUSH1 0x40 MLOAD DUP3 PUSH4 0xFFFFFFFF AND PUSH1 0xE0 SHL DUP2 MSTORE PUSH1 0x4 ADD PUSH2 0xF04 SWAP2 SWAP1 PUSH2 0x13D0 JUMP JUMPDEST PUSH1 0x20 PUSH1 0x40 MLOAD DUP1 DUP4 SUB DUP2 DUP7 GAS STATICCALL ISZERO DUP1 ISZERO PUSH2 0xF21 JUMPI RETURNDATASIZE PUSH1 0x0 DUP1 RETURNDATACOPY RETURNDATASIZE PUSH1 0x0 REVERT JUMPDEST POP POP POP POP PUSH1 0x40 MLOAD RETURNDATASIZE PUSH1 0x1F NOT PUSH1 0x1F DUP3 ADD AND DUP3 ADD DUP1 PUSH1 0x40 MSTORE POP DUP2 ADD SWAP1 PUSH2 0xF45 SWAP2 SWAP1 PUSH2 0x1A5C JUMP JUMPDEST SWAP1 POP DUP3 DUP2 LT ISZERO PUSH2 0xF8A JUMPI PUSH1 0x40 MLOAD PUSH32 0x8C379A000000000000000000000000000000000000000000000000000000000 DUP2 MSTORE PUSH1 0x4 ADD PUSH2 0xF81 SWAP1 PUSH2 0x1C9C JUMP JUMPDEST PUSH1 0x40 MLOAD DUP1 SWAP2 SUB SWAP1 REVERT JUMPDEST PUSH1 0x0 DUP1 PUSH1 0x2 SLOAD SUB PUSH2 0xF9E JUMPI PUSH1 0x64 SWAP1 POP PUSH2 0xFBC JUMP JUMPDEST PUSH1 0x1 SLOAD DUP5 PUSH1 0x2 SLOAD PUSH2 0xFAF SWAP2 SWAP1 PUSH2 0x15B2 JUMP JUMPDEST PUSH2 0xFB9 SWAP2 SWAP1 PUSH2 0x1623 JUMP JUMPDEST SWAP1 POP JUMPDEST PUSH1 0x0 CALLVALUE GT PUSH2 0xFFF JUMPI PUSH1 0x40 MLOAD PUSH32 0x8C379A000000000000000000000000000000000000000000000000000000000 DUP2 MSTORE PUSH1 0x4 ADD PUSH2 0xFF6 SWAP1 PUSH2 0x1D2E JUMP JUMPDEST PUSH1 0x40 MLOAD DUP1 SWAP2 SUB SWAP1 REVERT JUMPDEST ADDRESS PUSH20 0xFFFFFFFFFFFFFFFFFFFFFFFFFFFFFFFFFFFFFFFF AND PUSH2 0x8FC CALLVALUE SWAP1 DUP2 ISZERO MUL SWAP1 PUSH1 0x40 MLOAD PUSH1 0x0 PUSH1 0x40 MLOAD DUP1 DUP4 SUB DUP2 DUP6 DUP9 DUP9 CALL SWAP4 POP POP POP POP ISZERO DUP1 ISZERO PUSH2 0x1045 JUMPI RETURNDATASIZE PUSH1 0x0 DUP1 RETURNDATACOPY RETURNDATASIZE PUSH1 0x0 REVERT JUMPDEST POP PUSH1 0x5 PUSH1 0x0 SWAP1 SLOAD SWAP1 PUSH2 0x100 EXP SWAP1 DIV PUSH20 0xFFFFFFFFFFFFFFFFFFFFFFFFFFFFFFFFFFFFFFFF AND PUSH20 0xFFFFFFFFFFFFFFFFFFFFFFFFFFFFFFFFFFFFFFFF AND PUSH4 0x23B872DD CALLER ADDRESS DUP8 PUSH1 0x40 MLOAD DUP5 PUSH4 0xFFFFFFFF AND PUSH1 0xE0 SHL DUP2 MSTORE PUSH1 0x4 ADD PUSH2 0x10A5 SWAP4 SWAP3 SWAP2 SWAP1 PUSH2 0x1B87 JUMP JUMPDEST PUSH1 0x20 PUSH1 0x40 MLOAD DUP1 DUP4 SUB DUP2 PUSH1 0x0 DUP8 GAS CALL ISZERO DUP1 ISZERO PUSH2 0x10C4 JUMPI RETURNDATASIZE PUSH1 0x0 DUP1 RETURNDATACOPY RETURNDATASIZE PUSH1 0x0 REVERT JUMPDEST POP POP POP POP PUSH1 0x40 MLOAD RETURNDATASIZE PUSH1 0x1F NOT PUSH1 0x1F DUP3 ADD AND DUP3 ADD DUP1 PUSH1 0x40 MSTORE POP DUP2 ADD SWAP1 PUSH2 0x10E8 SWAP2 SWAP1 PUSH2 0x17E7 JUMP JUMPDEST PUSH2 0x1127 JUMPI PUSH1 0x40 MLOAD PUSH32 0x8C379A000000000000000000000000000000000000000000000000000000000 DUP2 MSTORE PUSH1 0x4 ADD PUSH2 0x111E SWAP1 PUSH2 0x1860 JUMP JUMPDEST PUSH1 0x40 MLOAD DUP1 SWAP2 SUB SWAP1 REVERT JUMPDEST CALLVALUE PUSH1 0x0 DUP1 DUP3 DUP3 SLOAD PUSH2 0x1138 SWAP2 SWAP1 PUSH2 0x12AA JUMP JUMPDEST SWAP3 POP POP DUP2 SWAP1 SSTORE POP DUP4 PUSH1 0x1 PUSH1 0x0 DUP3 DUP3 SLOAD PUSH2 0x1151 SWAP2 SWAP1 PUSH2 0x12AA JUMP JUMPDEST SWAP3 POP POP DUP2 SWAP1 SSTORE POP PUSH1 0x1 SLOAD PUSH1 0x0 SLOAD PUSH2 0x1168 SWAP2 SWAP1 PUSH2 0x15B2 JUMP JUMPDEST PUSH1 0x4 DUP2 SWAP1 SSTORE POP DUP1 PUSH1 0x2 PUSH1 0x0 DUP3 DUP3 SLOAD PUSH2 0x1180 SWAP2 SWAP1 PUSH2 0x12AA JUMP JUMPDEST SWAP3 POP POP DUP2 SWAP1 SSTORE POP DUP1 PUSH1 0x3 PUSH1 0x0 CALLER PUSH20 0xFFFFFFFFFFFFFFFFFFFFFFFFFFFFFFFFFFFFFFFF AND PUSH20 0xFFFFFFFFFFFFFFFFFFFFFFFFFFFFFFFFFFFFFFFF AND DUP2 MSTORE PUSH1 0x20 ADD SWAP1 DUP2 MSTORE PUSH1 0x20 ADD PUSH1 0x0 KECCAK256 PUSH1 0x0 DUP3 DUP3 SLOAD PUSH2 0x11D6 SWAP2 SWAP1 PUSH2 0x12AA JUMP JUMPDEST SWAP3 POP POP DUP2 SWAP1 SSTORE POP PUSH32 0xAA58F006CC244B2AF6662862508BD39465F57169FF8386D1D1F7B0B903150ABC DUP5 CALLVALUE DUP4 PUSH1 0x40 MLOAD PUSH2 0x1210 SWAP4 SWAP3 SWAP2 SWAP1 PUSH2 0x1880 JUMP JUMPDEST PUSH1 0x40 MLOAD DUP1 SWAP2 SUB SWAP1 LOG1 DUP1 SWAP3 POP POP POP SWAP2 SWAP1 POP JUMP JUMPDEST PUSH1 0x0 DUP1 PUSH1 0x0 SLOAD DUP4 PUSH1 0x1 SLOAD PUSH2 0x1236 SWAP2 SWAP1 PUSH2 0x15B2 JUMP JUMPDEST PUSH2 0x1240 SWAP2 SWAP1 PUSH2 0x1623 JUMP JUMPDEST SWAP1 POP DUP1 SWAP2 POP POP SWAP2 SWAP1 POP JUMP JUMPDEST PUSH1 0x5 PUSH1 0x0 SWAP1 SLOAD SWAP1 PUSH2 0x100 EXP SWAP1 DIV PUSH20 0xFFFFFFFFFFFFFFFFFFFFFFFFFFFFFFFFFFFFFFFF AND DUP2 JUMP JUMPDEST PUSH1 0x0 DUP2 SWAP1 POP SWAP2 SWAP1 POP JUMP JUMPDEST PUSH32 0x4E487B7100000000000000000000000000000000000000000000000000000000 PUSH1 0x0 MSTORE PUSH1 0x11 PUSH1 0x4 MSTORE PUSH1 0x24 PUSH1 0x0 REVERT JUMPDEST PUSH1 0x0 PUSH2 0x12B5 DUP3 PUSH2 0x1271 JUMP JUMPDEST SWAP2 POP PUSH2 0x12C0 DUP4 PUSH2 0x1271 JUMP JUMPDEST SWAP3 POP DUP3 DUP3 ADD SWAP1 POP DUP1 DUP3 GT ISZERO PUSH2 0x12D8 JUMPI PUSH2 0x12D7 PUSH2 0x127B JUMP JUMPDEST JUMPDEST SWAP3 SWAP2 POP POP JUMP JUMPDEST PUSH1 0x0 DUP1 REVERT JUMPDEST PUSH2 0x12EC DUP2 PUSH2 0x1271 JUMP JUMPDEST DUP2 EQ PUSH2 0x12F7 JUMPI PUSH1 0x0 DUP1 REVERT JUMPDEST POP JUMP JUMPDEST PUSH1 0x0 DUP2 CALLDATALOAD SWAP1 POP PUSH2 0x1309 DUP2 PUSH2 0x12E3 JUMP JUMPDEST SWAP3 SWAP2 POP POP JUMP JUMPDEST PUSH1 0x0 PUSH1 0x20 DUP3 DUP5 SUB SLT ISZERO PUSH2 0x1325 JUMPI PUSH2 0x1324 PUSH2 0x12DE JUMP JUMPDEST JUMPDEST PUSH1 0x0 PUSH2 0x1333 DUP5 DUP3 DUP6 ADD PUSH2 0x12FA JUMP JUMPDEST SWAP2 POP POP SWAP3 SWAP2 POP POP JUMP JUMPDEST PUSH2 0x1345 DUP2 PUSH2 0x1271 JUMP JUMPDEST DUP3 MSTORE POP POP JUMP JUMPDEST PUSH1 0x0 PUSH1 0x40 DUP3 ADD SWAP1 POP PUSH2 0x1360 PUSH1 0x0 DUP4 ADD DUP6 PUSH2 0x133C JUMP JUMPDEST PUSH2 0x136D PUSH1 0x20 DUP4 ADD DUP5 PUSH2 0x133C JUMP JUMPDEST SWAP4 SWAP3 POP POP POP JUMP JUMPDEST PUSH1 0x0 PUSH1 0x20 DUP3 ADD SWAP1 POP PUSH2 0x1389 PUSH1 0x0 DUP4 ADD DUP5 PUSH2 0x133C JUMP JUMPDEST SWAP3 SWAP2 POP POP JUMP JUMPDEST PUSH1 0x0 PUSH20 0xFFFFFFFFFFFFFFFFFFFFFFFFFFFFFFFFFFFFFFFF DUP3 AND SWAP1 POP SWAP2 SWAP1 POP JUMP JUMPDEST PUSH1 0x0 PUSH2 0x13BA DUP3 PUSH2 0x138F JUMP JUMPDEST SWAP1 POP SWAP2 SWAP1 POP JUMP JUMPDEST PUSH2 0x13CA DUP2 PUSH2 0x13AF JUMP JUMPDEST DUP3 MSTORE POP POP JUMP JUMPDEST PUSH1 0x0 PUSH1 0x20 DUP3 ADD SWAP1 POP PUSH2 0x13E5 PUSH1 0x0 DUP4 ADD DUP5 PUSH2 0x13C1 JUMP JUMPDEST SWAP3 SWAP2 POP POP JUMP JUMPDEST PUSH1 0x0 DUP3 DUP3 MSTORE PUSH1 0x20 DUP3 ADD SWAP1 POP SWAP3 SWAP2 POP POP JUMP JUMPDEST PUSH32 0x546865206E756D626572206F66206C697175696469747920706F736974696F6E PUSH1 0x0 DUP3 ADD MSTORE PUSH32 0x7320746F206275726E206D7573742062652067726561746572207468616E2030 PUSH1 0x20 DUP3 ADD MSTORE POP JUMP JUMPDEST PUSH1 0x0 PUSH2 0x1458 PUSH1 0x40 DUP4 PUSH2 0x13EB JUMP JUMPDEST SWAP2 POP PUSH2 0x1463 DUP3 PUSH2 0x13FC JUMP JUMPDEST PUSH1 0x40 DUP3 ADD SWAP1 POP SWAP2 SWAP1 POP JUMP JUMPDEST PUSH1 0x0 PUSH1 0x20 DUP3 ADD SWAP1 POP DUP2 DUP2 SUB PUSH1 0x0 DUP4 ADD MSTORE PUSH2 0x1487 DUP2 PUSH2 0x144B JUMP JUMPDEST SWAP1 POP SWAP2 SWAP1 POP JUMP JUMPDEST PUSH32 0x43616C6C65722063616E27742067697665207570206D6F7265206C6971756964 PUSH1 0x0 DUP3 ADD MSTORE PUSH32 0x69747920706F736974696F6E73207468616E2074686579206F776E0000000000 PUSH1 0x20 DUP3 ADD MSTORE POP JUMP JUMPDEST PUSH1 0x0 PUSH2 0x14EA PUSH1 0x3B DUP4 PUSH2 0x13EB JUMP JUMPDEST SWAP2 POP PUSH2 0x14F5 DUP3 PUSH2 0x148E JUMP JUMPDEST PUSH1 0x40 DUP3 ADD SWAP1 POP SWAP2 SWAP1 POP JUMP JUMPDEST PUSH1 0x0 PUSH1 0x20 DUP3 ADD SWAP1 POP DUP2 DUP2 SUB PUSH1 0x0 DUP4 ADD MSTORE PUSH2 0x1519 DUP2 PUSH2 0x14DD JUMP JUMPDEST SWAP1 POP SWAP2 SWAP1 POP JUMP JUMPDEST PUSH32 0x43616C6C65722063616E2774206769766520757020616C6C206C697175696469 PUSH1 0x0 DUP3 ADD MSTORE PUSH32 0x747920706F736974696F6E7320696E2074686520706F6F6C0000000000000000 PUSH1 0x20 DUP3 ADD MSTORE POP JUMP JUMPDEST PUSH1 0x0 PUSH2 0x157C PUSH1 0x38 DUP4 PUSH2 0x13EB JUMP JUMPDEST SWAP2 POP PUSH2 0x1587 DUP3 PUSH2 0x1520 JUMP JUMPDEST PUSH1 0x40 DUP3 ADD SWAP1 POP SWAP2 SWAP1 POP JUMP JUMPDEST PUSH1 0x0 PUSH1 0x20 DUP3 ADD SWAP1 POP DUP2 DUP2 SUB PUSH1 0x0 DUP4 ADD MSTORE PUSH2 0x15AB DUP2 PUSH2 0x156F JUMP JUMPDEST SWAP1 POP SWAP2 SWAP1 POP JUMP JUMPDEST PUSH1 0x0 PUSH2 0x15BD DUP3 PUSH2 0x1271 JUMP JUMPDEST SWAP2 POP PUSH2 0x15C8 DUP4 PUSH2 0x1271 JUMP JUMPDEST SWAP3 POP DUP3 DUP3 MUL PUSH2 0x15D6 DUP2 PUSH2 0x1271 JUMP JUMPDEST SWAP2 POP DUP3 DUP3 DIV DUP5 EQ DUP4 ISZERO OR PUSH2 0x15ED JUMPI PUSH2 0x15EC PUSH2 0x127B JUMP JUMPDEST JUMPDEST POP SWAP3 SWAP2 POP POP JUMP JUMPDEST PUSH32 0x4E487B7100000000000000000000000000000000000000000000000000000000 PUSH1 0x0 MSTORE PUSH1 0x12 PUSH1 0x4 MSTORE PUSH1 0x24 PUSH1 0x0 REVERT JUMPDEST PUSH1 0x0 PUSH2 0x162E DUP3 PUSH2 0x1271 JUMP JUMPDEST SWAP2 POP PUSH2 0x1639 DUP4 PUSH2 0x1271 JUMP JUMPDEST SWAP3 POP DUP3 PUSH2 0x1649 JUMPI PUSH2 0x1648 PUSH2 0x15F4 JUMP JUMPDEST JUMPDEST DUP3 DUP3 DIV SWAP1 POP SWAP3 SWAP2 POP POP JUMP JUMPDEST PUSH32 0x4E6F7420656E6F75676820457468657220696E2074686520636F6E7472616374 PUSH1 0x0 DUP3 ADD MSTORE POP JUMP JUMPDEST PUSH1 0x0 PUSH2 0x168A PUSH1 0x20 DUP4 PUSH2 0x13EB JUMP JUMPDEST SWAP2 POP PUSH2 0x1695 DUP3 PUSH2 0x1654 JUMP JUMPDEST PUSH1 0x20 DUP3 ADD SWAP1 POP SWAP2 SWAP1 POP JUMP JUMPDEST PUSH1 0x0 PUSH1 0x20 DUP3 ADD SWAP1 POP DUP2 DUP2 SUB PUSH1 0x0 DUP4 ADD MSTORE PUSH2 0x16B9 DUP2 PUSH2 0x167D JUMP JUMPDEST SWAP1 POP SWAP2 SWAP1 POP JUMP JUMPDEST PUSH32 0x4E6F7420656E6F75676820455243323020746F6B656E7320696E207468652063 PUSH1 0x0 DUP3 ADD MSTORE PUSH32 0x6F6E747261637400000000000000000000000000000000000000000000000000 PUSH1 0x20 DUP3 ADD MSTORE POP JUMP JUMPDEST PUSH1 0x0 PUSH2 0x171C PUSH1 0x27 DUP4 PUSH2 0x13EB JUMP JUMPDEST SWAP2 POP PUSH2 0x1727 DUP3 PUSH2 0x16C0 JUMP JUMPDEST PUSH1 0x40 DUP3 ADD SWAP1 POP SWAP2 SWAP1 POP JUMP JUMPDEST PUSH1 0x0 PUSH1 0x20 DUP3 ADD SWAP1 POP DUP2 DUP2 SUB PUSH1 0x0 DUP4 ADD MSTORE PUSH2 0x174B DUP2 PUSH2 0x170F JUMP JUMPDEST SWAP1 POP SWAP2 SWAP1 POP JUMP JUMPDEST PUSH1 0x0 PUSH2 0x175D DUP3 PUSH2 0x1271 JUMP JUMPDEST SWAP2 POP PUSH2 0x1768 DUP4 PUSH2 0x1271 JUMP JUMPDEST SWAP3 POP DUP3 DUP3 SUB SWAP1 POP DUP2 DUP2 GT ISZERO PUSH2 0x1780 JUMPI PUSH2 0x177F PUSH2 0x127B JUMP JUMPDEST JUMPDEST SWAP3 SWAP2 POP POP JUMP JUMPDEST PUSH1 0x0 PUSH1 0x40 DUP3 ADD SWAP1 POP PUSH2 0x179B PUSH1 0x0 DUP4 ADD DUP6 PUSH2 0x13C1 JUMP JUMPDEST PUSH2 0x17A8 PUSH1 0x20 DUP4 ADD DUP5 PUSH2 0x133C JUMP JUMPDEST SWAP4 SWAP3 POP POP POP JUMP JUMPDEST PUSH1 0x0 DUP2 ISZERO ISZERO SWAP1 POP SWAP2 SWAP1 POP JUMP JUMPDEST PUSH2 0x17C4 DUP2 PUSH2 0x17AF JUMP JUMPDEST DUP2 EQ PUSH2 0x17CF JUMPI PUSH1 0x0 DUP1 REVERT JUMPDEST POP JUMP JUMPDEST PUSH1 0x0 DUP2 MLOAD SWAP1 POP PUSH2 0x17E1 DUP2 PUSH2 0x17BB JUMP JUMPDEST SWAP3 SWAP2 POP POP JUMP JUMPDEST PUSH1 0x0 PUSH1 0x20 DUP3 DUP5 SUB SLT ISZERO PUSH2 0x17FD JUMPI PUSH2 0x17FC PUSH2 0x12DE JUMP JUMPDEST JUMPDEST PUSH1 0x0 PUSH2 0x180B DUP5 DUP3 DUP6 ADD PUSH2 0x17D2 JUMP JUMPDEST SWAP2 POP POP SWAP3 SWAP2 POP POP JUMP JUMPDEST PUSH32 0x4552433230207472616E73666572206661696C65640000000000000000000000 PUSH1 0x0 DUP3 ADD MSTORE POP JUMP JUMPDEST PUSH1 0x0 PUSH2 0x184A PUSH1 0x15 DUP4 PUSH2 0x13EB JUMP JUMPDEST SWAP2 POP PUSH2 0x1855 DUP3 PUSH2 0x1814 JUMP JUMPDEST PUSH1 0x20 DUP3 ADD SWAP1 POP SWAP2 SWAP1 POP JUMP JUMPDEST PUSH1 0x0 PUSH1 0x20 DUP3 ADD SWAP1 POP DUP2 DUP2 SUB PUSH1 0x0 DUP4 ADD MSTORE PUSH2 0x1879 DUP2 PUSH2 0x183D JUMP JUMPDEST SWAP1 POP SWAP2 SWAP1 POP JUMP JUMPDEST PUSH1 0x0 PUSH1 0x60 DUP3 ADD SWAP1 POP PUSH2 0x1895 PUSH1 0x0 DUP4 ADD DUP7 PUSH2 0x133C JUMP JUMPDEST PUSH2 0x18A2 PUSH1 0x20 DUP4 ADD DUP6 PUSH2 0x133C JUMP JUMPDEST PUSH2 0x18AF PUSH1 0x40 DUP4 ADD DUP5 PUSH2 0x133C JUMP JUMPDEST SWAP5 SWAP4 POP POP POP POP JUMP JUMPDEST PUSH32 0x54686520616D6F756E74206F662045746820746F6B656E73206D757374206265 PUSH1 0x0 DUP3 ADD MSTORE PUSH32 0x2067726561746572207468616E20300000000000000000000000000000000000 PUSH1 0x20 DUP3 ADD MSTORE POP JUMP JUMPDEST PUSH1 0x0 PUSH2 0x1913 PUSH1 0x2F DUP4 PUSH2 0x13EB JUMP JUMPDEST SWAP2 POP PUSH2 0x191E DUP3 PUSH2 0x18B7 JUMP JUMPDEST PUSH1 0x40 DUP3 ADD SWAP1 POP SWAP2 SWAP1 POP JUMP JUMPDEST PUSH1 0x0 PUSH1 0x20 DUP3 ADD SWAP1 POP DUP2 DUP2 SUB PUSH1 0x0 DUP4 ADD MSTORE PUSH2 0x1942 DUP2 PUSH2 0x1906 JUMP JUMPDEST SWAP1 POP SWAP2 SWAP1 POP JUMP JUMPDEST PUSH32 0x43616C6C657220646F65736E2774206861766520656E6F756768204574680000 PUSH1 0x0 DUP3 ADD MSTORE POP JUMP JUMPDEST PUSH1 0x0 PUSH2 0x197F PUSH1 0x1E DUP4 PUSH2 0x13EB JUMP JUMPDEST SWAP2 POP PUSH2 0x198A DUP3 PUSH2 0x1949 JUMP JUMPDEST PUSH1 0x20 DUP3 ADD SWAP1 POP SWAP2 SWAP1 POP JUMP JUMPDEST PUSH1 0x0 PUSH1 0x20 DUP3 ADD SWAP1 POP DUP2 DUP2 SUB PUSH1 0x0 DUP4 ADD MSTORE PUSH2 0x19AE DUP2 PUSH2 0x1972 JUMP JUMPDEST SWAP1 POP SWAP2 SWAP1 POP JUMP JUMPDEST PUSH32 0x54686520616D6F756E74206F6620455243323020746F6B656E7320746F207377 PUSH1 0x0 DUP3 ADD MSTORE PUSH32 0x6170206D7573742062652067726561746572207468616E203000000000000000 PUSH1 0x20 DUP3 ADD MSTORE POP JUMP JUMPDEST PUSH1 0x0 PUSH2 0x1A11 PUSH1 0x39 DUP4 PUSH2 0x13EB JUMP JUMPDEST SWAP2 POP PUSH2 0x1A1C DUP3 PUSH2 0x19B5 JUMP JUMPDEST PUSH1 0x40 DUP3 ADD SWAP1 POP SWAP2 SWAP1 POP JUMP JUMPDEST PUSH1 0x0 PUSH1 0x20 DUP3 ADD SWAP1 POP DUP2 DUP2 SUB PUSH1 0x0 DUP4 ADD MSTORE PUSH2 0x1A40 DUP2 PUSH2 0x1A04 JUMP JUMPDEST SWAP1 POP SWAP2 SWAP1 POP JUMP JUMPDEST PUSH1 0x0 DUP2 MLOAD SWAP1 POP PUSH2 0x1A56 DUP2 PUSH2 0x12E3 JUMP JUMPDEST SWAP3 SWAP2 POP POP JUMP JUMPDEST PUSH1 0x0 PUSH1 0x20 DUP3 DUP5 SUB SLT ISZERO PUSH2 0x1A72 JUMPI PUSH2 0x1A71 PUSH2 0x12DE JUMP JUMPDEST JUMPDEST PUSH1 0x0 PUSH2 0x1A80 DUP5 DUP3 DUP6 ADD PUSH2 0x1A47 JUMP JUMPDEST SWAP2 POP POP SWAP3 SWAP2 POP POP JUMP JUMPDEST PUSH32 0x43616C6C657220646F65736E2774206861766520656E6F756768204552433230 PUSH1 0x0 DUP3 ADD MSTORE PUSH32 0x20746F6B656E7300000000000000000000000000000000000000000000000000 PUSH1 0x20 DUP3 ADD MSTORE POP JUMP JUMPDEST PUSH1 0x0 PUSH2 0x1AE5 PUSH1 0x27 DUP4 PUSH2 0x13EB JUMP JUMPDEST SWAP2 POP PUSH2 0x1AF0 DUP3 PUSH2 0x1A89 JUMP JUMPDEST PUSH1 0x40 DUP3 ADD SWAP1 POP SWAP2 SWAP1 POP JUMP JUMPDEST PUSH1 0x0 PUSH1 0x20 DUP3 ADD SWAP1 POP DUP2 DUP2 SUB PUSH1 0x0 DUP4 ADD MSTORE PUSH2 0x1B14 DUP2 PUSH2 0x1AD8 JUMP JUMPDEST SWAP1 POP SWAP2 SWAP1 POP JUMP JUMPDEST PUSH32 0x4E6F7420656E6F75676820657468657220696E2074686520636F6E7472616374 PUSH1 0x0 DUP3 ADD MSTORE POP JUMP JUMPDEST PUSH1 0x0 PUSH2 0x1B51 PUSH1 0x20 DUP4 PUSH2 0x13EB JUMP JUMPDEST SWAP2 POP PUSH2 0x1B5C DUP3 PUSH2 0x1B1B JUMP JUMPDEST PUSH1 0x20 DUP3 ADD SWAP1 POP SWAP2 SWAP1 POP JUMP JUMPDEST PUSH1 0x0 PUSH1 0x20 DUP3 ADD SWAP1 POP DUP2 DUP2 SUB PUSH1 0x0 DUP4 ADD MSTORE PUSH2 0x1B80 DUP2 PUSH2 0x1B44 JUMP JUMPDEST SWAP1 POP SWAP2 SWAP1 POP JUMP JUMPDEST PUSH1 0x0 PUSH1 0x60 DUP3 ADD SWAP1 POP PUSH2 0x1B9C PUSH1 0x0 DUP4 ADD DUP7 PUSH2 0x13C1 JUMP JUMPDEST PUSH2 0x1BA9 PUSH1 0x20 DUP4 ADD DUP6 PUSH2 0x13C1 JUMP JUMPDEST PUSH2 0x1BB6 PUSH1 0x40 DUP4 ADD DUP5 PUSH2 0x133C JUMP JUMPDEST SWAP5 SWAP4 POP POP POP POP JUMP JUMPDEST PUSH32 0x596F75206D757374206465706F736974204552432D323020746F6B656E732E00 PUSH1 0x0 DUP3 ADD MSTORE POP JUMP JUMPDEST PUSH1 0x0 PUSH2 0x1BF4 PUSH1 0x1F DUP4 PUSH2 0x13EB JUMP JUMPDEST SWAP2 POP PUSH2 0x1BFF DUP3 PUSH2 0x1BBE JUMP JUMPDEST PUSH1 0x20 DUP3 ADD SWAP1 POP SWAP2 SWAP1 POP JUMP JUMPDEST PUSH1 0x0 PUSH1 0x20 DUP3 ADD SWAP1 POP DUP2 DUP2 SUB PUSH1 0x0 DUP4 ADD MSTORE PUSH2 0x1C23 DUP2 PUSH2 0x1BE7 JUMP JUMPDEST SWAP1 POP SWAP2 SWAP1 POP JUMP JUMPDEST PUSH32 0x43616C6C657220646F6573206E6F74206861766520656E6F7567682045524332 PUSH1 0x0 DUP3 ADD MSTORE PUSH32 0x3020746F6B656E73000000000000000000000000000000000000000000000000 PUSH1 0x20 DUP3 ADD MSTORE POP JUMP JUMPDEST PUSH1 0x0 PUSH2 0x1C86 PUSH1 0x28 DUP4 PUSH2 0x13EB JUMP JUMPDEST SWAP2 POP PUSH2 0x1C91 DUP3 PUSH2 0x1C2A JUMP JUMPDEST PUSH1 0x40 DUP3 ADD SWAP1 POP SWAP2 SWAP1 POP JUMP JUMPDEST PUSH1 0x0 PUSH1 0x20 DUP3 ADD SWAP1 POP DUP2 DUP2 SUB PUSH1 0x0 DUP4 ADD MSTORE PUSH2 0x1CB5 DUP2 PUSH2 0x1C79 JUMP JUMPDEST SWAP1 POP SWAP2 SWAP1 POP JUMP JUMPDEST PUSH32 0x43616C6C657220646F6573206E6F74206861766520656E6F7567682065746865 PUSH1 0x0 DUP3 ADD MSTORE PUSH32 0x7200000000000000000000000000000000000000000000000000000000000000 PUSH1 0x20 DUP3 ADD MSTORE POP JUMP JUMPDEST PUSH1 0x0 PUSH2 0x1D18 PUSH1 0x21 DUP4 PUSH2 0x13EB JUMP JUMPDEST SWAP2 POP PUSH2 0x1D23 DUP3 PUSH2 0x1CBC JUMP JUMPDEST PUSH1 0x40 DUP3 ADD SWAP1 POP SWAP2 SWAP1 POP JUMP JUMPDEST PUSH1 0x0 PUSH1 0x20 DUP3 ADD SWAP1 POP DUP2 DUP2 SUB PUSH1 0x0 DUP4 ADD MSTORE PUSH2 0x1D47 DUP2 PUSH2 0x1D0B JUMP JUMPDEST SWAP1 POP SWAP2 SWAP1 POP JUMP INVALID LOG2 PUSH5 0x6970667358 0x22 SLT KECCAK256 0xE7 PUSH4 0x1A938208 SAR 0x21 PUSH12 0xB946B1F58A16E639E1F09E11 SELFDESTRUCT CALLDATACOPY INVALID STOP LOG3 0x4F DUP15 PUSH29 0xC721F464736F6C63430008120033000000000000000000000000000000 "
				},
				"gasEstimates": {
					"creation": {
						"codeDepositCost": "1511200",
						"executionCost": "infinite",
						"totalCost": "infinite"
					},
					"external": {
						"contractERC20TokenBalance()": "2496",
						"contractEthBalance()": "2452",
						"erc20TokenAddress()": "2602",
						"estimateERC20TokenToProvide(uint256)": "infinite",
						"estimateEthToProvide(uint256)": "infinite",
						"estimateSwapForERC20Token(uint256)": "infinite",
						"estimateSwapForEth(uint256)": "infinite",
						"getMyLiquidityPositions()": "2548",
						"k()": "2518",
						"provideLiquidity(uint256)": "infinite",
						"swapForERC20Token(uint256)": "infinite",
						"swapForEth(uint256)": "infinite",
						"totalLiquidityPositions()": "2475",
						"withdrawLiquidity(uint256)": "infinite"
					}
				},
				"methodIdentifiers": {
					"contractERC20TokenBalance()": "c9691034",
					"contractEthBalance()": "5d58ce36",
					"erc20TokenAddress()": "f835cd3c",
					"estimateERC20TokenToProvide(uint256)": "ed7bf868",
					"estimateEthToProvide(uint256)": "240f3dea",
					"estimateSwapForERC20Token(uint256)": "79ed3562",
					"estimateSwapForEth(uint256)": "903875f7",
					"getMyLiquidityPositions()": "e0ba2000",
					"k()": "b4f40c61",
					"provideLiquidity(uint256)": "eb521a4c",
					"swapForERC20Token(uint256)": "ba1f9272",
					"swapForEth(uint256)": "c8ab8325",
					"totalLiquidityPositions()": "1cde6226",
					"withdrawLiquidity(uint256)": "0a861f2a"
				}
			},
			"storageLayout": {
				"storage": [
					{
						"astId": 82,
						"contract": "Exchange.sol:Exchange",
						"label": "contractEthBalance",
						"offset": 0,
						"slot": "0",
						"type": "t_uint256"
					},
					{
						"astId": 84,
						"contract": "Exchange.sol:Exchange",
						"label": "contractERC20TokenBalance",
						"offset": 0,
						"slot": "1",
						"type": "t_uint256"
					},
					{
						"astId": 86,
						"contract": "Exchange.sol:Exchange",
						"label": "totalLiquidityPositions",
						"offset": 0,
						"slot": "2",
						"type": "t_uint256"
					},
					{
						"astId": 90,
						"contract": "Exchange.sol:Exchange",
						"label": "mapLiquidityPositions",
						"offset": 0,
						"slot": "3",
						"type": "t_mapping(t_address,t_uint256)"
					},
					{
						"astId": 92,
						"contract": "Exchange.sol:Exchange",
						"label": "k",
						"offset": 0,
						"slot": "4",
						"type": "t_uint256"
					},
					{
						"astId": 94,
						"contract": "Exchange.sol:Exchange",
						"label": "erc20TokenAddress",
						"offset": 0,
						"slot": "5",
						"type": "t_address"
					}
				],
				"types": {
					"t_address": {
						"encoding": "inplace",
						"label": "address",
						"numberOfBytes": "20"
					},
					"t_mapping(t_address,t_uint256)": {
						"encoding": "mapping",
						"key": "t_address",
						"label": "mapping(address => uint256)",
						"numberOfBytes": "32",
						"value": "t_uint256"
					},
					"t_uint256": {
						"encoding": "inplace",
						"label": "uint256",
						"numberOfBytes": "32"
					}
				}
			},
			"userdoc": {
				"kind": "user",
				"methods": {},
				"version": 1
			}
		}
	}
}